:060000000A128A11122809
:10000800FE00030EFA000408FB000A08FC00831235
:1000180003137F08FD000A168A11D52C0A128A11CB
:100028001528EC01ED01EE01EF018313D7308400B0
:10003800EF300A168A11C3220A128A118316031393
:100048000A128A11FE270A128A11EF00831203137B
:100058000A168A11AE220A128A11E6000A168A11B5
:10006800AF220A128A11E7000A168A11B0220A1270
:100078008A11E8000A168A11B1220A128A11E900C7
:100088000A168A11B2220A128A11EA000A168A117D
:10009800B322EB0083010A128A11F92BC0308312B4
:1000A8000313C1007F30C2004430C3000030B100E8
:1000B800A030B2004030B3005208A901A907510886
:1000C800A801A8070A168A11B1230A128A118312F5
:1000D80003132808B4002908B5002A08B6000A1234
:1000E8008A1525240A128A11831203133108C400C1
:1000F8003208C5003308C6000A128A113C270A12C2
:100108008A1183120313410883160313A000831274
:100118000313420883160313A10083120313430831
:1001280083160313A200003083120313C100A0300A
:10013800C2004030C3008316031320088312031340
:10014800C40083160313210883120313C500831602
:100158000313220883120313C6000A128A113C27CC
:100168000A128A1183120313410883160313C40069
:1001780083120313420883160313C5008312031363
:10018800430883160313C600440883120313B100FF
:1001980083160313450883120313B200831603134F
:1001A800460883120313B30083160313440883120B
:1001B8000313B40083160313450883120313B50011
:1001C80083160313460883120313B6000A128A150E
:1001D80025240A128A118312031331088316031384
:1001E800B50083120313320883160313B600831273
:1001F8000313330883160313B70044088312031349
:10020800B10083160313450883120313B200831643
:100218000313460883120313B30083160313350828
:1002280083120313B40083160313360883120313CF
:10023800B50083160313370883120313B6000A1296
:100248008A1525240A128A1183120313310883168A
:100258000313B80083120313320883160313B9007B
:1002680083120313330883160313BA004408831256
:100278000313B10083160313450883120313B20056
:1002880083160313460883120313B300831603135C
:10029800380883120313B400831603133908831232
:1002A8000313B500831603133A0883120313B60029
:1002B8000A128A1525240A128A1183120313310897
:1002C80083160313BB008312031332088316031328
:1002D800BC0083120313330883160313BD004408BC
:1002E80083120313B1008316031345088312031303
:1002F800B20083160313460883120313B300831650
:1003080003133B0883120313B400831603133C083A
:1003180083120313B500831603133D0883120313D6
:10032800B6000A128A1525240A128A1183120313A9
:10033800310883160313BE00831203133208831691
:100348000313BF0083120313330883160313C0007B
:10035800440883120313B10083160313450883125C
:100368000313B20083160313460883120313B30062
:10037800831603133E0883120313B4008316031372
:100388003F0883120313B500831603134008831232
:100398000313B6000A128A1525240A128A11831239
:1003A8000313310883160313A300831203133208BF
:1003B80083160313A400831203133308831603134D
:1003C800A5009C3083120313B100B230B2003F3055
:1003D800B30083160313350883120313B40083167E
:1003E8000313360883120313B50083160313370863
:1003F80083120313B6000A128A1525240A128A11D9
:10040800831203133108C1003208C2003308C30045
:10041800A930B100DE30B2003C30B30083160313BC
:10042800440883120313B400831603134508831288
:100438000313B50083160313460883120313B6008B
:100448000A128A1525240A128A1183120313310805
:10045800C4003208C5003308C6000A128A15F824F9
:100468000A128A1183120313410883160313A60084
:1004780083120313420883160313A700831203137E
:10048800430883160313A800EE3083120313B10048
:10049800EB30B2003A30B3008316031338088312E6
:1004A8000313B40083160313390883120313B5002A
:1004B800831603133A0883120313B6000A128A1527
:1004C80025240A128A11831203133108C100320845
:1004D800C2003308C30083160313260883120313CC
:1004E800C40083160313270883120313C500831659
:1004F8000313280883120313C6000A128A15F82466
:100508000A128A1183120313410883160313A900E0
:1005180083120313420883160313AA0083120313DA
:10052800430883160313AB00743083120313B1001E
:100538005A30B200BB30B300831603133B08831252
:100548000313B400831603133C0883120313B50086
:10055800831603133D0883120313B6000A128A1583
:1005680025240A128A11831203133108C1003208A4
:10057800C2003308C3008316031329088312031328
:10058800C400831603132A0883120313C5008316B5
:1005980003132B0883120313C6000A128A15F824C2
:1005A8000A128A1183120313410883160313AC003D
:1005B80083120313420883160313AD008312031337
:1005C800430883160313AE00103083120313B100DF
:1005D800FC30B200BA30B300831603133E0883120E
:1005E8000313B400831603133F0883120313B500E3
:1005F80083160313400883120313B6000A128A15E0
:1006080025240A128A11831203133108C100320803
:10061800C2003308C300831603132C088312031384
:10062800C400831603132D0883120313C500831611
:1006380003132E0883120313C6000A128A15F8241E
:100648000A128A1183120313410883160313AF0099
:1006580083120313420883160313B0008312031393
:10066800430883160313B100A83083120313B100A3
:100678009030B2003F30B30083160313230883126F
:100688000313B40083160313240883120313B5005D
:1006980083160313250883120313B6000A128A155A
:1006A80025240A128A11831203133108C100320863
:1006B800C2003308C300831603132F0883120313E1
:1006C800C40083160313300883120313C50083166E
:1006D8000313310883120313C6000A128A15F8247B
:1006E8000A128A1183120313410883160313B200F6
:1006F80083120313420883160313B30083120313F0
:10070800430883160313B400803083120313C10017
:10071800B730C2003930C30083160313320883127E
:100728000313C40083160313330883120313C5008D
:1007380083160313340883120313C6000A128A159A
:10074800F8240A128A11831203134108831603132B
:10075800C10083120313420883160313C2008312D5
:100768000313430883160313C300CA308312031309
:10077800B100CF30B2004330B300831603134108F1
:1007880083120313B400831603134208831203135E
:10079800B50083160313430883120313B6000A1225
:1007A8008A15252483120313310883160313C10005
:1007B80083120313320883160313C2008312031330
:1007C800330883160313C300410883120313D100AF
:1007D80083160313420883120313D20083160313EC
:1007E800430883120313D30008000A168A11D4227F
:1007F8000A128A110A168A11CB220A128A110A16BB
:100808008A11BB220A128A110A128A1501200A12B9
:100818008A11D42D0A168A1141250A128A11C0306C
:100828000A168A1104230A128A110A128A11132637
:100838000A128A1194300A168A1104230A128A119C
:100848000A168A1169230A128A11D4300A168A11E3
:1008580004230A128A111C3083120313AE0090304D
:10086800AF006908DE00DF015E08B0005F08B10074
:100878006B08E000E1016008B2006108B300680895
:10088800E200E3016208B4006308B5006A08E40006
:10089800E5016408B6006508B700C7300A128A1572
:1008A80001260A128A11C73083120313A2000030EE
:1008B800A3000A168A11D6230A128A11D42D83128C
:1008C8000313A20100300A168A1120240A128A1181
:1008D800353083120313A2009030A3000A168A1140
:1008E800D6230A128A1183120313A20101300A16B1
:1008F8008A1120240A128A11112DA9308312031398
:10090800A2009030A3000A168A11D6230A128A116F
:1009180083120313A20103300A168A1120240A1233
:100928008A11593083120313AE009030AF00690862
:10093800DE00DF015E08B0005F08B1006B08E00070
:10094800E1016008B2006108B300C7300A128A15D5
:1009580001260A128A11C73083120313A20000303D
:10096800A3000A168A11D6230A128A1183120313C6
:10097800A20102300A168A1120240A128A110A12C8
:100988008A1579210A128A11D42DB53083120313DE
:10099800A2009030A3000A168A11D6230A128A11DF
:1009A80083120313A20103300A168A1120240A12A3
:1009B8008A11593083120313AE009030AF006908D2
:1009C800DE00DF015E08B0005F08B1006B08E000E0
:1009D800E1016008B2006108B300C7300A128A1545
:1009E80001260A128A11C73083120313A2000030AD
:1009F800A3000A168A11D6230A128A118312031336
:100A0800A20102300A168A1120240A128A110A1237
:100A18008A15CB220A128A11D42D83160313610872
:100A2800003A0319812C013A0319C92CD42DD42D6D
:100A380083120313A20100300A168A1120240A1215
:100A48008A117A3083120313A2009030A3000A1689
:100A58008A11D6230A128A1183120313A2010130C4
:100A68000A168A1120240A128A11CA2DC03083124C
:100A78000313A2009030A3000A168A11D6230A1283
:100A88008A1183120313A20103300A168A11202443
:100A98000A128A119A3083120313AE009030AF0005
:100AA8006808DE00DF015E08B0005F08B1006A0870
:100AB800E000E1016008B2006108B300C7300A1223
:100AC8008A1501260A128A11C73083120313A2005D
:100AD8000030A3000A168A11D6230A128A1183123B
:100AE8000313A20102300A168A1120240A128A115D
:100AF8000A128A15D0200A128A11D42DF1308312D5
:100B08000313A2009030A3000A168A11D6230A12F2
:100B18008A1183120313A20103300A168A112024B2
:100B28000A128A119A3083120313AE009030AF0074
:100B38006808DE00DF015E08B0005F08B1006A08DF
:100B4800E000E1016008B2006108B300C7300A1292
:100B58008A1501260A128A11C73083120313A200CC
:100B68000030A3000A168A11D6230A128A118312AA
:100B78000313A20102300A168A1120240A128A11CC
:100B88000A128A1522220A128A11D42D83160313F7
:100B98006108003A03193A2D013A0319822DD42D20
:100BA8008B130B1383160313E208031DE02D0A169B
:100BB8008A117A250A128A118B170B170A168A11BD
:100BC8008D230A128A110A168A112A230A128A11F7
:100BD8000A168A1147230A128A110A168A11A124B1
:100BE8000A128A110A168A11DF260A128A110A16AF
:100BF8008A1171240A128A110A168A11F3220A121A
:100C08008A11831603136208003A03190E2C013A5D
:100C18000319632C033A03191C2DD42DD42D8316E4
:100C280003135C0883120313CE00831603135D08B5
:100C380083120313CF00831603135E088312031372
:100C4800D0000A128A1542200A128A11831203134D
:100C58004F0883160313B501B507831203134E0813
:100C680083160313B401B407350883120313A901CB
:100C7800A90783160313340883120313A801A807CE
:100C88000A168A11B1230A128A118312031328083B
:100C9800AE002908AF002A08B0000A128A11F4270A
:100CA8000A128A11831203132E08C4002F08C500E4
:100CB8003008C600831603135C0883120313C100AF
:100CC800831603135D0883120313C20083160313EC
:100CD8005E0883120313C3000A128A15F8240A1245
:100CE8008A11831203134108B4004208B50043086F
:100CF800B6000030B100C830B2004230B3000A126A
:100D08008A1525240A128A11831203133108CE008A
:100D18003208CF003308D0000A128A1542200A127E
:100D28008A11831203134F0883160313B701B707F9
:100D3800831203134E0883160313B601B607A030B7
:100D480083120313DC005C0883160313B800113008
:100D580083120313AE009130AF00831603133808D3
:100D68000A128A1501260A128A11831203132E0801
:100D7800DC005C0883160313B8075630831203138C
:100D8800AE009030AF0083160313350883120313A7
:100D9800B101B10783160313340883120313B0019A
:100DA800B0078316031338080A128A1501260A1297
:100DB8008A11831203132E08DC005C0883160313C0
:100DC800B8072E3083120313DC0083160313380888
:100DD8008400831203135C08831380000130DC0055
:100DE8005C0883160313B8073708803AFF00803081
:100DF8007F02031D012F0A3036020318162F3030E8
:100E080083120313DC00831603133808840083124B
:100E180003135C08831380000130DC005C08831630
:100E28000313B807E83083120313AE009030AF0005
:100E380083160313370883120313B101B10783160E
:100E48000313360883120313B001B0078316031384
:100E580038080A128A1501260A128A11A03083124C
:100E68000313A2000030A3000A168A11D623080033
:100E7800831203134408C7004508C8004608C90080
:100E88000310480D490DCA004A08CF00CF08031DBA
:100E9800542F0030C1000030C2000030C3000800E9
:100EA8004108C7004208C8004308C9000310480D9C
:100EB800490DCA004A08D000D008031D6A2F003027
:100EC800C1000030C2000030C30008000030CC0070
:100ED8000030CD000030CE0089305007C7004708E9
:100EE800CF024408C7004508C8004608C9001030AA
:100EF8000310C90CC80CC70CFF3E031D7C2F470804
:100F0800CA004A08D0004108C7004208C800430880
:100F1800C90010300310C90CC80CC70CFF3E031DD4
:100F28008E2F4708CA004A08D0068030C7004708F5
:100F3800D005C517FF30C405FF30C5050030C6050C
:100F4800C217FF30C105FF30C2050030C305183095
:100F5800C7004708CB0001300310CC0DCD0DCE0DD6
:100F6800FF3E031DB02F43084602031DC12F420850
:100F78004502031DC12F41084402031CCE2F41081E
:100F8800C4024208031C420FC5024308031C430A5B
:100F9800C6024C1401300310C40DC50DC60DFF3E2A
:100FA800031DCF2F0130CB02031DAF2F4C08A0002B
:100FB8004D08A1004E08A2004F08C7004708A3002B
:100FC8005008C8004808A4000A168A1196278312F8
:100FD80003132008C1002108C2002208C30008002A
:100FE8008312031330082F042E04031908008030DD
:060FF800B0060800FF3402
:101002000A168A118F260A128A15033083120313D5
:10101200A8008A30A7005630A600A60B0E28A70B00
:101022000E28A80B0E28152883120313A2010030E4
:101032000A168A1120240A128A156A3083120313AF
:10104200A2009030A3000A168A11D6230A128A152A
:101052000A168A11B4220A128A150B30831203135C
:10106200A8002630A7006630A600A60B3628A70BDC
:101072003628A80B36283D2801300A168A11042387
:101082000800831203134E08D2004F08D300500801
:10109200D4000310530D540DD5005508DB00DB08B6
:1010A200031D5C280030D1000030D0000030CF009A
:1010B2000030CE0008004E08D2004F08D30050087E
:1010C200D40017300310D40CD30CD20CFF3E031DF6
:1010D20063285208D5005508D600CF17FF30CE0539
:1010E200FF30CF050030D0054E08D7004F08D8009A
:1010F2005008D900DA018E30DB02DB1F9E285B0824
:10110200803A8F3E03188E280030D1000030D00084
:101112000030CF000030CE00080001300310DA0C9E
:10112200D90CD80CD70CFF3E031D8F280130D200FA
:101132005208DB070319B9288E2818305B02031CFA
:10114200B6280030D1000030D0000030CF0000308F
:10115200CE0008000130D2000310D70DD80DD90DF2
:10116200DA0DD20BAD280130DB02DB08031DAB2800
:1011720056080319C728D709D809D909DA09D70A9D
:101182000319D80A0319D90A0319DA0A5A08D1002D
:101192005908D0005808CF005708CE000800831223
:1011A20003130608C80003300310C80CFF3E031DDA
:1011B200D52848080139C9004908ED000608C800C9
:1011C20004300310C80CFF3E031DE22848080F3903
:1011D200C9004908EC004130C900EE30C800C80B14
:1011E200F028C90BF0280000831203136D080319BD
:1011F20071296C086706031971296C08023A031DEC
:101202001C291830A0000030A1006808013EA2008D
:10121200003003180130A3000A168A1140260A1270
:101222008A15831203132008C8004808E800D43046
:10123200AE009030442983120313EC08031D3B29AE
:101242001830A0000030A1006808173EA20000304C
:1012520003180130A3000A168A1140260A128A15C1
:10126200831203132008C8004808E800CA30AE0001
:1012720090304429831203136C080D3A031D52293E
:10128200DE30AE009030AF006808C800C9014808DF
:10129200B0004908B100E4300A128A1501260A1288
:1012A2008A15E43083120313A2000030A3000A1649
:1012B2008A11D6230A128A15831203136C08C800F6
:1012C2004808E70083120313861D08000D30C90089
:1012D200FB30C800C80B6B29C90B6B297029632925
:1012E200ED08031D0800FF30C8004808E7000800A9
:1012F200831203130608C80003300310C80CFF3E14
:10130200031D7E2948080139C9004908ED00060875
:10131200C80004300310C80CFF3E031D8B29480887
:101322000F39C9004908EC004130C900EE30C8004D
:10133200C80B9929C90B99290000831203136D0860
:1013420003191A2A6C08670603191A2A6C08023A4A
:10135200031DC5291830A0000030A1006908013E14
:10136200A200003003180130A3000A168A11402699
:101372000A128A15831203132008C8004808E900DC
:10138200D430AE009030ED2983120313EC08031D14
:10139200E4291830A0000030A1006908173EA2001D
:1013A200003003180130A3000A168A1140260A12DF
:1013B2008A15831203132008C8004808E900CA30BE
:1013C200AE009030ED29831203136C080D3A031D11
:1013D200FB29DE30AE009030AF006908C800C901B9
:1013E2004808B0004908B100E4300A128A15012603
:1013F2000A128A15E43083120313A2000030A300FC
:101402000A168A11D6230A128A15831203136C084C
:10141200C8004808E70083120313861D08000D3038
:10142200C900FB30C800C80B142AC90B142A192A98
:101432000C2AED08031D0800FF30C8004808E70029
:101442000800831203130608C80003300310C80CF7
:10145200FF3E031D272A48080139C9004908ED004B
:101462000608C80004300310C80CFF3E031D342ACE
:1014720048080F39C9004908EC004130C900EE3074
:10148200C800C80B422AC90B422A00008312031368
:101492006D080319C32A6C0867060319C32A6C086E
:1014A200023A031D6E2A3C30A0000030A1006A08F7
:1014B200053EA200003003180130A3000A168A116B
:1014C20040260A128A15831203132008C80048080E
:1014D200EA00D430AE009030962A83120313EC084F
:1014E200031D8D2A3C30A0000030A1006A08373E5F
:1014F200A200003003180130A3000A168A11402608
:101502000A128A15831203132008C8004808EA0049
:10151200CA30AE009030962A831203136C080D3A3B
:10152200031DA42ADE30AE009030AF006A08C80066
:10153200C9014808B0004908B100E4300A128A150E
:1015420001260A128A15E43083120313A200003026
:10155200A3000A168A11D6230A128A1583120313CC
:101562006C08C8004808E70083120313861D0800B0
:101572000D30C900FB30C800C80BBD2AC90BBD2AFB
:10158200C22AB52AED08031D0800FF30C80048082A
:10159200E7000800831203130608C8000330031093
:1015A200C80CFF3E031DD02A48080139C90049086A
:1015B200ED000608C80004300310C80CFF3E031DEE
:1015C200DD2A48080F39C9004908EC004130C9003A
:1015D200EE30C800C80BEB2AC90BEB2A00008312BD
:1015E20003136D0803196C2B6C08670603196C2B27
:1015F2006C08023A031D172B3C30A0000030A100FA
:101602006B08053EA200003003180130A3000A1641
:101612008A1140260A128A15831203132008C80071
:101622004808EB00D430AE0090303F2B83120313F6
:10163200EC08031D362B3C30A0000030A1006B08E3
:10164200373EA200003003180130A3000A168A11A7
:1016520040260A128A15831203132008C80048087C
:10166200EB00CA30AE0090303F2B831203136C089C
:101672000D3A031D4D2BDE30AE009030AF006B08EB
:10168200C800C9014808B0004908B100E4300A1294
:101692008A1501260A128A15E43083120313A20066
:1016A2000030A3000A168A11D6230A128A15831261
:1016B20003136C08C8004808E70083120313861D51
:1016C20008000D30C900FB30C800C80B662BC90BDF
:1016D200662B6B2B5E2BED08031D0800FF30C80044
:1016E2004808E700080083120313A700283084008B
:1016F20083160313570883138000840A5808800056
:10170200840A59088000840A5A088000840A5B0807
:10171200800006118312031306111830A2005F30F5
:10172200A100A10B922BA20B922B8312031306157D
:101732000630A100A10B9B2B000083160313061594
:101742000D3083120313A100A10BA52B83120313E7
:10175200061DAD2B003008001A30A100A10BAF2BE3
:101762000000831203130619B82B003008001A3048
:10177200A100A10BBA2B000083120313AE010530A6
:101782002E020318FA2BAD0108302D020318F22B9A
:10179200061DC92B0930A100A10BCD2BD02B831222
:1017A2000313061DEA2B0130A1002D03FF3A073E69
:1017B200013EDD2B0310A10DFF3E031DDB2B210893
:1017C200A2002E08283E84002208831380040619F2
:1017D200E82B0130A1002108AD0708302D02031CBF
:1017E200C92B0130A1002108AE0705302E02031CCF
:1017F200C42B28082907A100A201A20D2A0821074B
:10180200A3000030031801302207A4002B0823078D
:10181200A5000030031801302407A6002C08250675
:1018220026040319162C003008002808A1002008FD
:1018320084002108831380002A08A100270884005D
:101842002108800001300800831203133108B70019
:101852003208B8003308B9000310380D390DBA0048
:101862003A08BB00BB08031D3D2C0030B10000301C
:10187200B2000030B30008003408B7003508B800E1
:101882003608B9000310380D390DBA003A08C00005
:10189200C008031D532C0030B1000030B2000030EC
:1018A200B300080040087B3EB7003708BB07310889
:1018B200B7003208B8003308B90010300310B90C71
:1018C200B80CB70CFF3E031D5F2C3708BA003A086C
:1018D200C0003408B7003508B8003608B900103027
:1018E2000310B90CB80CB70CFF3E031D712C37085E
:1018F200BA003A08C0068030B7003708C005B217F0
:10190200B517FF30B405FF30B5050030B60500301D
:10191200BC000030BD000030BE000730B700370801
:10192200BF00311CA22C3408BC0735080311031870
:10193200350A031DBD07360803110318360A031DB5
:10194200BE0701300310B30CB20CB10CFF3E031DF5
:10195200A32C01300310B40DB50DB60DFF3E031DCF
:10196200AB2C0130BF02031D922C0930B70037089F
:10197200BF00311CCA2C3408BC07350803110318F8
:10198200350A031DBD07360803110318360A031D65
:10199200BE0701300310B30CB20CB10CFF3E031DA5
:1019A200CB2C01300310BE0CBD0CBC0CFF3E031D42
:1019B200D32C0130BF02031DBA2C3C08A0003D0805
:1019C200A1003E08A2003B08B7003708A300400868
:1019D200B8003808A4000A168A1196278312031346
:1019E2002008B1002108B2002208B30008008312C7
:1019F20003134108C7004208C8004308C900031086
:101A0200480D490DCA004A08CD004408C7004508E0
:101A1200C8004608C9000310480D490DCA004A080B
:101A2200CC004D080319212D4C084D020318282D16
:101A32004D03FF3A4C07C70019304702031C282DFB
:101A42004408C1004508C2004608C30008004C080B
:101A5200031908004D084C020318372D4C03FF3AB6
:101A62004D07C70019304702031808000630C700A7
:101A72004708CB00C31BCB17C61B4B17C217FF303F
:101A8200C105FF30C2050030C305C517FF30C405CC
:101A9200FF30C5050030C6054C084D020318772DEE
:101AA20001300310C40DC50DC60DFF3E031D522D9E
:101AB2000130CC024C084D060319722D0130CB02C5
:101AC2004B0807390319722D512D01300310C30C35
:101AD200C20CC10CFF3E031D672D0130C700470831
:101AE200CD074D084C060319A02D662D4D084C025A
:101AF2000318A02D01300310C10DC20DC30DFF3E0E
:101B0200031D7C2D0130CD024C084D0603199C2D7E
:101B12000130CB024B08073903199C2D7B2D013074
:101B22000310C60CC50CC40CFF3E031D912D0130E1
:101B3200C7004708CC074D084C06031D902DCB1F4C
:101B4200B22DFF30C106FF30C206FF30C30601309E
:101B5200C107003003180130C207003003180130FA
:101B6200C3074B1FC42DFF30C406FF30C506FF302C
:101B7200C6060130C407003003180130C507003023
:101B820003180130C607CB014108C40742080311FC
:101B92000318420A031DC507430803110318430A29
:101BA200031DC607C61FE72DFF30C406FF30C5065A
:101BB200FF30C6060130C407003003180130C507E4
:101BC200003003180130C607CB01CB0A4408A0003D
:101BD2004508A1004608A2004D08C7004708A30017
:101BE2004B08C8004808A4000A168A1196278312D7
:101BF20003132008C1002108C2002208C300080004
:101C020083120313C700BD01BE013030B80038088B
:101C1200BB00831203132F08B9002E08B800AE0AC6
:101C22000319AF0A3908FF00380884000A168A111E
:101C320000200A128A15BA003A08C600C60803191B
:101C4200F32F4608253A0319382E4608B8004708EC
:101C520084003808831380000130B8003808C707B1
:101C62000130BD070318BE0A0030BE070A2EC401A8
:101C7200C501C301412E43150130AE070318AF0A57
:101C82002F08FF002E0884000A168A1100200A126B
:101C92008A15303A03193C2E4E2E2F08FF002E08CB
:101CA20084000A168A1100200A128A150A168A115D
:101CB200E3220A128A15031CA42E83120313C40101
:101CC200C5010A3083120313A0000030A1004508A9
:101CD200A301A3074408A201A2070A168A11FB2343
:101CE2000A128A15831203132108C501C5072008A9
:101CF200C401C4072F08FF002E0884000A168A11A7
:101D020000200A128A15D03EB800FF3003180030B6
:101D1200B9003808C4070318C50A3908C5070130D5
:101D2200AE070318AF0A2F08FF002E0884000A1618
:101D32008A1100200A128A150A168A11E3220A124F
:101D42008A150318622E831203132F08B9002E0876
:101D5200B800AE0A0319AF0A3908FF003808840038
:101D62000A168A1100200A128A15C600003A0319BF
:101D7200F32F643A0319C12E0D3A0319C12E0A2E0C
:101D8200831203133B08840083130008BF00840AF4
:101D92000008C0000230B8003808BB07C01FDA2EA6
:101DA2000330B8003808C304BF09C009BF0A0319C9
:101DB200C00AC601C60A4608053A0319052F460895
:101DC200B8003807123E840090300318013EFF002D
:101DD2000A168A1100200A128A15B9000A168A11F7
:101DE20000200A128A15BA003A084002031DFB2E8F
:101DF20039083F02031C052F0130B8003808C60716
:101E02004608053A031DE02E450844040319132F22
:101E1200430803390319132FFF30C4070318C50AF7
:101E2200FF30C5074608B800B901B81BB903390825
:101E3200803ABA004508803A3A02031D222F44082C
:101E420038020318322F831203134608B800B9016F
:101E5200B81BB9033808C4023908031CC503C502FC
:101E6200362F83120313C401C501431D692F430892
:101E7200033903194D2F2D30B80047088400380864
:101E8200831380000130B8003808C7070130BD074E
:101E92000318BE0A0030BE074508440403199D2FEB
:101EA2003030B800470884003808831380000130BE
:101EB200B8003808C7070130BD070318BE0A003052
:101EC200BE07FF30C4070318C50AFF30C5074D2FF0
:101ED200450844040319882F2030B80047088400BD
:101EE2003808831380000130B8003808C707013072
:101EF200BD070318BE0A0030BE07FF30C40703182F
:101F0200C50AFF30C50745084404031D6D2F430869
:101F1200033903199D2F2D30B80047088400380873
:101F2200831380000130B8003808C7070130BD07AD
:101F32000318BE0A0030BE074608B8003808BC00C5
:101F4200FF30B8003808BC073C08FF3A03190A2ED4
:101F52000A30A8000030A9003C08B8003807123E39
:101F6200840090300318013EFF000A168A110020F7
:101F72000A128A15A0000A168A1100200A128A156E
:101F8200A1004008A301A3073F08A201A2070A1665
:101F92008A11B3250A128A15831203132108AB0191
:101FA200AB072008AA01AA070A168A110B250A12F2
:101FB2008A15831203132808303EB9003908C60077
:101FC2004608B800470884003808831380000130AF
:101FD200B8003808C7070130BD070318BE0A003031
:101FE200BE07A12F831203134708840083138001C5
:101FF2003E08AF01AF073D08AE01AE070800FF1B68
:102002000A2883137F1883170008840A0319FF0A1A
:1020120008007F087F398A000408840A0319FF0A2E
:102022008200013400340A34003464340034E83469
:10203200033410342734523455344E343A34203475
:1020420025343034323464343A3425343034323442
:1020520064342D3425343034323464343A34253403
:1020620030343234643400345334653474342034BC
:102072005334433448344534443420342D342034EA
:1020820053345434413452345434003454344D347F
:1020920050343A34203425346434433420344834C0
:1020A2004D34443454343A342034253464340034C6
:1020B200533454344134523454343A342034253471
:1020C2003034323464343A34253430343234643483
:1020D200003449346E3469347434693461346C3494
:1020E20069347A3469346E3467342E342E342E34A3
:1020F2000034533465347434203453344334483414
:102102004534443420342D34203445344E34443460
:102112000034543469346D3465343A34203425340F
:102122003034323464343A34253430343234643422
:10213200003445344E3444343A3420342534303477
:10214200323464343A342534303432346434003432
:1021520053345434413452345434203448344F3498
:102162005534523453340034533454344134523499
:10217200543420344D3449344E34533400344534CD
:102182004E344434203448344F345534523453346A
:1021920000344434453443343A3420342534303422
:1021A20032346434003449344E3443343A342034C3
:1021B20025343034323464340034533445345434A6
:1021C2003A34203425343034323464340034253403
:1021D20064342034703470346D342034203400344C
:1021E20045344E34443420344D3449344E3453341F
:1021F200003450345534523446342034483449344F
:102202000034503455345234463420344C344F3434
:1022120000344534523452344F3452342134003471
:0C22220043344F3432343A34203400345A
:10255C000434FF340A3409341E341E348316031336
:10256C00061183120313061508000B168B10831625
:10257C00031301178B170B17080064008001840AE2
:10258C000406031900340406C42A8030831603138E
:10259C009F000130831203139F000800FF30831645
:1025AC0003138500FF308600870138308312031334
:1025BC008700831603138801080083120313A100FC
:1025CC00A0013A3021020318F12A30302102031CF9
:1025DC00F12AA001A00A200C080033308316031343
:1025EC006E020318FF2A1A30831203136F02031CA6
:1025FC00022B83128711080087150800831203131E
:10260C00A10021088800071087100715F930A000D9
:10261C000000A00B0E2B122B0000831203130711CA
:10262C00080083120313A1002108880007148710E7
:10263C000715F930A0000000A00B212B252B000062
:10264C008312031307110800013083120313A00037
:10265C002008EE073C306E02031C3D2BEE010130CE
:10266C00A0002008E607183066020318E601823045
:10267C00A100DD30A000A00B412BA10B412B462B60
:10268C000800831603136F08620603190800013053
:10269C000A168A1104230A168A1141308312031375
:1026AC00A300EE30A200A20B592BA30B592B000058
:1026BC0083160313620883120313A20022088316E5
:1026CC000313EF0008008A3083120313AE0090301E
:1026DC00AF006608C800C9014808B0004908B1003D
:1026EC006E08CA00CB014A08B2004B08B3004C304C
:1026FC000A128A1501260A168A114C30831203130A
:10270C00A2000030A3000A168A11D623080000305C
:10271C000A168A1148240A168A11831203132108F7
:10272C00D201D2072008D101D1070A128A115220F6
:10273C0083120313510883160313DC008312031353
:10274C00520883160313DD008312031353088316F8
:10275C000313DE00080083120313AD01A91FBD2B68
:10276C00A809A909A80A0319A90AAD01AD0A2808E4
:10277C00A0002908A100A2018E30AB002B08A300F9
:10278C002D08AC002C08A4000A168A119627831277
:10279C0003132008A8002108A9002208AA00080099
:1027AC00831203132308FF00220884000A168A11DF
:1027BC0000200A168A11003803190800831203132B
:1027CC002308FF00220884000A168A1100200A162A
:1027DC008A110A168A1117230A168A1101308312DC
:1027EC000313A2070318A30AD62B83120313A40105
:1027FC00A501201C072C2208A4070318A50A2308EE
:10280C00A50701300310A20DA30DFF3E031D082CDC
:10281C0001300310A10CA00CFF3E031D0F2C21084E
:10282C002004031DFF2B2508A101A1072408A001EA
:10283C00A007080083120313A400302C2E2C403068
:10284C002A2C14302A2C5430A3002308A5003E2C2B
:10285C00A5013E2C2408003A0319242C013A031933
:10286C00252C033A0319272C013A0319292C2E2C59
:10287C002208A3002308A507250880380A168A1108
:10288C000423080083120313A400C330A2002208FF
:10289C009F052408A20002300310A20DFF3E031D69
:1028AC00522C0310220DA30023089F040630A20013
:1028BC00A20B5E2C0000831203131F151F19642C2E
:1028CC001E08A101A107831603131E08831203130C
:1028DC00A001A0070800003083120313A0001030E1
:1028EC00A1004130A200831603135C08831203136A
:1028FC00A300831603135D0883120313A40083162D
:10290C0003135E0883120313A5000A168A113727D6
:10291C000A168A1103189A2C831203138712831632
:10292C000313E301E30A08008312031387168316CB
:10293C000313E30108000310831203138618031416
:10294C00003003180130A200A3012208A4002308C0
:10295C00A500013024062504031DC62C8316031381
:10296C0060085F04031DC62C013083120313A20000
:10297C00220883160313E10601300A168A11042378
:10298C0083120313250883160313E001E007831257
:10299C000313240883160313DF01DF0708008B1CC5
:1029AC00FE2C8B100330F0000030F1008316031363
:1029BC006208013EF200003003180130F3000A16E1
:1029CC008A11F3250A168A117008F7007708831606
:1029DC000313E200E1010230F9000430F800BA30D0
:1029EC00F700F70BF72CF80BF72CF90BF72C000072
:1029FC007D0883120313FF007C088A007B08840087
:102A0C007A0E8300FE0E7E0E090083120313290832
:102A1C00280403193A2DAD01AD0AA91B212D013053
:102A2C000310A80DA90DFF3E031D162D0130AC009F
:102A3C002C08AD07132D29082B02031D272D280860
:102A4C002A02031C2F2D2808AA022908031CAB03F9
:102A5C00AB0201300310A90CA80CFF3E031D302D56
:102A6C000130AD02031D212D2B08A901A9072A084D
:102A7C00A801A8070800033083120313C90097307C
:102A8C00C800C80B472DC90B472D4C2D80300A169A
:102A9C008A1104230A168A11473083120313AE00DD
:102AAC009030AF006F08C800C9014808B000490851
:102ABC00B100831603136E0883120313CA00CB01F3
:102ACC004A08B2004B08B3004C300A128A15012692
:102ADC000A168A114C3083120313A2000030A30093
:102AEC000A168A11D6230800EE3083120313DB007A
:102AFC005B08A0006F300A128A1574230A168A111B
:102B0C00003A03198F2D0A168A1141250A168A11CB
:102B1C00A32D83120313A20100300A168A1120245C
:102B2C000A168A110A3083120313A2009130A300F3
:102B3C000A168A11D6230A168A110330831203133C
:102B4C00DD008A30DC005630DB00DB0BAB2DDC0B00
:102B5C00AB2DDD0BAB2DB22D080083120313A50199
:102B6C00A601210820040319EC2DA701A70AA11B1B
:102B7C00CB2D01300310A00DA10DFF3E031DC02D68
:102B8C000130A4002408A707BD2D01300310A50DAA
:102B9C00A60DFF3E031DCC2D21082302031DD82DAD
:102BAC0020082202031CE12D2008A2022108031C8C
:102BBC00A303A302251401300310A10CA00CFF3EAB
:102BCC00031DE22D0130A702031DCB2D2608A10108
:102BDC00A1072508A001A0070800F601F31FFD2D91
:102BEC00F209F309F20A0319F30AF601F60AF11FC6
:102BFC00042EF009F109F00A0319F10A71087004A6
:102C0C000319312EF501F50AF11B182E01300310B2
:102C1C00F00DF10DFF3E031D0D2E0130F400740874
:102C2C00F5070A2E71087302031D1E2E700872021E
:102C3C00031C262E7008F2027108031CF303F30226
:102C4C0001300310F10CF00CFF3E031D272E013058
:102C5C00F502031D182E76080319392EF209F30913
:102C6C00F20A0319F30A7308F101F1077208F00173
:102C7C00F007080083120313A601A31F4C2EA20910
:102C8C00A309A20A0319A30AA601A60AA11F532E7F
:102C9C00A009A109A00A0319A10A210820040319FB
:102CAC00802EA501A50AA11B672E01300310A00DD3
:102CBC00A10DFF3E031D5C2E0130A4002408A507C6
:102CCC00592E21082302031D6D2E20082202031CFD
:102CDC00752E2008A2022108031CA303A3020130B5
:102CEC000310A10CA00CFF3E031D762E0130A50293
:102CFC00031D672E26080319882EA209A309A20A10
:102D0C000319A30A2308A101A1072208A001A00707
:102D1C0008001A3083120313A300F830A200A20B90
:102D2C00952EA30B952E000030300A168A11042321
:102D3C000A168A11073083120313A3007D30A200F8
:102D4C00A20BA62EA30BA62E30300A168A11042332
:102D5C000A168A11423083120313A200A20BB42E5E
:102D6C00000030300A168A1104230A168A113830F2
:102D7C000A168A1104230A168A110C300A168A11B3
:102D8C0004230A168A1101300A168A1104230A1622
:102D9C008A11033083120313A3009730A200A20BF5
:102DAC00D52EA30BD52EDA2E06300A168A11042343
:102DBC0008008312031366086806031DEB2E6E08C9
:102DCC006A06031DEB2E0716080068086902031833
:102DDC000B2F66086902031CFB2E66086906031D8F
:102DEC00092F6B086E02031C092F68086602031C6E
:102DFC00072F66086806031D092F6A086E02031860
:102E0C00092F071208000716080069086802031842
:102E1C002B2F66086902031C272F66086906031D01
:102E2C001B2F6B086E020318272F68086602031C01
:102E3C00272F66086806031D292F6A086E020318DF
:102E4C00292F07120800071608006B086E02031CD6
:102E5C00352F6A086E020318352F07120800071663
:102E6C00080083120313A21F602F0030A60000304D
:102E7C00A7008030A8002009A9002109AA00220976
:102E8C00AB00A90A0319AA0A0319AB0A2908A60759
:102E9C002A0803182A0F532F542FA7072B0803189F
:102EAC002B0F592F5A2FA8072608A0002708A1007E
:102EBC002808A200A51F872F0030A6000030A7000D
:102ECC008030A8002309A9002409AA002509AB0019
:102EDC00A90A0319AA0A0319AB0A2908A6072A0882
:102EEC0003182A0F7A2F7B2FA7072B0803182B0FF9
:102EFC00802F812FA8072608A3002708A4002808E4
:102F0C00A5008030A2068030A50625082202031DEC
:102F1C00080024082102031D0800230820020800D1
:102F2C008312031323080319A02F22082104200461
:102F3C00031DB32F0030A0000030A1000030A20010
:102F4C0008000130A5002508A30701300310A20CCE
:102F5C00A10CA00CFF3E031DAC2FFE302205031963
:102F6C00CE2FA72F0130A5002508A3070130A007FD
:102F7C00003003180130A107003003180130A207FC
:102F8C0001300310A20CA10CA00CFF3E031DC72F97
:102F9C00FF3022050319DD2FB82F0130A3020130B9
:102FAC000310A00DA10DA20DFF3E031DD62FA11FD6
:102FBC00D32F2318E72FFF30A0057F30A105FF305A
:102FCC00A2050310A30C2308A500A601A70110302D
:102FDC000310A50DA60DA70DFF3E031DEE2F250812
:102FEC00A0042608A1042708A20424080319080039
:042FFC00A217080010
:02400E007AFF37
:00000001FF
