:060000000A128A11122809
:10000800FE00030EF2000408F3000A08F40083124D
:1000180003137F08F5000A128A1179280A128A1137
:100028001528F701A30183010A128A114F28F0004D
:10003800312801300800023008000330080004307D
:1000480008000530080006300800073008000830AE
:10005800080009300800003008007008003A031949
:100068001D28013A03191F28033A03192128063AC3
:1000780003192328013A03192528033A03192728C5
:100088000E3A03192928013A03192B28033A0319B0
:100098002D282F28080001308316031386008701B6
:1000A8000F3088000B168B10443081008B160B1113
:1000B8008B176A280A308312031323020318A3013B
:1000C800230887000130A2002208A30762308312A8
:1000D8000313A0000030A1000A128A119E200A1200
:1000E8008A11771C5E2877106A2808080F39F100F2
:1000F8007108F6008B138B1C8F288B1077147608E9
:100108000A128A111B200A128A11F100710883123F
:100118000313A30092280B1D92280B118B17750847
:10012800FF0074088A0073088400720E8300FE0EB4
:100138007E0E0900831203132108803AFF008030E5
:100148007F02031DA92801302002031C0800E730A4
:100158008312031381000B110B1DB028FF3083128B
:0E0168000313A0070318A10AFF30A1079E2869
:02400E0071FF40
:00000001FF
