:060000000A128A11122809
:10000800FE00030EF2000408F3000A08F40083124D
:1000180003137F08F5000A128A117A280A128A1136
:100028001528F601F70183010A128A114F28F000FA
:10003800312801300800023008000330080004307D
:1000480008000530080006300800073008000830AE
:10005800080009300800003008007008003A031949
:100068001D28013A03191F28033A03192128063AC3
:1000780003192328013A03192528033A03192728C5
:100088000E3A03192928013A03192B28033A0319B0
:100098002D282F280800F701013083160313860046
:1000A80087010F3088000B168B10043081008B16E7
:1000B8000B118B176B28013083120313A20022083F
:1000C800F7070A3077020318F701770887007A30B4
:1000D80083120313A0000030A1000A128A119A208B
:1000E8000A128A11761C5F2876106B288B1C8C28C4
:1000F8008B10761408080A128A111B200A128A111A
:10010800F1007108F70077088312031387008F281E
:100118000B1D8F280B117508FF0074088A007308DF
:100128008400720E8300FE0E7E0E090083120313F4
:100138002108803AFF0080307F02031DA528013086
:100148002002031C0800E7308312031381000B11FF
:100158000B1DAC28FF3083120313A0070318A10A54
:06016800FF30A1079A28F8
:02400E0071FF40
:00000001FF
