:060000000A128A11FC2F18
:100F6E00831603138601F001F1017108803AFF0028
:100F7E00A7307F02031DC52F103070020318D82F23
:100F8E000130F0070318F10A0030F1077108803ABA
:100F9E00FF00A7307F02031DD62F10307002031CF6
:100FAE00C72F0130831203138600F001F10171087F
:100FBE00803AFF00A7307F02031DE72F103070022A
:100FCE000318FA2F0130F0070318F10A0030F10769
:100FDE007108803AFF00A7307F02031DF82F1030F2
:100FEE007002031CE92F8312B82F83010A128A1193
:020FFE00B72F0B
:02400E0071FF40
:00000001FF
