:060000000A128A11122809
:10000800FE00030EF5000408F6000A08F700831244
:1000180003137F08F8000A128A11CF2B0A128A11DB
:100028001528C601C701C801C901CA01CB01CC0105
:10003800CD01CE01CF01D001D101D201D301D4012C
:100048000A128A11DC24F90083010A128A11D22AC1
:1000580083120313BF002F30B3003308B6000130FA
:1000680083120313AE07FF302E0784000A128A1189
:10007800A8230A128A11B3003308C000C008031964
:10008800DC294008253A031955284008B3003F08E1
:1000980084003308831380000130B3003308BF079E
:1000A8003328BD01BE01BC015E283C150130B300F8
:1000B8003308AE072E0884000A128A11A8230A12F0
:1000C8008A11303A0319592869282E0884000A121F
:1000D8008A11A8230A128A110A128A11BD240A1247
:1000E8008A11031CB92883120313BD01BE010A300B
:1000F80083120313A0000030A1003E08A301A30748
:100108003D08A201A2070A128A1120240A128A11A4
:10011800831203132108BE01BE072008BD01BD07D5
:100128002E0884000A128A11A8230A128A11D03EC6
:10013800B300FF3003180030B4003308BD070318BC
:10014800BE0A3408BE070130B3003308AE072E08D4
:1001580084000A128A11A8230A128A110A128A1123
:10016800BD240A128A1103187B2801308312031355
:10017800AE07FF302E0784000A128A11A8230A123C
:100188008A11C000003A0319DC29643A0319D028FF
:100198000D3A0319D0283328831203133608840034
:1001A80083130008B800840A0008B9000230B300BD
:1001B8003308B607B91FE9280330B3003308BC0475
:1001C800B809B909B80A0319B90AC001C00A400830
:1001D800053A031910294008B3003307013E84008B
:1001E8000A128A11A8230A128A11B4000A128A1163
:1001F800A8230A128A11B50035083902031D0629F9
:1002080034083802031C10290130B3003308C00732
:100218004008053A031DEF283E083D0403191E292E
:100228003C08033903191E29FF30BD070318BE0A0D
:10023800FF30BE074008B300B401B31BB403340851
:10024800803AB5003E08803A3502031D2D293D0845
:10025800330203183D29831203134008B300B40185
:10026800B31BB4033308BD023408031CBE03BE022B
:10027800412983120313BD01BE013C1D68293C08B6
:100288000339031952292D30B3003F08840033087D
:10029800831380000130B3003308BF073E083D04D4
:1002A800031990293030B3003F08840033088313C2
:1002B80080000130B3003308BF07FF30BD070318C3
:1002C800BE0AFF30BE0752293E083D0403198129A2
:1002D8002030B3003F0884003308831380000130C6
:1002E800B3003308BF07FF30BD070318BE0AFF304D
:1002F800BE073E083D04031D6C293C080339031959
:1003080090292D30B3003F08840033088313800000
:100318000130B3003308BF074008B3003308B70003
:10032800FF30B3003308B7073708FF3A03193328FB
:100338000A30A8000030A9003708B3003307013E8F
:1003480084000A128A11A8230A128A11A0000A122C
:100358008A11A8230A128A11A1003908A301A30748
:100368003808A201A2070A128A1128230A128A1140
:10037800831203132108AB01AB072008AA01AA07BF
:100388000A128A1168230A128A1183120313280891
:10039800303EB4003408C0004008B3003F08840071
:1003A8003308831380000130B3003308BF07942952
:1003B800831203133F0884008313800108004A2A2C
:1003C80086300A128A1193240A128A110B3083127A
:1003D8000313C1004108AE004708B001B007460842
:1003E800AF01AF074908B201B2074808B101B10728
:1003F8004B300A128A112C200A128A114B308312B0
:100408000313A3000030A4000A128A11F9230A1268
:100418008A11413083120313C200EE30C100C10BB0
:10042800132AC20B132A0000013083120313C807D2
:100438000318C90A0030C907831203134908803A10
:10044800FF0080307F02031D2B2A3C304802031C2A
:10045800E4298312031346080A128A1169240A122E
:100468008A11413083120313C200EE30C100C10B60
:100478003B2AC20B3B2A000083120313C801C9019F
:100488000130C6070318C70A0030C70783120313D1
:100498004708803AFF0080307F02031D552A183034
:1004A8004602031C202A83120313C601C701080051
:1004B800F301F20183120313861CD02A0D30F100D8
:1004C800FB30F000F00B662AF10B662A6B2A8312C8
:1004D80003130608F00004300310F00CFF3E031D60
:1004E800702A70080F39F1007108F2009E2A37301F
:1004F8009A2A38309A2A39309A2A2F309A2A343050
:100508009A2A35309A2A36309A2A2A309A2A31304D
:100518009A2A32309A2A33309A2A2D309A2A4F3022
:100528009A2A30309A2A3D309A2A2B30F0007008E7
:10053800F300D02A7208003A03197B2A013A0319FA
:100548007D2A033A03197F2A013A0319812A073AB7
:100558000319832A013A0319852A033A0319872ABA
:10056800013A0319892A0F3A03198B2A013A031908
:100578008D2A033A03198F2A013A0319912A073A57
:100588000319932A013A0319952A033A0319972A5A
:10059800013A0319992AD02A73080800831603130D
:1005A8008801C0308700F730860005144430810088
:1005B8000B168B108B170A128A11CD240A128A1176
:1005C8000A128A1145240A128A110230831203136F
:1005D800C5000430C400BA30C300C30BF12AC40BF1
:1005E800F12AC50BF12A000080300A128A119324DF
:1005F8000A128A11153083120313A3008030A40055
:100608000A128A11F9230A128A110A128A11E3219D
:100618000A128A1186300A128A1193240A128A1140
:100628001C3083120313A3008030A4000A128A111D
:10063800F9230A128A11831203134A08C300C4015A
:100648004308A3004408032B83120313A501A60142
:10065800210820040319612BA701A70AA11B402B1D
:1006680001300310A00DA10DFF3E031D352B0130F5
:10067800A4002408A707322B01300310A50DA60DEE
:10068800FF3E031D412B21082302031D4D2B20088B
:100698002202031C562B2008A2022108031CA303D4
:1006A800A302251401300310A10CA00CFF3E031D6A
:1006B800572B0130A702031D402B2608A101A107D3
:1006C8002508A001A007080083120313290828049D
:1006D8000319972BAD01AD0AA91B7E2B013003101E
:1006E800A80DA90DFF3E031D732B0130AC002C088B
:1006F800AD07702B29082B02031D842B28082A021A
:10070800031C8C2B2808AA022908031CAB03AB0284
:1007180001300310A90CA80CFF3E031D8D2B0130DE
:10072800AD02031D7E2B2B08A901A9072A08A801E1
:10073800A8070800FF1BA82B83137F18831700083E
:10074800840A0319FF0A080003308A000408840A8F
:1007580082070034013400340A340034643400342D
:10076800E8340334103427342534303432346434D4
:100778003A3425343034323464340034543449340F
:100788004D3445343A34203400344B3445345934EC
:100798003A34203400348B138B1CED2B0A128A1147
:1007A8005C220A128A11F400740883120313CA0027
:1007B8004A0879060319EC2B4A080A128A11A82458
:1007C8000A128A11831203134A08F4007408F90004
:1007D8008B108B177808FF0077088A00760884004A
:1007E800750E8300FE0E7E0E090083120313240883
:1007F800FF00230884000A128A119E230A128A1114
:10080800003803190800831203132408FF00230883
:1008180084000A128A119E230A128A110A128A1166
:100828007E240A128A11013083120313A3070318C6
:10083800A40A0030A407F92B83120313A401A5010D
:10084800201C2C2C2208A4070318A50A2308A50796
:1008580001300310A20DA30DFF3E031D2D2C013006
:100868000310A10CA00CFF3E031D342C210820040A
:10087800031D242C2508A101A1072408A001A00715
:10088800080038300A128A1193240A128A1110308B
:1008980083120313A300A30B4F2C00000C300A1281
:1008A8008A1193240A128A1101300A128A11932498
:1008B8000A128A1106300A128A1193240A128A111E
:1008C8000F300A128A119324080083120313A3001D
:1008D8000C1E6C2C230899000230A2004530A100A0
:1008E800A930A000A00B762CA10B762CA20B762C9D
:1008F8007D2C080083120313A20022088800071425
:10090800871007154130A100EE30A000A00B8A2CFB
:10091800A10B8A2C0000831203130711080083120D
:100928000313A2002208880007108710071541301A
:10093800A100EE30A000A00B9F2CA10B9F2C000063
:100948008312031307110800F300831203130C1E0C
:10095800A92C730899000230F2004530F100A93043
:10096800F000F00BB52CF10BB52CF20BB52CBC2C10
:10097800080083120313A100A0013A3021020318D2
:10098800CB2C30302102031CCB2CA001A00A200C58
:1009980008002430831603139800831203130C12E3
:1009A800903098008C1219308316031399000800B0
:0209B800FF340A
:02400E0071FF40
:00000001FF
