:060000000A128A11FC2F18
:100F4E0083160313811281110108F83905388100C7
:100F5E0008001F30F1000030F200831203138101EC
:100F6E00F301F4017408803AF0007208803A7002BE
:100F7E00031DC32F71087302031808000B1DB92F30
:100F8E000B110130F3070318F40A0030F407B92FE0
:100F9E008316031386010A128A11A7270A128A11D1
:100FAE00F901F90AF701F8017808803AFF0080305C
:100FBE007F02031DE42F083077020318D72F79081C
:100FCE008312031386007908F5007507F60076087C
:100FDE00F9000A128A11B0270A128A110130F70796
:100FEE000318F80A0030F807DB2F83010A128A1162
:020FFE00CF2FF3
:02400E007AFF37
:00000001FF
