:100000000A128A11FC2F00308A000408840A820731
:100010000034483465346C346C346F342C34203400
:0E00200057346F3472346C346434213400343D
:100E78000A128A114A2783160313111408000A124A
:100E88008A114A27831603131115080083160313C2
:100E980011081F39031914194A2F0800F0000A1203
:100EA8008A114A2770088312031393000800283018
:100EB80083120313940083160313910109309300DE
:100EC8009401080018308316031387000A128A1148
:100ED80076270A128A1101300A128A1192270A12F9
:100EE8008A11752F0A128A115B270A128A11383063
:100EF8000A128A11AE270A128A110C300A128A11B4
:100F0800AE270A128A1106300A128A11AE270A126F
:100F18008A1101300A128A11AE270800F4007408F9
:100F280084000A128A1103200A128A110038031950
:100F38000800740884000A128A1103200A128A1110
:100F48000A128A11D5270A128A110130F300730890
:100F5800F407932FF2000A128A113C270A128A1109
:100F680040300A128A1152270A128A117208F0397F
:100F78000A128A1152270A128A117208F1000330E4
:100F88000310F10DFF3E031DC42F0310710DF0393E
:100F98000A128A1152270A128A110A128A11432741
:100FA8000800F2000A128A113C270A128A114130FD
:100FB8000A128A1152270A128A117208F0390A1283
:100FC8008A1152270A128A117208F100033003109D
:100FD800F10DFF3E031DEB2F0310710DF0390A12BE
:100FE8008A1152270A128A110A128A114327080005
:080FF80083010A128A11662F21
:02400E0071FF40
:00000001FF
