:060000000A128A11FC2F18
:100F6E00831203138C1EB72F1A0808002430831621
:100F7E0003139800831203130C12903098008C12F6
:100F8E0019308316031399000800F101F20183163C
:100F9E00031386018312031386018316031388013C
:100FAE008312031388018316031387170713443024
:100FBE0081008312031381018B160B118B170A12FA
:100FCE008A11BD270A128A110A128A11B7270A122C
:100FDE008A11F0007008F1007108F0007008F2003C
:100FEE007208831203138800EB2F83010A128A11F1
:020FFE00CC2FF6
:02400E0071FF40
:00000001FF
