:060000000A128A11F82F1C
:1000080083120313C6006E304602031CE428033033
:10001800BA003A08A4000A30F7000030F800460891
:10002800BB00BC013B08F2003C08F3006430F00060
:100038000030F1000A168A11F8200A128A11710894
:10004800FA01FA077008F901F9070A168A15EC236C
:100058000A128A117708093E0A168A15AA210A1275
:100068008A11293E84000A168A110A200A128A1166
:1000780083120313A7000A168A110A200A128A118A
:10008800A8000A168A110A200A128A11A900033048
:10009800BD003D08A4006430F7000030F8004608B1
:1000A800BE00BF013E08F9003F08FA000A168A158B
:1000B800EC230A128A117708123E0A168A15AA2119
:1000C8000A128A11293E84000A168A110A200A1285
:1000D8008A1183120313AA000A168A110A200A1227
:1000E8008A11AB000A168A110A200A128A11AC007A
:1000F8000A168A1115220A128A1183120313270875
:10010800C3002808C4002908C5000330BA003A080B
:10011800A4004608BB00BC013B08F2003C08F30001
:100128000A30F0000030F1000A168A11F8200A128D
:100138008A1170080A168A15AA210A128A11293EFC
:1001480084000A168A110A200A128A1183120313DC
:10015800A7000A168A110A200A128A11A8000A168C
:100168008A110A200A128A11A9004308AA00440821
:10017800AB004508AC000A168A1115220A128A112A
:10018800831203132708C0002808C1002908C200E9
:100198000030A7000030A8003F30A9004008AA009E
:1001A8004108AB004208AC000A168A1115228312D6
:1001B80003132708B7002808B8002908B900080061
:1001C8000B304602031C6E290330BA003A08A4001B
:1001D8004608BB00BC013B08F2003C08F3000A30AB
:1001E800F0000030F1000A168A11F8200A128A116C
:1001F80070080A168A15AA210A128A11293E840053
:100208000A168A110A200A128A1183120313A700F8
:100218000A168A110A200A128A11A8000A168A11D7
:100228000A200A128A11A9000330BD003D08A40063
:100238000A30F7000030F8004608BE00BF013E084B
:10024800F9003F08FA000A168A15EC230A128A11E7
:100258007708093E0A168A15AA210A128A11293E28
:1002680084000A168A110A200A128A1183120313BB
:10027800AA000A168A110A200A128A11AB000A1665
:100288008A110A200A128A11AC000A168A1115224C
:100298000A128A11831203132708C3002808C4000E
:1002A8002908C5000030A7000030A8003F30A90089
:1002B8004308AA004408AB004508AC000A168A1196
:1002C8001522831203132708B7002808B800290845
:1002D800B90008000030A7000030A8003F30A9008E
:1002E8000330BA003A08A40046080A168A15AA215B
:1002F8000A128A11293E84000A168A110A200A1253
:100308008A1183120313AA000A168A110A200A12F4
:100318008A11AB000A168A110A200A128A11AC0047
:100328000A168A111522831203132708B700280812
:10033800B8002908B900080083160313BB005B3016
:1003480083120313DE005E0883160313A70001302F
:100358008312DA07FF305A0784000A168A110A2026
:100368000A128A11DE005E0883160313C100C10851
:100378000319F32F4108253A0319C62941088312A6
:100388000313E22FB001B101831203135A0884004A
:100398000A168A110A200A128A112E3A031D262AE1
:1003A800831603133117013083120313DE005E082E
:1003B800DA0783160313BC01BD0183125A088400AF
:1003C8000A168A110A200A128A110A168A157A212F
:1003D8000A128A11031C2E2A831603133D08F10101
:1003E800F1073C08F001F0070A30F2000030F30092
:1003F8000A168A153F220A128A11831203135A0811
:1004080084000A168A110A200A128A117007DE006F
:100418000030031801307107DF005E08D03E8316F4
:100428000313BC00831203135F080318013EFF3E49
:1004380083160313BD00013083120313DE005E0828
:10044800DA07E12983160313BC01BD0131162E2AF0
:100458003115442A013083120313DA07FF305A0793
:1004680084000A168A110A200A128A1183160313B5
:10047800C100003A0319F32F663A03192C2AAB2955
:100488000030300583120313DE0007308316031390
:10049800310583120313DF005F085E040319752F0B
:1004A80083160313311E5C2A0630BC000030BD00E1
:1004B8002708840083130008BE00840A0008BF00D0
:1004C800840A0008C000033083120313DE005E08AC
:1004D80083160313A7073E08F0003F08F100400801
:1004E800F2000030F3000030F4000030F5000A1686
:1004F8008A158F230A128A1103189B2A831603135D
:100508003E08F0003F08F1004008F2000A168A157C
:1005180072210A128A11700883160313BE0071082B
:10052800BF007208C0000330B0040030B104831665
:100538000313B901BA0140083F043E040319972B7D
:10054800BE3084008313000883120313DE00840A7C
:100558000008DF00840A0008E000840A0008E100BF
:100568000F300310E10CE00CDF0CDE0CFF3E031D26
:10057800B52AFF305E05E20000305F05E30062083F
:10058800823E83160313B90083120313630803180A
:10059800013EFF3E83160313BA00FF30B907031864
:1005A800BA0AFF30BA070330F0000030F1003A0809
:1005B800F301F3073908F201F2070A168A153F22F8
:1005C8000A128A11710883160313BA01BA07700850
:1005D800B901B9070A30F7000030F8003A08FA0103
:1005E800FA073908F901F9070A168A15EC230A12DD
:1005F8008A11780883160313BA01BA077708B90174
:10060800B907BA1F0D2BFF30B9070318BA0AFF3014
:10061800BA073903FF3A0A128A15C8200A128A1142
:1006280083120313370883160313B20083120313CC
:10063800380883160313B30083120313390883168B
:100648000313B4003E0883120313A7008316031391
:100658003F0883120313A80083160313400883126C
:100668000313A90083160313320883120313AA0085
:1006780083160313330883120313AB008316031383
:10068800340883120313AC000A168A1115220A12C1
:100698008A1183120313270883160313B2008312E7
:1006A8000313280883160313B300831203132908BE
:1006B80083160313B4003208F0003308F10034083D
:1006C800F2000030F3008030F4003F30F5000A16E5
:1006D8008A158F230A128A1103187A2BFF30831682
:1006E8000313B9070318BA0AFF30962B83160313AE
:1006F8003208F0003308F1003408F2000030F3004B
:100708002030F4004130F5000A168A158F230A12AA
:100718008A11031C972B013083160313B90703189A
:10072800BA0A0030BA07831603133D08803AFF005F
:1007380080307F02031DA22B0D303C020318DD2BF5
:10074800831603133C080A128A1104200A128A111C
:10075800831203133708C7003808C8003908C900CE
:10076800831603133E0883120313CA008316031368
:100778003F0883120313CB00831603134008831228
:100788000313CC000A168A11E8220A128A1183126E
:100798000313470883160313BE0083120313480884
:1007A80083160313BF008312031349088316031328
:1007B800C000831603133A08803AFF0080307F0296
:1007C800031DE82B0A30390203181B2C8316031368
:1007D80040083F043E0403197C2C3E08831203138F
:1007E800C000831603133F0883120313C100831646
:1007F8000313400883120313C2000A168A158825BA
:100808000A128A1183120313430842044104400464
:10081800031D7C2C831603133A08803AFF008030AE
:100828007F02031D192C02303902031C7C2C83160D
:1008380003133208F0003308F1003408F200703076
:10084800F3008930F4004030F5000A168A158F232A
:100858000A128A110318322CF730332CF830831619
:100868000313B9070318BA0AFF30BA0739080A127E
:100878008A15C8200A128A118312031337088316AF
:100888000313B20083120313380883160313B3004B
:1008980083120313390883160313B4003E08F000CB
:1008A8003F08F1004008F2003208F3003308F40072
:1008B8003408F5000A128A1505200A128A117308ED
:1008C80083160313A6007208A5007108A400700817
:1008D800A3002608B8002508B7002408B600230896
:1008E800B5000030BE000030BF000030C000EB2C67
:1008F800831603133E0883120313C00083160313E1
:100908003F0883120313C1008316031340088312A0
:100918000313C2000A168A1588250A128A1183123F
:100928000313430883160313B80083120313420802
:1009380083160313B70083120313410883160313A6
:10094800B60083120313400883160313B500380852
:10095800FB003708FA003608F9003508F8000A16CF
:100968008A1562220A128A11780883120313D400A6
:100978007908D5007A08D600831603133E08831237
:100988000313D700831603133F0883120313D800F9
:1009980083160313400883120313D9000A168A1515
:1009A800BD210A128A1183120313540883160313F4
:1009B800BE0083120313550883160313BF00831266
:1009C8000313560883160313C000B901BA01C10105
:1009D800C10A41080A3A0319412D41088312031339
:1009E800DE0001300310DE0DFF3E031DF62C031060
:1009F8005E0D013E84000A168A110A200A128A1125
:100A0800DF000A168A110A200A128A11E0000A1663
:100A18008A110A200A128A11E1000A168A110A208C
:100A28000A128A11E2006208831603133802031DB2
:100A3800332D831203136108831603133702031D32
:100A4800332D831203136008831603133602031D24
:100A5800332D831203135F08831603133502031C17
:100A6800412D013083120313DE005E088316031341
:100A7800C10741080A3A031DF12C033030058312DF
:100A88000313DE00003083160313310583120313AA
:100A9800DF005F085E040319622D2D30DE00831627
:100AA80003133B088400831203135E088317800036
:100AB8000130DE005E0883160313BB07FF30831284
:100AC800DE005E0883160313C1074108FF3A0319C5
:100AD800E92D410883120313DE0001300310DE0DF7
:100AE800FF3E031D722D03105E0D013E84000A16A1
:100AF8008A110A200A128A11F0000A168A110A209D
:100B08000A128A11F1000A168A110A200A128A1199
:100B1800F2000A168A110A200A128A11F3008316B3
:100B280003133808F7003708F6003608F5003508CB
:100B3800F4000A168A1549240A128A1173088316C2
:100B48000313AB007208AA007108A9007008A80076
:100B58000030F3000030F2000030F1000A30F000FD
:100B68002B08F7002A08F6002908F5002808F400E1
:100B78000A168A1543230A128A1173088316031367
:100B8800AB007208AA007108A9007008A80028081C
:100B9800303E83120313522D303083120313DE00CC
:100BA800831603133B088400831203135E0883171C
:100BB80080000130DE005E0883160313BB07FF3098
:100BC800B9070318BA0AFF30BA073A08803AFF0093
:100BD80080307F02031DF22D013039020318D02D19
:100BE800831603133D08803AFF0080307F02031DFF
:100BF800FF2D09303C02031C032E0830062E8316F5
:100C080003133C0883120313DE005E0883160313E4
:100C1800C100410883120313DE00DF01DE1BDF037E
:100C28005E0883160313BC02831203135F0883163E
:100C38000313031CBD03BD0241080319362E2E30D1
:100C480083120313DE00831603133B088400831208
:100C580003135E08831780000130DE005E088316E8
:100C68000313BB0741080A128A15C8200A128A1101
:100C780083120313370883160313A0008312031388
:100C8800380883160313A100831203133908831647
:100C98000313A200200883120313AA008316031368
:100CA800210883120313AB0083160313220883124F
:100CB8000313AC00831603133E0883120313A70023
:100CC800831603133F0883120313A8008316031324
:100CD800400883120313A9000A168A1115220A1262
:100CE8008A11831203132708C0002808C1002908A5
:100CF800C2000A168A1588250A128A11831203135C
:100D0800430883160313B80083120313420883169B
:100D18000313B70083120313410883160313B600A5
:100D280083120313400883160313B500FF308312A0
:100D38000313DE005E0883160313C1074108FF3A58
:100D48000319702F410883120313DE0001300310CA
:100D5800DE0DFF3E031DAB2E03105E0D013E840029
:100D68000A168A110A200A128A11F0000A168A1134
:100D78000A200A128A11F1000A168A110A200A1298
:100D88008A11F2000A168A110A200A128A11F3003F
:100D9800831603133808F7003708F6003608F500FD
:100DA8003508F4000A168A1549240A128A117308AC
:100DB80083160313AF007208AE007108AD00700807
:100DC800AC000030F3000030F2000030F1000A30CF
:100DD800F0002F08F7002E08F6002D08F5002C0863
:100DE800F4000A168A1543230A128A117308831617
:100DF8000313AF007208AE007108AD007008AC00B4
:100E08002C08303E83120313DE00831603133B08BD
:100E18008400831203135E08831780000130DE000C
:100E28005E0883160313BB07410883120313DE0011
:100E380001300310DE0DFF3E031D1D2F03105E0D54
:100E4800013E84000A168A110A200A128A11F0004B
:100E58000A168A110A200A128A11F1000A168A1142
:100E68000A200A128A11F2000A168A110A200A12A6
:100E78008A11F300831603133808F7003708F600C1
:100E88003608F5003508F4000A168A1543230A12B5
:100E98008A11730883160313B8007208B700710823
:100EA800B6007008992E303083120313DE008316C3
:100EB80003133B088400831203135E088317800022
:100EC8000130DE005E0883160313BB07FF30BC0742
:100ED8000318BD0AFF30BD073D083C040319AB29C0
:100EE800572F831603133D083C04031D872F38082A
:100EF800370436043504031D872F0130BC07031857
:100F0800BD0A0030BD07410883120313DE00DF016C
:100F1800DE1BDF035F08803AE000831603133D08F9
:100F2800803A831203136002031DA02F8316031354
:100F38003C08831203135E020318AD2F83160313B4
:100F48003C0883120313DE005E0883160313C100F6
:100F5800CF2F83160313410883120313DE00DF012A
:100F6800DE1BDF03831603133D08803A8312031345
:100F7800E0005F08803A6002031DC62F5E088316F2
:100F880003133C020318CF2F831603134108BC0038
:100F9800BD01BC1BBD030330831603133005831248
:100FA8000313DE0000308316031331058312031385
:100FB800DF005F085E040319AB292D30DE008316BD
:100FC80003133B088400831203135E088317800011
:100FD8000130DE005E0883160313BB07AB293B080C
:100FE800840083178001080083160313C201C3011C
:080FF80083010A128A15672B20
:10100A007008F6007108F7007208F8000310770DEF
:10101A00780DF900790883120313A500A508031DAA
:10102A001F280030F3000030F2000030F1000030D9
:10103A00F00008007308F6007408F7007508F80055
:10104A000310770D780DF9007908A400A408031D90
:10105A0037280030F3000030F2000030F100003091
:10106A00F0000800F117FF30F005FF30F1050030FD
:10107A00F205F417FF30F305FF30F4050030F505EB
:10108A000030A3000030A2000030A1000030A00010
:10109A007F30A50298302407F6007608A50218309A
:1010AA00F6007608A4000130F6000310A00DA10D89
:1010BA00A20DA30DF60B5A2875087202031D6B28A0
:1010CA0074087102031D6B2873087002031C7828C8
:1010DA007308F0027408031C740FF1027508031CEC
:1010EA00750AF202201401300310F00DF10DF20D11
:1010FA00FF3E031D79280130A402031D5828A51FAD
:10110A00A4282508803A973E031894280030F30053
:10111A000030F2000030F1000030F0000800013029
:10112A000310A30CA20CA10CA00CFF3E031D9528D2
:10113A000130F6007608A5070319BF28942818304D
:10114A002502031CBC280030F3000030F2000030F6
:10115A00F1000030F00008000130F6000310A00D85
:10116A00A10DA20DA30DF60BB3280130A502A50807
:10117A00031DB1282308F3002208F2002108F10018
:10118A002008F000080083120313BF00BF1F1B2AA8
:10119A00BF09BF0A3F08803A123E031C8E2903305A
:1011AA00BA003A08A4000A30F7000030F8003F08F5
:1011BA00F200F301F21BF3036430F0000030F10097
:1011CA000A168A11F8200A128A157108FA01FA0712
:1011DA007008F901F9070A168A15EC230A128A150A
:1011EA007708093E0A168A15AA210A128A15293E83
:1011FA0084000A168A110A200A128A158312031316
:10120A00A7000A168A110A200A128A15A8000A16C5
:10121A008A110A200A128A15A9000330BB003B086A
:10122A00A4006430F7000030F8003F08F900FA0122
:10123A00F91BFA030A168A15EC230A128A1577088B
:10124A00123E0A168A15AA210A128A15293E840014
:10125A000A168A110A200A128A1583120313AA008F
:10126A000A168A110A200A128A15AB000A168A116E
:10127A000A200A128A15AC000A168A1115220A12C5
:10128A008A15831203132708BC002808BD00290801
:10129A00BE000330BA003A08A4003F08F200F30186
:1012AA00F21BF3030A30F0000030F1000A168A112B
:1012BA00F8200A128A1570080A168A15AA210A1233
:1012CA008A15293E84000A168A110A200A128A15EA
:1012DA0083120313A7000A168A110A200A128A1512
:1012EA00A8000A168A110A200A128A15A9003C08BF
:1012FA00AA003D08AB003E08AC000A168A11152266
:10130A00831203132708B7002808B8002908B90070
:10131A0008003F08803A753E031CFC290330BA00D6
:10132A003A08A4003F08F200F301F21BF3030A3063
:10133A00F0000030F1000A168A11F8200A128A1504
:10134A0070080A168A15AA210A128A15293E8400EB
:10135A000A168A110A200A128A1583120313A70091
:10136A000A168A110A200A128A15A8000A168A1170
:10137A000A200A128A15A9000330BB003B08A40000
:10138A000A30F7000030F8003F08F900FA01F91BAB
:10139A00FA030A168A15EC230A128A157708093EF7
:1013AA000A168A15AA210A128A15293E84000A16E3
:1013BA008A110A200A128A1583120313AA000A162E
:1013CA008A110A200A128A15AB000A168A110A2003
:1013DA000A128A15AC000A168A11152283120313FF
:1013EA002708B7002808B8002908B9000800033000
:1013FA00BA003A08A4003F080A168A15AA210A1256
:10140A008A15293E84000A168A110A200A128A15A8
:10141A0083120313B7000A168A110A200A128A15C0
:10142A00B8000A168A110A20B90008003F08803A53
:10143A00123E031CDA2A0330BA003A08A4000A3022
:10144A00F7000030F8003F08F200F301F21BF30343
:10145A006430F0000030F1000A168A11F8200A12EE
:10146A008A157108FA01FA077008F901F9070A16CC
:10147A008A15EC230A128A157708093E0A168A1574
:10148A00AA210A128A15503E84000A168A110A20D5
:10149A000A128A1583120313A7000A168A110A2050
:1014AA000A128A15A8000A168A110A200A128A152F
:1014BA00A9000330BB003B08A4006430F7000030E9
:1014CA00F8003F08F900FA01F91BFA030A168A150F
:1014DA00EC230A128A157708123E0A168A15AA21DF
:1014EA000A128A15503E84000A168A110A200A1224
:1014FA008A1583120313AA000A168A110A200A12ED
:10150A008A15AB000A168A110A200A128A15AC003B
:10151A000A168A1115220A128A158312031327083A
:10152A00BC002808BD002908BE000330BA003A08EA
:10153A00A4003F08F200F301F21BF3030A30F000A3
:10154A000030F1000A168A11F8200A128A1570086A
:10155A000A168A15AA210A128A15503E84000A160A
:10156A008A110A200A128A1583120313A7000A167F
:10157A008A110A200A128A15A8000A168A110A2054
:10158A000A128A15A9003C08AA003D08AB003E08C9
:10159A00AC000A168A111522831203132708B70012
:1015AA002808B8002908B90008003F08803A753EA3
:1015BA00031C482B0330BA003A08A4003F08F20083
:1015CA00F301F21BF3030A30F0000030F1000A16AF
:1015DA008A11F8200A128A1570080A168A15AA2191
:1015EA000A128A15503E84000A168A110A200A1223
:1015FA008A1583120313A7000A168A110A200A12EF
:10160A008A15A8000A168A110A200A128A15A90040
:10161A000330BB003B08A4000A30F7000030F80092
:10162A003F08F900FA01F91BFA030A168A15EC2396
:10163A000A128A157708093E0A168A15AA210A1279
:10164A008A15503E84000A168A110A200A128A153F
:10165A0083120313AA000A168A110A200A128A158B
:10166A00AB000A168A110A200A128A15AC000A1659
:10167A008A111522831203132708B7002808B80015
:10168A002908B90008000330BA003A08A4003F0844
:10169A000A168A15AA210A128A15503E84000A16C9
:1016AA008A110A200A128A1583120313B7000A162E
:1016BA008A110A200A128A15B8000A168A110A2003
:1016CA00B90008001F308316031386008312031320
:1016DA0086013830831603138700FF30850088019E
:1016EA0080309F000130831203139F004430831619
:1016FA00031381000B168B1001170B178B170A1691
:10170A008A15FA210A128A1580300A168A15882142
:10171A000A128A150A168A158D220A128A15710862
:10172A0083160317C201C2077008C101C107C0307E
:10173A0083120313B7007F30B8004430B900003079
:10174A00A700A030A8004030A9008316031742085A
:10175A00F901F9074108F801F8070A168A15D9218B
:10176A000A128A15780883120313AA007908AB00B3
:10177A007A08AC000A168A1115220A128A158312EF
:10178A0003132708BA002808BB002908BC000A1658
:10179A008A1548270A128A158312031337088316F3
:1017AA000317C30083120313380883160317C400F0
:1017BA0083120313390883160317C50000308312F6
:1017CA000313B7000030B8004030B900831603177E
:1017DA00430883120313BA008316031744088312BB
:1017EA000313BB0083160317450883120313BC00B7
:1017FA000A168A1548270A128A158312031337080C
:10180A0083160317A30083120313380883160317DA
:10181A00A40083120313390883160317A50038306E
:10182A0083160313AC003130AD00C030AE0083160E
:10183A000317230883160313A90083160317240822
:10184A0083160313AA0083160317250883160313A6
:10185A00AB000A168A1123250A128A158316031366
:10186A00290883160317C600831603132A0883164A
:10187A000317C700831603132B0883160317C80020
:10188A00343083120313A700E930A8004230A900BC
:10189A0083160317460883120313AA008316031735
:1018AA00470883120313AB008316031748088312F1
:1018BA000313AC000A168A1115220A128A1583121A
:1018CA0003132708831603179000831203132808AB
:1018DA00831603179100831203132908831603172B
:1018EA009200003083120313B700A030B8004030D2
:1018FA00B90083160317430883120313BA00831629
:10190A000317440883120313BB0083160317450801
:10191A0083120313BC000A168A1548270A128A156D
:10192A0083120313370883160317CC008312031399
:10193A00380883160317CD00831203133908831658
:10194A000317CE00003083160313AC00C030AD007D
:10195A004030AE00831603174C0883160313A90000
:10196A00831603174D0883160313AA008316031759
:10197A004E0883160313AB000A168A1123250A128E
:10198A008A1583160313290883160317A6008316DC
:10199A0003132A0883160317A700831603132B08B9
:1019AA0083160317A800003083160313AC00A03077
:1019BA00AD004030AE00831603174C08831603139C
:1019CA00A900831603174D0883160313AA0083166A
:1019DA0003174E0883160313AB000A168A11232530
:1019EA000A128A1583160313290883160317C600D9
:1019FA00831603132A0883160317C70083160313D3
:101A0A002B0883160317C800003083160313AC0093
:101A1A008030AD004030AE00831603174C088316A1
:101A2A000313A900831603174D0883160313AA008C
:101A3A00831603174E0883160313AB000A168A117E
:101A4A0023250A128A1583160313290883160317F6
:101A5A00A900831603132A0883160317AA008316FC
:101A6A0003132B0883160317AB00003083160313E6
:101A7A00AC004030AD004030AE00831603174C086E
:101A8A0083160313A900831603174D08831603133D
:101A9A00AA00831603174E0883160313AB000A160F
:101AAA008A1123250A128A15831603132908831615
:101ABA000317AC00831603132A0883160317AD0015
:101ACA00831603132B0883160317AE000030831600
:101ADA000313AC000030AD004030AE00831603178C
:101AEA004C0883160313A900831603174D0883169F
:101AFA000313AA00831603174E0883160313AB00B9
:101B0A000A168A1123250A128A158316031329082D
:101B1A0083160317AF00831603132A0883160317C5
:101B2A00B000831603132B0883160317B1009C30E9
:101B3A0083120313A700B230A8003F30A90083160E
:101B4A0003172F0883120313AA00831603173008FA
:101B5A0083120313AB00831603173108831203138E
:101B6A00AC000A168A1115220A128A158312031367
:101B7A002708C7002808C8002908C900A930A700F3
:101B8A00DE30A8003C30A900831603174C088312E4
:101B9A000313AA00831603174D0883120313AB001D
:101BAA00831603174E0883120313AC000A168A1110
:101BBA0015220A128A15831203132708CA00280855
:101BCA00CB002908CC000A168A11E8220A128A15C3
:101BDA0083120313470883160317B20083120313F1
:101BEA00480883160317B3008312031349088316A0
:101BFA000317B400EE3083120313A700EB30A800DA
:101C0A003A30A900831603172C0883120313AA007B
:101C1A00831603172D0883120313AB0083160317C9
:101C2A002E0883120313AC000A168A1115220A120F
:101C3A008A15831203132708C7002808C800290831
:101C4A00C90083160317320883120313CA008316C6
:101C5A000317330883120313CB00831603173408C0
:101C6A0083120313CC000A168A11E8220A128A1573
:101C7A0083120313470883160317B500831203134D
:101C8A00480883160317B6008312031349088316FC
:101C9A000317B700743083120313A7005A30A80041
:101CAA00BB30A90083160317290883120313AA005D
:101CBA00831603172A0883120313AB00831603172C
:101CCA002B0883120313AC000A168A1115220A1272
:101CDA008A15831203132708C7002808C800290891
:101CEA00C90083160317350883120313CA00831623
:101CFA000317360883120313CB008316031737081A
:101D0A0083120313CC000A168A11E8220A128A15D2
:101D1A0083120313470883160317B80083120313A9
:101D2A00480883160317B900831203134908831658
:101D3A000317BA00103083120313A700FC30A8005F
:101D4A00BA30A90083160317460883120313AA00A0
:101D5A0083160317470883120313AB00831603176E
:101D6A00480883120313AC000A168A1115220A12B4
:101D7A008A15831203132708C7002808C8002908F0
:101D8A00C90083160317380883120313CA0083167F
:101D9A000317390883120313CB00831603173A0873
:101DAA0083120313CC000A168A11E8220A128A1532
:101DBA0083120313470883160317BB008312031306
:101DCA00480883160317BC008312031349088316B5
:101DDA000317BD00A83083120313A7009030A80090
:101DEA003F30A90083160317260883120313AA009B
:101DFA0083160317270883120313AB0083160317EE
:101E0A00280883120313AC000A168A1115220A1233
:101E1A008A15831203132708C7002808C80029084F
:101E2A00C900831603173B0883120313CA008316DB
:101E3A0003173C0883120313CB00831603173D08CC
:101E4A0083120313CC000A168A11E8220A128A1591
:101E5A0083120313470883160317BE008312031362
:101E6A00480883160317BF00831203134908831611
:101E7A000317C000803083120313C700B730C800AD
:101E8A003930C900831603173E0883120313CA00A8
:101E9A00831603173F0883120313CB008316031715
:101EAA00400883120313CC000A168A11E8220A1288
:101EBA008A1583120313470883160317C90083126E
:101ECA000313480883160317CA0083120313490829
:101EDA0083160317CB00CA3083120313A700CF302F
:101EEA00A8004330A9008316031749088312031375
:101EFA00AA00831603174A0883120313AB0083163A
:101F0A0003174B0883120313AC000A168A11152211
:101F1A000A128A1583120313270883160317C900A6
:101F2A0083120313280883160317CA0083120313A4
:101F3A00290883160317CB00D43083120313ED004C
:101F4A006D08DA0083160317490883120313DB00AE
:101F5A00831603174A0883120313DC008316031738
:101F6A004B0883120313DD0093300A128A11A02151
:101F7A000A128A159330F2000130F3000A168A1504
:101F8A001C220A128A150030F0001030F10041308C
:101F9A00F200831603174908F3004A08F4004B08B5
:101FAA00F5000A168A158F230A128A150318E52FD7
:101FBA00C0300A168A1588210A128A15B030EC2F09
:101FCA00C0300A168A1588210A128A15C230F20010
:101FDA008030F3000A168A151C220A128A1541302B
:101FEA0083120313EE00EE30ED00ED0BFA2FEE0B29
:101FFA00FA2F0000892BFF1B0A2883137F188317E7
:10200A000008840A0319FF0A080010308A0004082D
:10201A00840A8207003401340034003400340A345C
:10202A000034003400346434003400340034E834BA
:10203A000334003400341034273400340034A0341C
:10204A00863401340034403442340F34003480344E
:10205A009634983400340034E134F53405340034CD
:10206A00CA349A343B34003480343F34CD34CC34CF
:10207A003D34D73423343C34123483343A34B734BD
:10208A00D1343834C6342734373438348634353486
:10209A00C034D6343334CC342B34323470348934AB
:1020AA003034E734DB342E34E5343C341E344234E5
:1020BA00A2340D34003480343F34003420344134A7
:1020CA000034C834423400347A34443440341C3442
:1020DA0046345034C334473424347434493497343E
:1020EA0018344B34BC34BE344C346B346E344E34F6
:1020FA000334153450347934AD346034F33449340C
:10210A007134003480343F34723431343F34FE3415
:10211A0075343E34583463343D3495341D343C347C
:10212A00C534AE343A347934213439349434803471
:10213A0037349334A73435345634153434340034B0
:10214A0000340034003480343F34F034FF34BE3479
:10215A00E234A9343E3483347634BE34AE342B347C
:10216A003E343C34C334BD34D23413343D34783431
:10217A00D334BB3443344F34323420346C34653472
:10218A00763465346C347334203468346934673493
:10219A00683421342034003443344F343234203408
:1021AA006C346534763465346C3473342034613479
:1021BA007234653420344F344B34003443344F3452
:1021CA0032343A34203425342E34323466342034CE
:0C21DA00703470346D3420342034003434
:1021F000F601F31F0229F209F309F20A0319F30A9F
:10220000F601F60AF11F0929F009F109F00A03198C
:10221000F10A7108700403193629F501F50AF11B5A
:102220001D2901300310F00DF10DFF3E031D122991
:102230000130F4007408F5070F2971087302031DBB
:10224000232970087202031C2B297008F2027108FE
:10225000031CF303F30201300310F10CF00CFF3EFA
:10226000031D2C290130F502031D1D2976080319D1
:102270003E29F209F309F20A0319F30A7308F1017E
:10228000F1077208F001F0070800831203135E08DB
:10229000F0005F08F1006008F2000030F300003049
:1022A000F4000030F5000A168A158F230A168A11E9
:1022B00003186929213083160313C2000030C300BC
:1022C000003083120313DE000030DF000030E00036
:1022D00008008312031360085F045E04031D7F2956
:1022E000223083160313C2000030C3000030831273
:1022F0000313DE000030DF000030E0000800003093
:10230000C7008030C800BF30C9000030A7000030CF
:10231000A8004030A9006230E1006108F3005E08C7
:10232000F0005F08F1006008F2000A168A15C12269
:102330000A168A11700883120313AA007108AB00F1
:102340007208AC000A168A1115220A168A11831225
:1023500003132708CA002808CB002908CC000A1656
:102360008A11E8220A168A11831203134708DE0035
:102370004808DF004908E000FF30E2070318E30ADD
:10238000FF30E3075E08D4005F08D5006008D60080
:102390009530E1006108D7000830D8000030D9003E
:1023A0000A168A150F250A168A1183120313540878
:1023B000DE005508DF005608E0005E08C7005F0831
:1023C000C8006008C9007230A7003130A8003F3053
:1023D000A9006308F901F9076208F801F8070A166D
:1023E0008A15D9210A168A11780883120313AA00C4
:1023F0007908AB007A08AC000A168A1115220A1671
:102400008A11831203132708CA002808CB00290861
:10241000CC000A168A11E822831203134708DE0053
:102420004808DF004908E00008008312031327086A
:10243000AD002808AE002908AF0003102E0D2F0DA7
:10244000B0003008B100B108031D2D2A0030A700EC
:102450000030A8000030A90008002A08AD002B08B1
:10246000AE002C08AF0003102E0D2F0DB000300869
:10247000B600B608031D432A0030A7000030A800AC
:102480000030A900080036087B3EAD002D08B107DA
:102490002708AD002808AE002908AF00103003104F
:1024A000AF0CAE0CAD0CFF3E031D4F2A2D08B00043
:1024B0003008B6002A08AD002B08AE002C08AF008B
:1024C00010300310AF0CAE0CAD0CFF3E031D612AA3
:1024D0002D08B0003008B6068030AD002D08B605D6
:1024E000A817AB17FF30AA05FF30AB050030AC05CD
:1024F0000030B2000030B3000030B4000730AD004F
:102500002D08B500271C922A2A08B2072B080311B0
:1025100003182B0A031DB3072C08031103182C0AF8
:10252000031DB40701300310A90CA80CA70CFF3E33
:10253000031D932A01300310AA0DAB0DAC0DFF3E15
:10254000031D9B2A0130B502031D822A0930AD000C
:102550002D08B500271CBA2A2A08B2072B08031138
:1025600003182B0A031DB3072C08031103182C0AA8
:10257000031DB40701300310A90CA80CA70CFF3EE3
:10258000031DBB2A01300310B40CB30CB20CFF3E88
:10259000031DC32A0130B502031DAA2A3208F00028
:1025A0003308F1003408F2003108AD002D08F300C3
:1025B0003608AE002E08F4000A168A15A724700803
:1025C00083120313A7007108A8007208A90008006D
:1025D000831203134708CD004808CE004908CF00F6
:1025E00003104E0D4F0DD0005008D3004A08CD0007
:1025F0004B08CE004C08CF0003104E0D4F0DD000FD
:102600005008D20053080319112B52085302031823
:10261000182B5303FF3A5207CD0019304D02031C0B
:10262000182B4A08C7004B08C8004C08C90008000E
:10263000520803190800530852020318272B5203AB
:10264000FF3A5307CD0019304D0203180800063039
:10265000CD004D08D100C91BD117CC1B5117C8178D
:10266000FF30C705FF30C8050030C905CB17FF3064
:10267000CA05FF30CB050030CC05520853020318C1
:10268000672B01300310CA0DCB0DCC0DFF3E031D8F
:10269000422B0130D202520853060319622B01303B
:1026A000D102510807390319622B412B0130031065
:1026B000C90CC80CC70CFF3E031D572B0130CD00C1
:1026C0004D08D307530852060319902B562B530875
:1026D00052020318902B01300310C70DC80DC90D0D
:1026E000FF3E031D6C2B0130D30252085306031921
:1026F0008C2B0130D1025108073903198C2B6B2B1D
:1027000001300310CC0CCB0CCA0CFF3E031D812BF7
:102710000130CD004D08D20753085206031D802B0F
:10272000D11FA22BFF30C706FF30C806FF30C906F5
:102730000130C707003003180130C8070030031804
:102740000130C907511FB42BFF30CA06FF30CB063A
:10275000FF30CC060130CA07003003180130CB0728
:10276000003003180130CC07D1014708CA074808D8
:1027700003110318480A031DCB0749080311031866
:10278000490A031DCC07CC1FD72BFF30CA06FF30E8
:10279000CB06FF30CC060130CA07003003180130E9
:1027A000CB07003003180130CC07D101D10A4A0809
:1027B000F0004B08F1004C08F2005308CD004D0822
:1027C000F3005108CE004E08F4000A168A15A7241B
:1027D000700883120313C7007108C8007208C9008B
:1027E0000800703084000008F600840A0008F70032
:1027F000840A0008F800840A0008F9000310780D24
:10280000790DFA007A0883120313A500A508031DA9
:10281000122C0030F3000030F2000030F1000030E4
:10282000F0000800733084000008F600840A0008F5
:10283000F700840A0008F800840A0008F900031071
:10284000780D790DFA007A08A400A408031D312C34
:102850000030F3000030F2000030F1000030F000F2
:1028600008007030840000308004840A0030800446
:10287000840A80308004840A003080047030840030
:10288000FF308005840AFF308005840AFF30800510
:10289000840A003080057330840000308004840A8C
:1028A00000308004840A80308004840A0030800470
:1028B00073308400FF308005840AFF308005840A6D
:1028C000FF308005840A003080050030A30000300E
:1028D000A2000030A1000030A0007F30A502A0308F
:1028E0002407F6007608A5022030F6007608A4003A
:1028F0000130F6000310A00DA10DA20DA30DF60BE3
:102900007A2C733084000008F600840A0008F7006F
:10291000840A0008F800840A0008F9007030840076
:102920000008FA00840A0008FB00840A0008FC0082
:10293000840A0008FD0079087D02031DA92C78088F
:102940007C02031DA92C77087B02031DA92C7608A5
:102950007A02031CCE2C733084000008F600840A2F
:102960000008F700840A0008F800840A0008F9004B
:102970007030840076088002840A7708031C770F81
:102980008002840A7808031C780F8002840A790880
:10299000031C790A80020330840220147030840002
:1029A0000310800D840A800D840A800D840A800D36
:1029B0008403840384030130A402031D782CA51F23
:1029C000FF2C2508803A9F3E0318EF2C0030F300BF
:1029D0000030F2000030F1000030F000080001305B
:1029E0000310A30CA20CA10CA00CFF3E031DF02CA5
:1029F0000130F6007608A50703191A2DEF2C2030B8
:102A00002502031C172D0030F3000030F2000030C7
:102A1000F1000030F00008000130F6000310A00DB6
:102A2000A10DA20DA30DF60B0E2D0130A502A508D8
:102A3000031D0C2D2308F3002208F2002108F100E9
:102A40002008F000080083160313B5012B082A04A0
:102A50002904031D4D2D0030F0000030F10000303E
:102A6000F2002C08F3002D08F4002E08F5000A16D9
:102A70008A158F230A168A11031C442D21308316D0
:102A80000313C2000030C300003083160313A900F3
:102A90000030AA000030AB0008002E082D042C04E2
:102AA000031D592D0030A9008030AA003F30AB0033
:102AB00008002908F0002A08F1002B08F200003075
:102AC000F3000030F4000030F5000A168A158F2359
:102AD0000A168A110318DD2D831603132C0883129E
:102AE0000313C000831603132D0883120313C100C0
:102AF000831603132E0883120313C2000A168A15C5
:102B000088250A168A1183120313430883160313B8
:102B1000B90083120313420883160313B80083120B
:102B20000313410883160313B700831203134008ED
:102B300083160313B6003908FB003808FA0037087B
:102B4000F9003608F8000A168A1562220A168A1158
:102B5000831603132E087A06031DB42D2D0879065B
:102B6000031DB42D2C0878060319C12D2130C20095
:102B70000030C3000030A9000030AA000030AB00D4
:102B800008003608013983120313EC006C08831621
:102B90000313B5002908F0002A08F1002B08F20001
:102BA0000A168A1572210A168A11700883160313F1
:102BB000A9007108AA007208AB0083160313290844
:102BC00083120313DE00831603132A0883120313F0
:102BD000DF00831603132B0883120313E0000A1689
:102BE0008A1145210A168A11831203135E0883167F
:102BF0000313AF00831203135F0883160313B0009F
:102C000083120313600883160313B1002C08831288
:102C10000313A700831603132D0883120313A800C0
:102C2000831603132E0883120313A90083160313BC
:102C30002F0883120313AA0083160313300883128C
:102C40000313AB0083160313310883120313AC0084
:102C50000A168A1115220A168A11831203132708ED
:102C600083160313B2008312031328088316031379
:102C7000B30083120313290883160313B400320828
:102C800083120313E800831603133308831203131C
:102C9000E90083160313340883120313EA000A16AB
:102CA0008A117B260A168A11831203136808831679
:102CB0000313A90083120313690883160313AA00E0
:102CC000831203136A0883160313AB003508031934
:102CD00008002908F0002A08F1002B08F2000A1663
:102CE0008A157221700883160313A9007108AA00BF
:102CF0007208AB000800831203136A0869046804B1
:102D0000031D892E0030E8008030E9003F30EA00E2
:102D100008007230F0003130F1004430F2006808F1
:102D2000F3006908F4006A08F5000A168A158F2373
:102D30000A168A110318AA2E223083160313C20022
:102D40000030C300FF308312E8007F30E9007F309D
:102D5000EA000800831203136808F0006908F10014
:102D60006A08F2004930F3003A30F400C430F5004C
:102D70000A168A158F230A168A110318CE2E2230BE
:102D800083160313C2000030C30000308312031304
:102D9000E8000030E9000030EA0008008312031365
:102DA0006808F0006908F1006A08F2000030F300DA
:102DB0000030F4000030F5000A168A158F230A1639
:102DC0008A110030031C013083120313EB006B08DF
:102DD00083160313A80028080319052F8312031371
:102DE0006808F0006908F1006A08F2000A168A15FE
:102DF00072210A168A11700883120313E800710801
:102E0000E9007208EA0083160313AA308312A700B0
:102E1000B830A8003F30A9006808AA006908AB00D4
:102E20006A08AC000A168A1115220A168A11831242
:102E300003132708E8002808E9002908EA006808C1
:102E4000D6006908D7006A08D8000A168A1516261F
:102E50000A168A1183120313560883160313A0005F
:102E600083120313570883160313A100831203135D
:102E7000580883160313A200200883120313C0000E
:102E800083160313210883120313C100831603134F
:102E9000220883120313C2000A168A1588250A160F
:102EA0008A1183120313410883160313A701A7078E
:102EB00083120313400883160313A601A6072708ED
:102EC000F901F9072608F801F8070A168A15D92129
:102ED0000A168A11780883120313D4007908D500E2
:102EE0007A08D6006808D7006908D8006A08D900AF
:102EF0000A168A15BD210A168A1183120313540873
:102F0000E8005508E9005608EA006808D400690896
:102F1000D5006A08D6007730EB006B08D70009307F
:102F2000D8000030D9000A168A150F250A168A1112
:102F3000831203135408DE005508DF005608E00032
:102F400083160313270883120313E201E207831693
:102F50000313260883120313E101E1070A168A15F9
:102F6000AF260A168A11831203135E08E8005F0871
:102F7000E9006008EA008316031328080319080013
:102F8000FF30A3007F30A4007F30A500831203131D
:102F90006A08831603132506031DDC2F831203130F
:102FA0006908831603132406031DDC2F8312031301
:102FB0006808831603132306031DE72F00308312CE
:102FC0000313E8000030E9000030EA000800831233
:102FD0006808B7006908B8006A08B9000030BA008C
:102FE0008030BB003F30BC000A168A154827831288
:102FF00003133708E8003808E9003908EA00080038
:1032E400720871047004031908008030F2060800A3
:1032F400F100F0013A30710203188629303071026E
:10330400031C8629F001F00A700C0800F100710812
:103314008312031388008612061386171030F000F8
:10332400F00B922900008312031386130800F100A6
:10333400710883120313880086160613861710304B
:10334400F000F00BA3290000831203138613080076
:1033540083120313A600A501261CB4292408FC002B
:103364007C08A5070310A40D0310A60CA608031DD2
:10337400AE2925080800803083120313D6065708A7
:10338400C7005808C8005908C9005408CA0055089D
:10339400CB005608CC000A168A11E82283120313C4
:1033A4004708D4004808D5004908D6000800FD01A4
:1033B400F91FE329F809F909F80A0319F90AFD01C3
:1033C400FD0A7808F0007908F100F2018E30FB0064
:1033D4007B08F3007D08FC007C08F4000A168A15BB
:1033E400A7247008F8007108F9007208FA000800B0
:1033F4003C300A168A1588210A168A151030F20004
:10340400F20B022A00000C300A168A1588210A16CB
:103414008A1501300A168A1588210A168A1506307B
:103424000A168A1588210A168A150F300A168A1573
:1034340088210800730883120313FF0072088400B4
:103444000A168A1100200A168A1500380319080082
:10345400730883120313FF00720884000A168A118A
:1034640000200A168A150A168A1599210A168A1541
:103474000130F2070318F30A1C2AF401F501701C49
:10348400492A7208F4070318F50A7308F50701308E
:103494000310F20DF30DFF3E031D4A2A0130031001
:1034A400F10CF00CFF3E031D512A71087004031D3A
:1034B400412A7508F101F1077408F001F0070800CA
:1034C4008E30FC007C08FD00FF307B050319782A50
:1034D40001300310FB0CFA0CF90CF80CFF3E031D31
:1034E4006B2A0130FC007C08FD07662A7808F0008E
:1034F4007908F1007A08F2007D08FC007C08F300EA
:10350400F4010A168A15A7247008F8007108F90056
:103514007208FA000800F401F5011A30F300F830DB
:10352400F200F20B932AF30B932A00008312031385
:103534001F151F199B2A1E08F200F3017208F400DC
:103544007308F5007508F3007408F2007208F300BC
:10355400F2017208F4007308F5007408831603136B
:103564001E04F2007508F3007208F4007308F500F5
:103574007508F101F1077408F001F00708007208FA
:1035840071047004031DD32A73088400831380011B
:10359400840A80010030F0000030F1000030F200B5
:1035A400080072087F39F400F5010310F40DF50DDD
:1035B40073088400740883138000840A75088000EB
:1035C400710D710D0139F400F5017308840074085C
:1035D4008004840A7508800473088400823080079C
:1035E400840F00080318000AFF00FF307F078000E3
:1035F4008403720880393F38F200F1130800831203
:103604000313D5018E30D2005208D400D11F172BDA
:10361400CE09CF09D009D109CE0A0319CF0A03195B
:10362400D00A0319D10AD501D50AFF30510503196F
:10363400292B01300310D10CD00CCF0CCE0CFF3E43
:10364400031D1C2B0130D2005208D407172B4E083F
:10365400F0004F08F1005008F2005408D20052085C
:10366400F3005508D3005308F4000A168A15A7245A
:10367400700883120313CE007108CF007208D000C3
:10368400080073087204710470040319862BF9018D
:10369400F90AF31B5B2B0130F8000310F00DF10D58
:1036A400F20DF30DF80B4F2B0130F8007808F907F1
:1036B4004B2B73087702031D692B72087602031DD6
:1036C400692B71087502031D692B70087402031CB1
:1036D400792B7008F4027108031C710FF50272084B
:1036E400031C720FF6027308031C730FF7020130F8
:1036F4000310F30CF20CF10CF00CFF3E031D7A2BBB
:103704000130F902031D5B2B7708F3007608F20001
:103714007508F1007408F0000800F21FB62B0030A1
:10372400F6000030F7008030F8007009F9007109E4
:10373400FA007209FB00F90A0319FA0A0319FB0AD1
:103744007908F6077A0803187A0FA92BAA2BF7072A
:103754007B0803187B0FAF2BB02BF8077608F0001B
:103764007708F1007808F200F51FDD2B0030F60031
:103774000030F7008030F8007309F9007409FA008A
:103784007509FB00F90A0319FA0A0319FB0A7908F7
:10379400F6077A0803187A0FD02BD12BF7077B088A
:1037A40003187B0FD62BD72BF8077608F30077087E
:1037B400F4007808F5008030F2068030F5067508CC
:1037C4007202031D080074087102031D08007308C7
:1037D4007002080083120313A101F81FF82BF709E4
:1037E400F809F70A0319F80AA101A10AFA1F032C20
:1037F400F909FA09F90A0319FA0A0130FB007B08EE
:10380400A106A201A3017808770403193A2CA001A8
:10381400A00AF81B192C01300310F70DF80DFF3E18
:10382400031D0E2C0130FB007B08A0070B2C01307C
:103834000310A20DA30DFF3E031D1A2C78087A0273
:10384400031D262C77087902031C2F2C7708F90214
:103854007808031CFA03FA02221401300310F80C4E
:10386400F70CFF3E031D302C0130A002031D192C60
:1038740021080319422CA209A309A20A0319A30AC5
:103884002308F801F8072208F701F70708000030B9
:10389400FC000030FB000030FA000030F90073082F
:1038A40072047104700403199E2CFD01FD0AF31BBC
:1038B400692C0130F8000310F00DF10DF20DF30D39
:1038C400F80B5D2C0130F8007808FD07592C013005
:1038D400F8000310F90DFA0DFB0DFC0DF80B6B2C21
:1038E40073087702031D802C72087602031D802C56
:1038F40071087502031D802C70087402031C912C3E
:103904007008F4027108031C710FF5027208031C9D
:10391400720FF6027308031C730FF7027914013057
:103924000310F30CF20CF10CF00CFF3E031D922C6F
:103934000130FD02031D692C7C08F3007B08F200B2
:103944007A08F1007908F000080073080319AF2C15
:10395400720871047004031DC22C0030F0000030A2
:10396400F1000030F20008000130F5007508F3079B
:1039740001300310F20CF10CF00CFF3E031DBB2CC4
:10398400FE3072050319DD2CB62C0130F5007508E4
:10399400F3070130F007003003180130F10700305D
:1039A40003180130F20701300310F20CF10CF00C93
:1039B400FF3E031DD62CFF3072050319EC2CC72CD7
:1039C4000130F30201300310F00DF10DF20DFF3E52
:1039D400031DE52CF11FE22C7318F62CFF30F005C3
:1039E4007F30F105FF30F2050310F30C7308F50086
:1039F400F601F70110300310F50DF60DF70DFF3E3B
:103A0400031DFD2C7508F0047608F1047708F20410
:103A1400740803190800F217080003308312031313
:103A2400DA005A08A40058080A168A15AA210A16A8
:103A34008A1583120313570784000A168A110A2071
:103A44000A168A15DB000A168A110A200A168A1534
:103A5400DC000A168A110A200A168A15DD005908A4
:103A640058040319812D0330DA005A08A400FF30EA
:103A7400D8070318D90AFF30D90758080A168A1537
:103A8400AA210A168A1583120313570784000A16FB
:103A94008A110A200A168A15C7000A168A110A20F2
:103AA4000A168A15C8000A168A110A200A168A15E7
:103AB400C9005B08A7005C08A8005D08A9005408B9
:103AC400AA005508AB005608AC000A168A11152244
:103AD4000A168A15831203132708CA002808CB0084
:103AE4002908CC000A168A11E8220A168A158312BC
:103AF40003134708DB004808DC004908302D5B0845
:103B0400D4005C08D5005D08D600080083120313B6
:103B14004008C4004108C5004208C6000310450D12
:103B2400460DC7004708CD00CD08031DA22D003067
:103B3400C3000030C2000030C1000030C0000800E3
:103B44004008C4004108C5004208C60017300310ED
:103B5400C60CC50CC40CFF3E031DA92D4408C700A8
:103B64004708C800C117FF30C005FF30C105003049
:103B7400C2054008C9004108CA004208CB00CC0174
:103B84008E30CD02CD1FE42D4D08803A8F3E0318B0
:103B9400D42D0030C3000030C2000030C10000301A
:103BA400C000080001300310CC0CCB0CCA0CC90CAB
:103BB400FF3E031DD52D0130C4004408CD07031971
:103BC400FF2DD42D18304D02031CFC2D0030C300F2
:103BD4000030C2000030C1000030C00008000130D5
:103BE400C4000310C90DCA0DCB0DCC0DC40BF32DAD
:103BF4000130CD02CD08031DF12D480803190D2E07
:103C0400C909CA09CB09CC09C90A0319CA0A031983
:103C1400CB0A0319CC0A4C08C3004B08C2004A085B
:103C2400C1004908C0000800831203135608F000BD
:103C34005708F1005808F2005D30D9005908F30024
:103C44000A168A15C1220A168A1583120313DE1F67
:103C5400502E5608F0005708F1005808F2000030C2
:103C6400F3000030F4000030F5000A168A158F23A3
:103C74000A168A150318472E003083120313D60040
:103C84008030D700BF30D8000800003083120313FF
:103C9400D6000030D7000030D800080000305E02A3
:103CA400153003195D02031808005608C0005708B0
:103CB400C1005808C2000A168A1588250A168A15F2
:103CC400831203134308D1004208D0004108CF00F7
:103CD4004008CE000A168A1501230A168A15831293
:103CE40003134E08DA004F08DB005008DC005608C6
:103CF400F0005708F1005808F2005A08F3005B0876
:103D0400F4005C08F5000A168A158F230A168A1532
:103D14000318A62E003083120313C7008030C80096
:103D2400BF30C9005A08CA005B08CB005C08CC004D
:103D34000A168A11E822831203134708D60048089A
:103D4400D7004908D8000800831203135A08D60084
:103D54005B08D7005C08D8000800831203136008CE
:103D64005F045E04031DBD2E0030DE000030DF0062
:103D74000030E000080060087F39E300E40103102C
:103D8400E30DE40D6308E1070318E20A6408E2079F
:103D94005F0D5F0D0139E300E4016308E1070318D7
:103DA400E20A6408E207E21FE62E223083160313B8
:103DB400C2000030C300003083120313DE00003061
:103DC400DF000030E00008006208803AFF00813024
:103DD4007F02031DEF2E00306102031C2F2F2230BF
:103DE40083160313C2000030C300831203135E085A
:103DF400F0005F08F1006008F2000030F3000030CA
:103E0400F4000030F5000A168A158F230A168A1565
:103E14000318262FFF3083120313E5007F30E600DA
:103E24007F30E7006508F0006608F1006708F200DB
:103E34000A168A157221700883120313DE007108B2
:103E4400DF007208E0000800FF3083120313DE0075
:103E54007F30DF007F30E000080083120313620824
:103E6400E4006108E300640DE40CE30C60086306FD
:103E740080396306E00061080139E300E30CE30CD8
:103E84005F0863067F396306DF00080083120313AB
:103E94003A08BD003B08BE003C08BF0003103E0DBD
:103EA4003F0DC0004008C500C508031D602F003049
:103EB400B7000030B8000030B90008003708BD0072
:103EC4003808BE003908BF0003103E0D3F0DC00086
:103ED4004008C600C608031D762F0030B700003026
:103EE400B8000030B90008000030C2000030C30040
:103EF4000030C40089304607BD003D08C5023A08B9
:103F0400BD003B08BE003C08BF0010300310BF0CCE
:103F1400BE0CBD0CFF3E031D882F3D08C0004008A9
:103F2400C6003708BD003808BE003908BF0010308D
:103F34000310BF0CBE0CBD0CFF3E031D9A2F3D08A1
:103F4400C0004008C6068030BD003D08C605BB174A
:103F5400FF30BA05FF30BB050030BC05B817FF3091
:103F6400B705FF30B8050030B9051830BD003D086D
:103F7400C10001300310C20DC30DC40DFF3E031D6B
:103F8400BC2F39083C02031DCD2F38083B02031D0A
:103F9400CD2F37083A02031CDA2F3708BA02380843
:103FA400031C380FBB023908031C390ABC02421433
:103FB40001300310BA0DBB0DBC0DFF3E031DDB2FFA
:103FC4000130C102031DBB2F4208F0004308F10079
:103FD4004408F2004508BD003D08F3004608BE0051
:103FE4003E08F4000A168A15A724700883120313E6
:0C3FF400B7007108B8007208B90008009E
:02400E007AFF37
:00000001FF
