:060000000A128A11122809
:10000800FE00030EF2000408F3000A08F40083124D
:1000180003137F08F5000A128A11A2280A128A110E
:10002800152883010A128A114B28831203138701AA
:100038007A30F0000030F1000A128A118A200A1280
:100048008A1101308312031387007A30F0000030E0
:10005800F1000A128A118A200A128A1102308312C8
:10006800031387007A30F0000030F1000A128A1179
:100078008A200A128A1104308312031387007A3007
:10008800F0000030F1000A128A118A2008000130BD
:1000980083160313860087014430810083120313FB
:1000A80081010B168B108B17E03083120313860027
:1000B8007A30F6000030F7000A128A1172200A120C
:1000C8008A118312031386017A30F6000030F70094
:1000D8000A128A1172200A128A1158287708803A5F
:1000E800FF0080307F02031D7B2801307602031C4D
:1000F80008008312031381010B110B1D8128FF30A7
:10010800F6070318F70AFF30F70772287108803AD4
:10011800FF0080307F02031D932801307002031C0A
:1001280008008312031381010B110B1D9928FF305E
:10013800F0070318F10AFF30F1078A288B138B1C8C
:10014800AB280A128A1119200A128A118B108B17F0
:10015800750883120313FF0074088A00730884006B
:0A016800720E8300FE0E7E0E0900E9
:02400E0071FF40
:00000001FF
