:100000000A128A11FA2FFF1B0D2883137F188317FA
:100010000008840A0319FF0A080000308A00040857
:10002000840A82070034013400340A340034643412
:100030000034E83403341034273441344434433436
:1000400030343A342034253464342034203420349D
:1000500020342034203420342034003441344434DB
:10006000433431343A342034253464342034203459
:1000700020342034203420342034203400344134DF
:100080004434433420345434653473347434003489
:100A5A00FF3083160313850080309F000130831214
:100A6A0003139F000800F100710883120313880022
:100A7A00071087100715F930F0000000F00B422D1F
:100A8A00462D00008312031307110800F1007108B4
:100A9A00831203138800071487100715F930F00032
:100AAA000000F00B552D592D000083120313071176
:100ABA00080038300A128A1138250A128A111030B1
:100ACA00F200F20B662D00000C300A128A1138254A
:100ADA000A128A1101300A128A1138250A128A1159
:100AEA0006300A128A1138250A128A110F300A12A0
:100AFA008A1138250800F401F501701C8A2D720844
:100B0A00F4070318F50A7308F50701300310F20D0C
:100B1A00F30DFF3E031D8B2D01300310F10CF00C79
:100B2A00FF3E031D922D71087004031D822D750866
:100B3A00F101F1077408F001F0070800F400C3306E
:100B4A00F2007208831203139F057408F200023040
:100B5A000310F20DFF3E031DAD2D0310720DF300BD
:100B6A0073089F041F140630F200F20BBA2D00001E
:100B7A00831203131F151F19C02D1E08F101F10757
:100B8A00831603131E08F001F00708000C300A123E
:100B9A008A1138250A128A11730883120313FF0077
:100BAA00720884000A128A1103200A128A11003874
:100BBA0003190800730883120313FF0072088400E4
:100BCA000A128A1103200A128A110A128A114B2563
:100BDA000A128A110130F2070318F30AD12D83127F
:100BEA000313210820040319232EA501A50AA11B1A
:100BFA000A2E01300310A00DA10DFF3E031DFF2D8B
:100C0A000130A4002408A507FC2D21082302031D96
:100C1A00102E20082202031C182E2008A2022108E6
:100C2A00031CA303A30201300310A10CA00CFF3E76
:100C3A00031D192E0130A502031D0A2E2308A10146
:100C4A00A1072208A001A0070800FB01FC01770800
:100C5A0076040319612EFD01FD0AF71B402E0130AF
:100C6A000310F60DF70DFF3E031D352E0130FA0075
:100C7A007A08FD07322E01300310FB0DFC0DFF3EF2
:100C8A00031D412E77087902031D4D2E760878023E
:100C9A00031C562E7608F8027708031CF903F9029A
:100CAA007B1401300310F70CF60CFF3E031D572E80
:100CBA000130FD02031D402E7C08F701F7077B086F
:100CCA00F601F607080083160313870188018312C9
:100CDA00031387010A128A112D250A128A110A1290
:100CEA008A115E250A128A1180300A128A11382561
:100CFA000A128A112D30F2008030F3000A128A118A
:100D0A00CB250A128A1100300A128A11A3250A1267
:100D1A008A11710883120313CC01CC077008CB0126
:100D2A00CB070B30B5003508A6004C08A801A80768
:100D3A004B08A701A70737300A128A111F270A1280
:100D4A008A11C0300A128A1138250A128A113730DC
:100D5A00F2000030F3000A128A11CB250A128A1116
:100D6A00413083120313B600EE30B500B50BBB2E2B
:100D7A00B60BBB2E000001300A128A11A3250A12F3
:100D8A008A11710883120313CC01CC077008CB01B6
:100D9A00CB07FF30F6000330F7004C08F101F107EA
:100DAA004B08F001F007F430F2000130F3000A12A8
:100DBA008A1180250A128A117108F901F907700847
:100DCA00F801F8070A128A112A260A128A117708E4
:100DDA0083120313CC01CC077608CB01CB071C3056
:100DEA00B5003508A6004C08A801A8074B08A701BA
:100DFA00A70737300A128A111F270A128A1194305C
:100E0A000A128A1138250A128A113730F200003084
:100E1A00F3000A128A11CB250A128A114130831271
:100E2A000313B600EE30B500B50B192FB60B192F08
:100E3A000000882E83120313B3002730A900290863
:100E4A00AC000130A607FF30260784000A128A1177
:100E5A000D200A128A11A9002908B400B40803193E
:100E6A00F52F3408253A0319462F3408A900330808
:100E7A0084002908831380000130A9002908B307D8
:100E8A00262FAD010130A607FF30260784000A127B
:100E9A008A110D200A128A11B400003A0319F52F9B
:100EAA00643A03195C2F0D3A03195C2F262F2C087C
:100EBA00840083130008AF00840A0008B0000230DF
:100ECA00A9002908AC07B01F732F0330A90029080D
:100EDA00AD04AF09B009AF0A0319B00AB401B40AE4
:100EEA003408053A03199A2F3408A9002907013E44
:100EFA0084000A128A110D200A128A11AA000A1203
:100F0A008A110D200A128A11AB002B083002031D28
:100F1A00902F2A082F02031C9A2F0130A9002908B2
:100F2A00B4073408053A031D792F2D08033903192C
:100F3A00A92F2D30A90033088400290883138000C3
:100F4A000130A9002908B3073408A9002908AE000E
:100F5A00FF30A9002908AE072E08FF3A0319262FE9
:100F6A000A30A0000030A1002E08A9002907013E7E
:100F7A0084000A128A110D200A128A11F6000A1236
:100F8A008A110D200A128A11F7003008F901F907AF
:100F9A002F08F801F8070A128A112A260A128A115A
:100FAA00770883120313A301A3077608A201A207F5
:100FBA000A128A11F4250A128A11831203132008CD
:100FCA00303EAA002A08B4003408A9003308840075
:100FDA002908831380000130A9002908B307AD2F1F
:100FEA0033088400831380010800CD01CE018301F8
:060FFA000A128A11682EA4
:02400E007AFF37
:00000001FF
