:060000000A128A11FC2F18
:100F2C000A128A11AC2783160313111408000A1233
:100F3C008A11AC2783160313111508000A128A11A3
:100F4C00AC27700883120313930008008316031355
:100F5C001419AC2F11081F3903190800AC2F831674
:100F6C000313871507162830831203139400831676
:100F7C00031391019401093093000800FF3083168C
:100F8C00031388000A128A11B5270A128A110A1251
:100F9C008A1196270A128A111030F0000030F100E5
:100FAC000A128A11A4270A128A1183120313080841
:100FBC00F200F3017208F0007308F1000A128A11B2
:100FCC00A4270A128A110A128A119D270A128A1161
:100FDC000230F4000430F300BA30F200F20BF42FBC
:100FEC00F30BF42FF40BF42F0000CD2F83010A1216
:040FFC008A11C42F63
:02400E0071FF40
:00000001FF
