:060000000A128A11122809
:10000800FE00030EF1000408F2000A08F300831250
:1000180003137F08F4000A128A15D8290A128A11D4
:100028001528F701F80183135E30840068300A123E
:100038008A1592210A128A11CB308400D8300A120C
:100048008A1592210A128A110A128A1585210A1222
:100058008A11E8000A128A1586210A128A11E90013
:100068000A128A1587210A128A11EA000A128A15C9
:1000780088210A128A11EB000A128A1589210A12AC
:100088008A11EC000A128A158A21ED0083010A12EE
:100098008A11012FC03083120313BF007F30C000C4
:1000A8004430C1000030AF00A030B0004030B10093
:1000B8005008A901A9074F08A801A8070A128A151C
:1000C8009C220A128A11831203132808B2002908F5
:1000D800B3002A08B4000A128A1524260A128A11C3
:1000E800831203132F08C2003008C3003108C4006C
:1000F8000A128A156C250A128A11831203133F0803
:1001080083160313A00083120313400883160313F6
:10011800A10083120313410883160313A2000030C1
:1001280083120313BF00A030C0004030C100831603
:100138000313200883120313C20083160313210834
:1001480083120313C30083160313220883120313B5
:10015800C4000A128A156C250A128A118312031325
:100168003F0883160313C400831203134008831641
:100178000313C50083120313410883160313C60033
:10018800440883120313AF00831603134508831230
:100198000313B00083160313460883120313B10038
:1001A80083160313440883120313B2008316031340
:1001B800450883120313B3008316031346088312FA
:1001C8000313B4000A128A1524260A128A1183120C
:1001D80003132F0883160313B50083120313300883
:1001E80083160313B600831203133108831603130F
:1001F800B700440883120313AF008316031345089E
:1002080083120313B00083160313460883120313E3
:10021800B10083160313350883120313B200831643
:100228000313360883120313B30083160313370826
:1002380083120313B4000A128A1524260A128A119B
:10024800831203132F0883160313B80083120313B2
:10025800300883160313B900831203133108831679
:100268000313BA00440883120313AF008316031361
:10027800450883120313B00083160313460883123C
:100288000313B10083160313380883120313B20053
:1002980083160313390883120313B3008316031359
:1002A8003A0883120313B4000A128A1524260A1284
:1002B8008A11831203132F0883160313BB008312BA
:1002C8000313300883160313BC0083120313310889
:1002D80083160313BD00440883120313AF0083166B
:1002E8000313450883120313B0008316031346084B
:1002F80083120313B100831603133B0883120313FD
:10030800B200831603133C0883120313B300831649
:1003180003133D0883120313B4000A128A15242616
:100328000A128A11831203132F0883160313BE00BF
:1003380083120313300883160313BF0083120313B9
:10034800310883160313C000440883120313AF0057
:1003580083160313450883120313B000831603138F
:10036800460883120313B100831603133E08831251
:100378000313B200831603133F0883120313B30059
:1003880083160313400883120313B4000A128A1554
:1003980024260A128A11831203132F0883160313C3
:1003A800A30083120313300883160313A4008312D7
:1003B8000313310883160313A5009C30831203131B
:1003C800AF00B230B0003F30B100831603133508D8
:1003D80083120313B2008316031336088312031320
:1003E800B30083160313370883120313B4000A12E9
:1003F8008A1524260A128A11831203132F08BF00B4
:100408003008C0003108C100A930AF00DE30B000AC
:100418003C30B10083160313440883120313B2005F
:1004280083160313450883120313B30083160313BB
:10043800460883120313B4000A128A1524260A12E6
:100448008A11831203132F08C2003008C300310831
:10045800C4000A128A15F7260A128A118312031396
:100468003F0883160313A60083120313400883165C
:100478000313A70083120313410883160313A8006C
:10048800EE3083120313AF00EB30B0003A30B10006
:1004980083160313380883120313B2008316031359
:1004A800390883120313B300831603133A0883121F
:1004B8000313B4000A128A1524260A128A11831219
:1004C80003132F08BF003008C0003108C10083168D
:1004D8000313260883120313C20083160313270885
:1004E80083120313C300831603132808831203130C
:1004F800C4000A128A15F7260A128A1183120313F6
:100508003F0883160313A9008312031340088316B8
:100518000313AA0083120313410883160313AB00C5
:10052800743083120313AF005A30B000BB30B100EF
:10053800831603133B0883120313B20083160313B5
:100548003C0883120313B300831603133D08831278
:100558000313B4000A128A1524260A128A11831278
:1005680003132F08BF003008C0003108C1008316EC
:100578000313290883120313C200831603132A08DE
:1005880083120313C300831603132B088312031368
:10059800C4000A128A15F7260A128A118312031355
:1005A8003F0883160313AC00831203134008831615
:1005B8000313AD0083120313410883160313AE001F
:1005C800103083120313AF00FC30B000BA30B10012
:1005D800831603133E0883120313B2008316031312
:1005E8003F0883120313B3008316031340088312D2
:1005F8000313B4000A128A1524260A128A118312D8
:1006080003132F08BF003008C0003108C10083164B
:1006180003132C0883120313C200831603132D0837
:1006280083120313C300831603132E0883120313C4
:10063800C4000A128A15F7260A128A1183120313B4
:100648003F0883160313AF00831203134008831671
:100658000313B00083120313410883160313B10078
:10066800A83083120313AF009030B0003F30B100C0
:1006780083160313230883120313B200831603138C
:10068800240883120313B300831603132508831267
:100698000313B4000A128A1524260A128A11831237
:1006A80003132F08BF003008C0003108C1008316AB
:1006B80003132F0883120313C20083160313300891
:1006C80083120313C3008316031331088312031321
:1006D800C4000A128A15F7260A128A118312031314
:1006E8003F0883160313B2008312031340088316CE
:1006F8000313B30083120313410883160313B400D2
:10070800803083120313BF00B730C0003930C100F6
:1007180083160313320883120313C20083160313CC
:10072800330883120313C300831603133408831298
:100738000313C4000A128A15F7260A128A118312B3
:1007480003133F0883160313C100831203134008E1
:1007580083160313C200831203134108831603137D
:10076800C300CA3083120313AF00CF30B000433048
:10077800B10083160313410883120313B2008316D2
:100788000313420883120313B300831603134308A9
:1007980083120313B4000A128A1524268312031342
:1007A8002F0883160313C10083120313300883161E
:1007B8000313C20083120313310883160313C30003
:1007C800410883120313CF008316031342088312D0
:1007D8000313D00083160313430883120313D100B5
:1007E800080083120313C000B601B7012D30B10011
:1007F8003108B400013083120313AC07FF302C0713
:1008080084000A128A150A200A128A11B1003108D6
:10081800BF00BF080319CB2D3F08253A0319262C22
:100828003F08B1004008840031088313800001307C
:10083800B1003108C0070130B6070318B70A003005
:10084800B707FE2BBD01BE01BC012F2C3C150130A2
:10085800B1003108AC072C0884000A128A150A2056
:100868000A128A11303A03192A2C3A2C2C088400CF
:100878000A128A150A200A128A110A128A15A42154
:100888000A128A11031C8A2C83120313BD01BE01AC
:100898000A3083120313A0000030A1003E08A30110
:1008A800A3073D08A201A2070A128A1577220A1295
:1008B8008A11831203132108BE01BE072008BD0157
:1008C800BD072C0884000A128A150A200A128A1108
:1008D800D03EB100FF3003180030B2003108BD0728
:1008E8000318BE0A3208BE070130B1003108AC0750
:1008F8002C0884000A128A150A200A128A110A1280
:100908008A15A4210A128A1103184C2C013083126B
:100918000313AC07FF302C0784000A128A150A203B
:100928000A128A11BF00003A0319CB2D643A031941
:10093800A12C0D3A0319A12CFE2B831203133408A2
:10094800840083130008B800840A0008B900023044
:10095800B1003108B407B91FBA2C0330B10031080F
:10096800BC04B809B909B80A0319B90ABF01BF0A12
:100978003F08053A0319E12C3F08B1003107013E51
:1009880084000A128A150A200A128A11B2000A1271
:100998008A150A200A128A11B30033083902031D86
:1009A800D72C32083802031CE12C0130B100310881
:1009B800BF073F08053A031DC02C3E083D04031934
:1009C800EF2C3C0803390319EF2CFF30BD0703183F
:1009D800BE0AFF30BE073F08B100B201B11BB20327
:1009E8003208803AB3003E08803A3302031DFE2CD9
:1009F8003D08310203180E2D831203133F08B1007E
:100A0800B201B11BB2033108BD023208031CBE0398
:100A1800BE02122D83120313BD01BE013C1D452DDC
:100A28003C0803390319292D2D30B10040088400F2
:100A38003108831380000130B1003108C00701304C
:100A4800B6070318B70A0030B7073E083D04031974
:100A5800792D3030B10040088400310883138000BC
:100A68000130B1003108C0070130B6070318B70AD2
:100A78000030B707FF30BD070318BE0AFF30BE07B6
:100A8800292D3E083D040319642D2030B10040088B
:100A980084003108831380000130B1003108C00799
:100AA8000130B6070318B70A0030B707FF30BD0793
:100AB8000318BE0AFF30BE073E083D04031D492D3A
:100AC8003C0803390319792D2D30B1004008840002
:100AD8003108831380000130B1003108C0070130AC
:100AE800B6070318B70A0030B7073F08B100310846
:100AF800B500FF30B1003108B5073508FF3A0319D2
:100B0800FE2B0A30A7000030A8003508B1003107D5
:100B1800013E84000A128A150A200A128A11A000CE
:100B28000A128A150A200A128A11A1003908A3019B
:100B3800A3073808A201A2070A128A1583230A12FA
:100B48008A11831203132108AA01AA072008A90100
:100B5800A9070A128A1517230A128A118312031386
:100B68002708303EB2003208BF003F08B1004008F5
:100B780084003108831380000130B1003108C007B8
:100B88000130B6070318B70A0030B7077D2D831266
:100B9800031340088400831380013708AD01AD07B3
:100BA8003608AC01AC070800831603134B08831200
:100BB8000313CC00831603134C0883120313CD00D0
:100BC800831603134D0883120313CE000A128A15E5
:100BD8002D240A128A11831203134D088316031356
:100BE800B501B507831203134C0883160313B40128
:100BF800B407350883120313A901A9078316031341
:100C0800340883120313A801A8070A128A159C2224
:100C18000A128A11831203132808AC002908AD00B0
:100C28002A08AE000A128A159A210A128A1183121A
:100C380003132C08C2002D08C3002E08C400831615
:100C480003134B0883120313BF00831603134C08C6
:100C580083120313C000831603134D088312031372
:100C6800C1000A128A15F7260A128A118312031381
:100C78003F08B2004008B3004108B4000030AF009C
:100C8800C830B0004230B1000A128A1524260A1270
:100C98008A11831203132F08CC003008CD003108C5
:100CA800CE000A128A152D240A128A118312031300
:100CB8004D0883160313B701B707831203134C08B3
:100CC80083160313B601B607A03083120313DA00A4
:100CD8005A0883160313B800873083120313DA0007
:100CE8005A08AC008316031338080A128A11F52330
:100CF8000A128A11831203132C08DB005B0883167F
:100D08000313B8072D3083120313DA005A08AC0016
:100D180083160313350883120313AE01AE07831637
:100D28000313340883120313AD01AD0783160313AD
:100D380038080A128A11F5230A128A11831203133A
:100D48002C08DB005B0883160313B8072E308312C8
:100D58000313DA008316031338088400831203137D
:100D68005A08831380000130DA005A0883160313E7
:100D7800B8073708803AFF0080307F02031DC62E6F
:100D88000A3036020318DB2E303083120313DA00E0
:100D98008316031338088400831203135A08831335
:100DA80080000130DA005A0883160313B8076E3042
:100DB80083120313DA005A08AC00831603133708AA
:100DC80083120313AE01AE0783160313360883128A
:100DD8000313AD01AD078316031338080A128A11ED
:100DE800F5230A128A11A03083120313A0000030E1
:100DF800A1000A128A11D4270800FF3083160313B2
:100E08008500FF308600870188018312031387015C
:100E18008030831603139F000130831203139F0051
:100E28000B168B108316031301178B170B170A1257
:100E38008A152F220A128A11033083160313C90058
:100E48008A30C8005630C700C70B282FC80B282F78
:100E5800C90B282F2F2F80300A128A15C5210A1294
:100E68008A110C300A128A15C5210A128A113030EB
:100E780083120313A0008030A1000A128A11D4271C
:100E88000A128A110A128A158B210A128A110B304A
:100E980083160313C9002630C8006630C700C70B85
:100EA800532FC80B532FC90B532F5A2F01300A1237
:100EB8008A15C5210A128A11B82F80300A128A159C
:100EC800C5210A128A1183120313670883160313B4
:100ED800C700C801470883120313C1008316031310
:100EE800480883120313C200660883160313C90057
:100EF800CA01490883120313C300831603134A085F
:100F080083120313C4000A128A15E8220A128A11EE
:100F1800C0300A128A15C5210A128A110A128A15C6
:100F28000B220A128A11B82F01300A128A15C5211C
:100F38000A128A1180300A128A15C5210A128A11EA
:100F48000A128A11D8250A128A110330831603134C
:100F5800C9008A30C8005630C700C70BB12FC80B6C
:100F6800B12FC90BB12FB82F8B130B130A128A1587
:100F78004D230A128A118B170B170A128A1553224E
:100F88000A128A110A128A15EE210A128A117708A2
:100F9800003A0319612F013A0319982FB82FB82F77
:100FA8000C300A128A15C5210A128A1183120313FA
:100FB8002108FF00200884000A128A1500200A125E
:100FC8008A11003803190800831203132108FF004F
:100FD800200884000A128A1500200A128A110A12AF
:100FE8008A15B2210A128A11013083120313A0074D
:060FF8000318A10ADA2F24
:10100000FF1B0A2883137F1883170008840A03191B
:10101000FF0A080008308A000408840A82070034A6
:10102000013400340A34003464340034E8340334C6
:10103000103427344534723472346F3472342034AF
:10104000723465346134643469346E346734203406
:1010500044344834543431343134003454344D340D
:1010600050343A3420342534643443342034483402
:101070004D3444343A342034253464340034493413
:101080006E3469347434693461346C3469347A345C
:1010900069346E3467342E342E342E340034543494
:1010A00069346D3465343A34203425343034323484
:1010B00064343A34253430343234643400344434C3
:1010C000453443343A3420342534303432346434B3
:1010D000003449344E3443343A34203425343034E7
:1010E0003234643400345334453454343A34203484
:1010F00025343034323464340034253464342034BC
:10110000703470346D34203420340034503455340D
:101110005234463420344834493400345034553441
:101120005234463420344C344F34003443344F343A
:0811300032343A34203400345B
:10130A000434FF340A3409341E341E34831603139A
:10131A000611831203130615080064008001840A6B
:10132A0004060319003404069329831203132E08B2
:10133A002D042C04031908008030AE060800F600BC
:10134A00F5013A3076020318B02930307602031CD0
:10135A00B029F501F50A750C0800F6007608831223
:10136A0003138800071487100715F930F5000000E9
:10137A00F50BBC29C02900008312031307110800CA
:10138A00F6007608831203138800071087100715E2
:10139A00F930F5000000F50BCF29D329000083129C
:1013AA000313071108008B138B1CE2298B10770893
:1013BA00013E0139F0007008F7008B177408FF002E
:1013CA0073088A0072088400710E8300FE0E7E0E76
:1013DA0009000130F500750883120313E5073C3054
:1013EA006502031C012AE5010130F5007508E807CA
:1013FA00183068020318E8018230F600DD30F50083
:10140A00F50B052AF60B052A0A2A08004030831232
:10141A000313C1004108AC006808C200C3014208B6
:10142A00AD004308AE006508C400C5014408AF001A
:10143A004508B00046300A128A11F5230A128A15A5
:10144A00463083120313A0000030A1000A128A1149
:10145A00D427080038300A128A15C5210A128A15BB
:10146A00103083120313A000A00B392A00000C309D
:10147A000A128A15C5210A128A1501300A128A151A
:10148A00C5210A128A1506300A128A15C5210A12BE
:10149A008A150F300A128A15C521080000300A126F
:1014AA008A15C1220A128A15760883120313D001FB
:1014BA00D0077508CF01CF070A128A114E2083126E
:1014CA0003134F0883160313CB0083120313500828
:1014DA0083160313CC0083120313510883160313D4
:1014EA00CD000800F501F60183120313201C832A9C
:1014FA002208F5070318F60A2308F6070130031035
:10150A00A20DA30DFF3E031D842A01300310A10C76
:10151A00A00CFF3E031D8B2A21082004031D792AF3
:10152A007608A101A1077508A001A0070800831287
:10153A000313AB01A91FA82AA809A909A80A031914
:10154A00A90AAB01AB0A2808A0002908A100A20138
:10155A008E30F5007508A3002B08F6007608A40063
:10156A000A128A15C323831203132008A80021082C
:10157A00A9002208AA00080083120313A200C3309C
:10158A00A00020089F052208A00002300310A00D29
:10159A00FF3E031DCB2A0310200DA10021089F0442
:1015AA000630A000A00BD72A0000831203131F15D0
:1015BA001F19DD2A1E08F601F607831603131E08F3
:1015CA00F501F5070800033083120313C6009730AC
:1015DA00C500C50BEE2AC60BEE2AF32A1F3083126A
:1015EA000313C5004508AC006708C600C7014608D2
:1015FA00AD004708AE006608C800C9014808AF0038
:10160A004908B0004A300A128A11F5230A128A15CB
:10161A004A3083120313A0000030A1000A128A1173
:10162A00D427080083120313280827040319462B1A
:10163A00AB01AB0AA81B2D2B01300310A70DA80D77
:10164A00FF3E031D222B0130F6007608AB071F2B45
:10165A0028082A02031D332B27082902031C3B2BC7
:10166A002708A9022808031CAA03AA0201300310AA
:10167A00A80CA70CFF3E031D3C2B0130AB02031D37
:10168A002D2B2A08A801A8072908A701A7070800DF
:10169A00663083120313AE002E08F50067300A1273
:1016AA008A15BB240A128A15003A031D732B80304F
:1016BA000A128A15C5210A128A150C300A128A15CD
:1016CA00C5210A128A150B3083120313A000803039
:1016DA00A1000A128A11D4270A128A15033083122A
:1016EA000313B0008A30AF005630AE00AE0B7B2B2E
:1016FA00AF0B7B2BB00B7B2B822B080083120313BF
:10170A00A501A601210820040319BC2BA401A40ADF
:10171A00A11B9B2B01300310A00DA10DFF3E031D41
:10172A00902B0130F5007508A4078D2B01300310AA
:10173A00A50DA60DFF3E031D9C2B21082302031DA8
:10174A00A82B20082202031CB12B2008A202210880
:10175A00031CA303A302251401300310A10CA00C3F
:10176A00FF3E031DB22B0130A402031D9B2B26084A
:10177A00A101A1072508A001A007080083120313ED
:10178A0023080319CD2B220821042004031DE02B72
:10179A000030A0000030A1000030A2000800013093
:1017AA00A5002508A30701300310A20CA10CA00C68
:1017BA00FF3E031DD92BFE3022050319FB2BD42B28
:1017CA000130A5002508A3070130A007003003183F
:1017DA000130A107003003180130A20701300310BD
:1017EA00A20CA10CA00CFF3E031DF42BFF30220516
:1017FA0003190A2CE52B0130A30201300310A00DB6
:10180A00A10DA20DFF3E031D032CA11F002C2318BE
:10181A00142CFF30A0057F30A105FF30A20503106C
:10182A00A30C2308A500A601A70110300310A50DDB
:10183A00A60DA70DFF3E031D1B2C2508A004260894
:10184A00A1042708A204240803190800A217080003
:10185A00831203134C08D0004D08D1004E08D20061
:10186A000310510D520DD3005308D900D908031D96
:10187A00472C0030CF000030CE000030CD000030C1
:10188A00CC0008004C08D0004D08D1004E08D20008
:10189A0017300310D20CD10CD00CFF3E031D4E2C76
:1018AA005008D3005308D400CD17FF30CC05FF30C1
:1018BA00CD050030CE054C08D5004D08D6004E089F
:1018CA00D700D8018E30D902D91F892C5908803AFD
:1018DA008F3E0318792C0030CF000030CE00003044
:1018EA00CD000030CC00080001300310D80CD70C12
:1018FA00D60CD50CFF3E031D7A2C0130D0005008BF
:10190A00D9070319A42C792C18305902031CA12CCD
:10191A000030CF000030CE000030CD000030CC00C7
:10192A0008000130D0000310D50DD60DD70DD80D03
:10193A00D00B982C0130D902D908031D962C5408D3
:10194A000319B22CD509D609D709D809D50A03191A
:10195A00D60A0319D70A0319D80A5808CF00570814
:10196A00CE005608CD005508CC0008008312031398
:10197A00A600273084005E0883138000840A5F086B
:10198A008000840A60088000840A61088000840A52
:10199A0062088000831603130611831203130611CB
:1019AA001830A1005F30A000A00BD92CA10BD92CB4
:1019BA008312031306150630A000A00BE22C0000C8
:1019CA008316031306150D3083120313A000A00B10
:1019DA00EC2C83120313061DF42C003008001A3075
:1019EA00A000A00BF62C0000831203130619FF2C8B
:1019FA00003008001A30A000A00B012D000083124D
:101A0A000313AD0105302D020318412DAC01083036
:101A1A002C020318392D061D102D0930A000A00B29
:101A2A00142D172D83120313061D312D0130A0002A
:101A3A002C03FF3A073E013E242D0310A00DFF3E62
:101A4A00031D222D2008A1002D08273E840021080D
:101A5A008313800406192F2D0130A0002008AC073B
:101A6A0008302C02031C102D0130A0002008AD07FD
:101A7A0005302D02031C0B2D27082807A000A10101
:101A8A00A10D29082007A200003003180130210700
:101A9A00A3002A082207A4000030031801302307F4
:101AAA00A5002B082406250403195D2D0030080023
:101ABA002708A000750884002008831380002908DD
:101ACA00A000260884002008800001300800831244
:101ADA0003134208C5004308C6004408C7000310A0
:101AEA00460D470DC8004808CD00CD08031D842DBA
:101AFA000030BF000030C0000030C10008003F08BD
:101B0A00C5004008C6004108C7000310460D470D2E
:101B1A00C8004808CE00CE08031D9A2D0030BF0029
:101B2A000030C0000030C10008000030CA00003098
:101B3A00CB000030CC0089304E07C5004508CD02E5
:101B4A004208C5004308C6004408C7001030031005
:101B5A00C70CC60CC50CFF3E031DAC2D4508C800BA
:101B6A004808CE003F08C5004008C6004108C70023
:101B7A0010300310C70CC60CC50CFF3E031DBE2D4A
:101B8A004508C8004808CE068030C5004508CE057D
:101B9A00C317FF30C205FF30C3050030C405C017A4
:101BAA00FF30BF05FF30C0050030C1051830C50041
:101BBA004508C90001300310CA0DCB0DCC0DFF3EFC
:101BCA00031DE02D41084402031DF12D4008430284
:101BDA00031DF12D3F084202031CFE2D3F08C202DD
:101BEA004008031C400FC3024108031C410AC402F7
:101BFA004A1401300310C20DC30DC40DFF3E031D6C
:101C0A00FF2D0130C902031DDF2D4A08A0004B0831
:101C1A00A1004C08A2004D08C5004508A3004E08C3
:101C2A00C6004608A4000A128A15C32383120313A6
:101C3A002008BF002108C0002208C1000800831242
:101C4A0003132F08B5003008B6003108B700031097
:101C5A00360D370DB8003808B900B908031D3C2EF7
:101C6A000030AF000030B0000030B1000800320888
:101C7A00B5003308B6003408B7000310360D370D27
:101C8A00B8003808BE00BE08031D522E0030AF004F
:101C9A000030B0000030B10008003E087B3EB500BD
:101CAA003508B9072F08B5003008B6003108B70063
:101CBA0010300310B70CB60CB50CFF3E031D5E2E98
:101CCA003508B8003808BE003208B5003308B60037
:101CDA003408B70010300310B70CB60CB50CFF3E31
:101CEA00031D702E3508B8003808BE068030B500CE
:101CFA003508BE05B017B317FF30B205FF30B3057C
:101D0A000030B4050030BA000030BB000030BC001F
:101D1A000730B5003508BD002F1CA12E3208BA07BE
:101D2A00330803110318330A031DBB0734080311D0
:101D3A000318340A031DBC0701300310B10CB00CA0
:101D4A00AF0CFF3E031DA22E01300310B20DB30DDE
:101D5A00B40DFF3E031DAA2E0130BD02031D912EB4
:101D6A000930B5003508BD002F1CC92E3208BA0744
:101D7A00330803110318330A031DBB073408031180
:101D8A000318340A031DBC0701300310B10CB00C50
:101D9A00AF0CFF3E031DCA2E01300310BC0CBB0C56
:101DAA00BA0CFF3E031DD22E0130BD02031DB92E0F
:101DBA003A08A0003B08A1003C08A2003908B50077
:101DCA003508A3003E08B6003608A4000A128A1590
:101DDA00C323831203132008AF002108B00022088E
:101DEA00B1000800831203133F08C5004008C6006B
:101DFA004108C7000310460D470DC8004808CB002C
:101E0A004208C5004308C6004408C7000310460D2F
:101E1A00470DC8004808CA004B080319202F4A0872
:101E2A004B020318272F4B03FF3A4A07C500193004
:101E3A004502031C272F4208BF004308C00044087C
:101E4A00C10008004A08031908004B084A0203188F
:101E5A00362F4A03FF3A4B07C500193045020318CB
:101E6A0008000630C5004508C900C11BC917C41BB4
:101E7A004917C017FF30BF05FF30C0050030C10544
:101E8A00C317FF30C205FF30C3050030C4054A0836
:101E9A004B020318762F01300310C20DC30DC40D77
:101EAA00FF3E031D512F0130CA024A084B0603198F
:101EBA00712F0130C902490807390319712F502FB0
:101ECA0001300310C10CC00CBF0CFF3E031D662F6E
:101EDA000130C5004508CB074B084A0603199F2F56
:101EEA00652F4B084A0203189F2F01300310BF0DBC
:101EFA00C00DC10DFF3E031D7B2F0130CB024A08E6
:101F0A004B0603199B2F0130C902490807390319E7
:101F1A009B2F7A2F01300310C40CC30CC20CFF3E56
:101F2A00031D902F0130C5004508CA074B084A0611
:101F3A00031D8F2FC91FB12FFF30BF06FF30C00608
:101F4A00FF30C1060130BF07003003180130C00757
:101F5A00003003180130C107491FC32FFF30C206E2
:101F6A00FF30C306FF30C4060130C2070030031831
:101F7A000130C307003003180130C407C9013F0804
:101F8A00C207400803110318400A031DC30741088A
:101F9A0003110318410A031DC407C41FE62FFF30AB
:101FAA00C206FF30C306FF30C4060130C207003044
:101FBA0003180130C307003003180130C407C901F0
:101FCA00C90A4208A0004308A1004408A2004B081D
:101FDA00C5004508A3004908C6004608A4000A121D
:101FEA008A15C323831203132008BF002108C000E7
:061FFA002208C1000800EE
:02400E007AFF37
:00000001FF
