:060000000A128A11122809
:10000800FE00030EF8000408F9000A08FA0083123B
:1000180003137F08FB000A168A11D32B0A128A11D0
:100028001528FC01EB01EC01ED01EE01EF01831352
:10003800D7308400ED300A168A1197220A128A11E5
:100048000A168A1182220A128A11E5000A168A11F2
:1000580083220A128A11E6000A168A1184220A12D9
:100068008A11E7000A168A1185220A128A11E80005
:100078000A168A1186220A128A11E9000A168A11BA
:1000880087220A128A11EA000A128A11FC27FD0047
:1000980083010A128A11F72BC03083120313C1009F
:1000A8007F30C2004430C3000030B100A030B2003D
:1000B8004030B3005208A901A9075108A801A807B0
:1000C8000A168A1164230A128A1183120313280854
:1000D800B4002908B5002A08B6000A128A15252492
:1000E8000A128A11831203133108C4003208C500AA
:1000F8003308C6000A128A156D230A128A11831260
:100108000313410883160313A00083120313420844
:1001180083160313A10083120313430883160313E2
:10012800A200003083120313C100A030C200403087
:10013800C30083160313200883120313C400831615
:100148000313210883120313C5008316031322081F
:1001580083120313C6000A128A156D230A128A1124
:1001680083120313410883160313C4008312031375
:10017800420883160313C50083120313430883162A
:100188000313C600440883120313B1008316031334
:10019800450883120313B20083160313460883121B
:1001A8000313B30083160313440883120313B40024
:1001B80083160313450883120313B500831603132C
:1001C800460883120313B6000A128A1525240A1258
:1001D8008A1183120313310883160313B50083129F
:1001E8000313320883160313B6008312031333086C
:1001F80083160313B700440883120313B100831650
:100208000313450883120313B20083160313460829
:1002180083120313B30083160313350883120313E1
:10022800B40083160313360883120313B50083162C
:100238000313370883120313B6000A128A152524FC
:100248000A128A1183120313310883160313B800A4
:1002580083120313320883160313B900831203139E
:10026800330883160313BA00440883120313B1003A
:1002780083160313450883120313B200831603136E
:10028800460883120313B300831603133808831236
:100298000313B40083160313390883120313B5003C
:1002A800831603133A0883120313B6000A128A1539
:1002B80025240A128A1183120313310883160313A3
:1002C800BB0083120313320883160313BC00831286
:1002D8000313330883160313BD0044088312031362
:1002E800B10083160313450883120313B200831663
:1002F8000313460883120313B300831603133B0842
:1003080083120313B400831603133C0883120313E8
:10031800B500831603133D0883120313B6000A12AF
:100328008A1525240A128A118312031331088316A9
:100338000313BE0083120313320883160313BF008E
:1003480083120313330883160313C000440883126F
:100358000313B10083160313450883120313B20075
:1003680083160313460883120313B300831603137B
:100378003E0883120313B400831603133F08831245
:100388000313B50083160313400883120313B60042
:100398000A128A1525240A128A11831203133108B6
:1003A80083160313A300831203133208831603135F
:1003B800A40083120313330883160313A5009C308B
:1003C80083120313B100B230B2003F30B30083167A
:1003D8000313350883120313B40083160313360876
:1003E80083120313B500831603133708831203130C
:1003F800B6000A128A1525240A128A1183120313D9
:100408003108C1003208C2003308C300A930B10066
:10041800DE30B2003C30B300831603134408831265
:100428000313B40083160313450883120313B5009E
:1004380083160313460883120313B6000A128A159B
:1004480025240A128A11831203133108C4003208C2
:10045800C5003308C6000A128A15F8240A128A1140
:1004680083120313410883160313A6008312031390
:10047800420883160313A700831203134308831645
:100488000313A800EE3083120313B100EB30B2005F
:100498003A30B30083160313380883120313B400E9
:1004A80083160313390883120313B5008316031345
:1004B8003A0883120313B6000A128A1525240A1271
:1004C8008A11831203133108C1003208C2003308AD
:1004D800C30083160313260883120313C40083166C
:1004E8000313270883120313C50083160313280870
:1004F80083120313C6000A128A15F8240A128A11F5
:1005080083120313410883160313A90083120313EC
:10051800420883160313AA008312031343088316A1
:100528000313AB00743083120313B1005A30B200C6
:10053800BB30B300831603133B0883120313B400C4
:10054800831603133C0883120313B50083160313A1
:100558003D0883120313B6000A128A1525240A12CD
:100568008A11831203133108C1003208C20033080C
:10057800C30083160313290883120313C4008316C8
:1005880003132A0883120313C500831603132B08C9
:1005980083120313C6000A128A15F8240A128A1154
:1005A80083120313410883160313AC008312031349
:1005B800420883160313AD008312031343088316FE
:1005C8000313AE00103083120313B100FC30B200E5
:1005D800BA30B300831603133E0883120313B40022
:1005E800831603133F0883120313B50083160313FE
:1005F800400883120313B6000A128A1525240A122A
:100608008A11831203133108C1003208C20033086B
:10061800C300831603132C0883120313C400831624
:1006280003132D0883120313C500831603132E0822
:1006380083120313C6000A128A15F8240A128A11B3
:1006480083120313410883160313AF0083120313A5
:10065800420883160313B00083120313430883165A
:100668000313B100A83083120313B1009030B20015
:100678003F30B30083160313230883120313B40017
:1006880083160313240883120313B5008316031378
:10069800250883120313B6000A128A1525240A12A4
:1006A8008A11831203133108C1003208C2003308CB
:1006B800C300831603132F0883120313C400831681
:1006C8000313300883120313C5008316031331087C
:1006D80083120313C6000A128A15F8240A128A1113
:1006E80083120313410883160313B2008312031302
:1006F800420883160313B3008312031343088316B7
:100708000313B400803083120313C100B730C20052
:100718003930C30083160313320883120313C4004D
:1007280083160313330883120313C50083160313B8
:10073800340883120313C6000A128A15F8240A1211
:100748008A1183120313410883160313C10083120D
:100758000313420883160313C200831203134308CA
:1007680083160313C300CA3083120313B100CF30BA
:10077800B2004330B30083160313410883120313F6
:10078800B40083160313420883120313B5008316BB
:100798000313430883120313B6000A128A1525248B
:1007A80083120313310883160313C1008312031342
:1007B800320883160313C200831203133308831607
:1007C8000313C300410883120313D10083160313D4
:1007D800420883120313D2008316031343088312BB
:1007E8000313D30008000A168A11C0220A128A11BC
:1007F8000A168A119F220A128A110A168A118F2252
:100808000A128A110A168A115A250A128A11F02D1B
:1008180083120313A20100300A168A11FA230A125E
:100828008A110A168A11DF260A128A118312031303
:10083800A20102300A168A11FA230A128A110A1230
:100848008A1132260A128A11F02D83120313A2018B
:1008580000300A168A11FA230A128A110A168A1116
:100868001C230A128A1183120313A20101300A16EB
:100878008A11FA230A128A111C3083120313AE005C
:100888009030AF006808DD00DE015D08B0005E084A
:10089800B1006A08DF00E0015F08B2006008B30039
:1008A8006708E100E2016108B4006208B500690860
:1008B800E300E4016308B6006408B700C7300A1211
:1008C8008A1501260A128A11C73083120313A2005F
:1008D8000030A3000A168A1189230A128A11F02D02
:1008E800831603136108003A03190C2C013A031903
:1008F800292CF02DF02D83120313A20100300A16C3
:100908008A11FA230A128A11353083120313A200BE
:100918009030A3000A168A1189230A128A118312B9
:100928000313A20101300A168A11FA230A128A1146
:100938002D2D973083120313A2009030A3000A16BE
:100948008A1189230A128A1183120313A201033020
:100958000A168A11FA230A128A11473083120313DE
:10096800AE009030AF006808DD00DE015D08B00021
:100978005E08B1006A08DF00E0015F08B2006008A5
:10098800B300C7300A128A1501260A128A11C73025
:1009980083120313A2000030A3000A168A118923C8
:1009A8000A128A1183120313A20102300A168A114D
:1009B800FA230A128A110A128A15C1200A128A1108
:1009C800F02DA33083120313A2009030A3000A165F
:1009D8008A1189230A128A1183120313A201033090
:1009E8000A168A11FA230A128A114730831203134E
:1009F800AE009030AF006808DD00DE015D08B00091
:100A08005E08B1006A08DF00E0015F08B200600814
:100A1800B300C7300A128A1501260A128A11C73094
:100A280083120313A2000030A3000A168A11892337
:100A38000A128A1183120313A20102300A168A11BC
:100A4800FA230A128A110A128A1513220A128A1123
:100A5800F02D831603136108003A03199D2C013AFF
:100A68000319E52CF02DF02D83120313A201003099
:100A78000A168A11FA230A128A116830831203139C
:100A8800A2009030A3000A168A1189230A128A113B
:100A980083120313A20101300A168A11FA230A12DB
:100AA8008A11E62DB83083120313A2009030A300F8
:100AB8000A168A1189230A128A1183120313A201C2
:100AC80003300A168A11FA230A128A11883083120F
:100AD8000313AE009030AF006708DD00DE015D084B
:100AE800B0005E08B1006908DF00E0015F08B200ED
:100AF8006008B300C7300A128A1501260A128A1143
:100B0800C73083120313A2000030A3000A168A110B
:100B180089230A128A1183120313A20102300A16CA
:100B28008A11FA230A128A110A128A1518200A123F
:100B38008A11F02DE93083120313A2009030A3002C
:100B48000A168A1189230A128A1183120313A20131
:100B580003300A168A11FA230A128A11883083127E
:100B68000313AE009030AF006708DD00DE015D08BA
:100B7800B0005E08B1006908DF00E0015F08B2005C
:100B88006008B300C7300A128A1501260A128A11B2
:100B9800C73083120313A2000030A3000A168A117B
:100BA80089230A128A1183120313A20102300A163A
:100BB8008A11FA230A128A110A128A156A210A125C
:100BC8008A11F02D831603136108003A0319562D74
:100BD800013A03199E2DF02D8B130B138316031363
:100BE800E208031DFF2DE108031DFF2D0A168A11D7
:100BF800E1240A128A110A168A1140230A128A115C
:100C08000A168A11DF220A128A118B170B170A1685
:100C18008A11FC220A128A110A168A1177240A12EA
:100C28008A110A168A1187260A128A110A168A1147
:100C38004B240A128A110A168A11B2220A128A1140
:100C4800831603136208003A0319742C013A031936
:100C58007F2C033A0319382DF02DF02D831603133A
:100C68005C0883120313CE00831603135D088312F6
:100C78000313CF00831603135E0883120313D000F7
:100C88000A128A115B270A128A11831203134F086A
:100C980083160313B501B507831203134E08831691
:100CA8000313B401B407350883120313A901A90774
:100CB80083160313340883120313A801A8070A161E
:100CC8008A1164230A128A11831203132808AE00BA
:100CD8002908AF002A08B0000A168A11A8220A12A9
:100CE8008A11831203132E08C4002F08C500300888
:100CF800C600831603135C0883120313C10083160E
:100D080003135D0883120313C200831603135E08DE
:100D180083120313C3000A128A15F8240A128A11CF
:100D2800831203134108B4004208B5004308B60013
:100D38000030B100C830B2004230B3000A128A1540
:100D480025240A128A11831203133108CE003208AF
:100D5800CF003308D0000A128A115B270A128A11C1
:100D6800831203134F0883160313B701B7078312BF
:100D780003134E0883160313B601B607A030831277
:100D88000313DC005C0883160313B80012308312C7
:100D98000313AE009130AF008316031338080A120C
:100DA8008A1501260A128A11831203132E08DC0001
:100DB8005C0883160313B807F83083120313AE00D8
:100DC8009030AF0083160313350883120313B10163
:100DD800B10783160313340883120313B001B00755
:100DE8008316031338080A128A1501260A128A1173
:100DF800831203132E08DC005C0883160313B8075C
:100E08002E3083120313DC00831603133808840082
:100E1800831203135C08831380000130DC005C0834
:100E280083160313B8073708803AFF0080307F0223
:100E3800031D202F0A3036020318352F3030831255
:100E48000313DC008316031338088400831203138A
:100E58005C08831380000130DC005C0883160313F0
:100E6800B807E03083120313AE009030AF0083164A
:100E78000313370883120313B101B1078316031351
:100E8800360883120313B001B0078316031338081A
:100E98000A128A1501260A128A11A0308312031336
:100EA800A2000030A3000A168A11892308008312C1
:100EB80003134E08D2004F08D3005008D400031083
:100EC800530D540DD5005508DB00DB08031D752FA5
:100ED8000030D1000030D0000030CF000030CE000C
:100EE80008004E08D2004F08D3005008D40017302D
:100EF8000310D40CD30CD20CFF3E031D7C2F5208D8
:100F0800D5005508D600CF17FF30CE05FF30CF05E6
:100F18000030D0054E08D7004F08D8005008D90037
:100F2800DA018E30DB02DB1FB72F5B08803A8F3E79
:100F38000318A72F0030D1000030D0000030CF00B8
:100F48000030CE00080001300310DA0CD90CD80CA0
:100F5800D70CFF3E031DA82F0130D2005208DB0733
:100F68000319D22FA72F18305B02031CCF2F003094
:100F7800D1000030D0000030CF000030CE00080093
:100F88000130D2000310D70DD80DD90DDA0DD20BD0
:100F9800C62F0130DB02DB08031DC42F56080319D6
:100FA800E02FD709D809D909DA09D70A0319D80AC5
:100FB8000319D90A0319DA0A5A08D1005908D000C6
:100FC8005808CF005708CE00080083120313A10069
:100FD80021088800071487100715F930A0000000C1
:100FE800A00BF32FF72F000083120313071108003B
:020FF800FF34C4
:10100A0083120313A100210888000710871007150F
:10101A00F930A0000000A00B0F281328000083124B
:10102A00031307110800831203130608C8000330CC
:10103A000310C80CFF3E031D1D2848080139C900CA
:10104A004908EC000608C80004300310C80CFF3E2B
:10105A00031D2A2848080F39C9004908EB00413006
:10106A00C900EE30C800C80B3828C90B3828000060
:10107A00831203136C080319B9286B08660603194F
:10108A00B928EB08031D63281830A0000030A1001E
:10109A006708013EA200003003180130A3000A16B7
:1010AA008A11E8250A128A15831203132008C80038
:1010BA004808E700CC30AE0090308C288312031326
:1010CA006B080C3A031D83281830A0000030A100D9
:1010DA006708173EA200003003180130A3000A1661
:1010EA008A11E8250A128A15831203132008C800F8
:1010FA004808E700C230AE0090308C2883120313F0
:10110A006B080D3A031D9A28D630AE009030AF0016
:10111A006708C800C9014808B0004908B100E330AF
:10112A000A128A1501260A128A15E330831203135A
:10113A00A2000030A3000A168A1189230A128A150E
:10114A00831203136B08C8004808E60083120313CE
:10115A00861D08000D30C900FB30C800C80BB32833
:10116A00C90BB328B828AB28EC08031D0800FF30C8
:10117A00C8004808E6000800831203130608C800DE
:10118A0003300310C80CFF3E031DC6284808013966
:10119A00C9004908EC000608C80004300310C80C4E
:1011AA00FF3E031DD32848080F39C9004908EB0040
:1011BA004130C900EE30C800C80BE128C90BE1284C
:1011CA000000831203136C08031962296B08660670
:1011DA0003196229EB08031D0C291830A0000030FE
:1011EA00A1006808013EA200003003180130A300E4
:1011FA000A168A11E8250A128A158312031320088F
:10120A00C8004808E800CC30AE0090303529831277
:10121A0003136B080C3A031D2C291830A000003068
:10122A00A1006808173EA200003003180130A3008D
:10123A000A168A11E8250A128A158312031320084E
:10124A00C8004808E800C230AE0090303529831241
:10125A0003136B080D3A031D4329D630AE009030B4
:10126A00AF006808C800C9014808B0004908B100C1
:10127A00E3300A128A1501260A128A15E33083120C
:10128A000313A2000030A3000A168A1189230A1246
:10129A008A15831203136B08C8004808E6008312F4
:1012AA000313861D08000D30C900FB30C800C80BA7
:1012BA005C29C90B5C2961295429EC08031D080023
:1012CA00FF30C8004808E600080083120313060826
:1012DA00C80003300310C80CFF3E031D6F294808DD
:1012EA000139C9004908EC000608C8000430031097
:1012FA00C80CFF3E031D7C2948080F39C90049085C
:10130A00EB004130C900EE30C800C80B8A29C90B6E
:10131A008A290000831203136C0803190B2A6B082D
:10132A00660603190B2AEB08031DB5293C30A000F9
:10133A000030A1006908053EA20000300318013000
:10134A00A3000A168A11E8250A128A1583120313C2
:10135A002008C8004808E900CC30AE009030DE29E9
:10136A00831203136B080C3A031DD5293C30A000E5
:10137A000030A1006908373EA2000030031801308E
:10138A00A3000A168A11E8250A128A158312031382
:10139A002008C8004808E900C230AE009030DE29B3
:1013AA00831203136B080D3A031DEC29D630AE00E5
:1013BA009030AF006908C800C9014808B000490860
:1013CA00B100E3300A128A1501260A128A15E3309F
:1013DA0083120313A2000030A3000A168A1189237C
:1013EA000A128A15831203136B08C8004808E6001C
:1013FA0083120313861D08000D30C900FB30C80094
:10140A00C80B052AC90B052A0A2AFD29EC08031D5F
:10141A000800FF30C8004808E600080083120313DA
:10142A000608C80003300310C80CFF3E031D182A23
:10143A0048080139C9004908EC000608C800043008
:10144A000310C80CFF3E031D252A48080F39C9009E
:10145A004908EB004130C900EE30C800C80B332AF6
:10146A00C90B332A0000831203136C080319B42A28
:10147A006B0866060319B42AEB08031D5E2A3C3082
:10148A00A0000030A1006A08053EA200003003183F
:10149A000130A3000A168A11E8250A128A15831256
:1014AA0003132008C8004808EA00CC30AE00903088
:1014BA00872A831203136B080C3A031D7E2A3C30D9
:1014CA00A0000030A1006A08373EA20000300318CD
:1014DA000130A3000A168A11E8250A128A15831216
:1014EA0003132008C8004808EA00C230AE00903052
:1014FA00872A831203136B080D3A031D952AD630E7
:10150A00AE009030AF006A08C800C9014808B000B0
:10151A004908B100E3300A128A1501260A128A150F
:10152A00E33083120313A2000030A3000A168A11C3
:10153A0089230A128A15831203136B08C800480804
:10154A00E60083120313861D08000D30C900FB3024
:10155A00C800C80BAE2AC90BAE2AB32AA62AEC08C1
:10156A00031D0800FF30C8004808E600080083127F
:10157A000313A70028308400831603135708831324
:10158A008000840A58088000840A59088000840A66
:10159A005A088000840A5B0880000611831203132C
:1015AA0006111830A2005F30A100A10BDA2AA20BA3
:1015BA00DA2A8312031306150630A100A10BE32AC7
:1015CA0000008316031306150D3083120313A100BE
:1015DA00A10BED2A83120313061DF52A0030080019
:1015EA001A30A100A10BF72A00008312031306196F
:1015FA00002B003008001A30A100A10B022B0000BA
:10160A0083120313AE0105302E020318422BAD01DB
:10161A0008302D0203183A2B061D112B0930A100A0
:10162A00A10B152B182B83120313061D322B013025
:10163A00A1002D03FF3A073E013E252B0310A10D01
:10164A00FF3E031D232B2108A2002E08283E8400FA
:10165A002208831380040619302B0130A1002108C7
:10166A00AD0708302D02031C112B0130A1002108FF
:10167A00AE0705302E02031C0C2B28082907A100EF
:10168A00A201A20D2A082107A30000300318013085
:10169A002207A4002B082307A500003003180130F5
:1016AA002407A6002C082506260403195E2B003001
:1016BA0008002808A100200884002108831380005C
:1016CA002A08A100270884002108800001300800A8
:1016DA00831203134408C7004508C8004608C90016
:1016EA000310480D490DCA004A08CF00CF08031D50
:1016FA00852B0030C1000030C2000030C300080052
:10170A004108C7004208C8004308C9000310480D31
:10171A00490DCA004A08D000D008031D9B2B00308F
:10172A00C1000030C2000030C30008000030CC0005
:10173A000030CD000030CE0089305007C70047087E
:10174A00CF024408C7004508C8004608C90010303F
:10175A000310C90CC80CC70CFF3E031DAD2B47086C
:10176A00CA004A08D0004108C7004208C800430816
:10177A00C90010300310C90CC80CC70CFF3E031D6A
:10178A00BF2B4708CA004A08D0068030C70047085E
:10179A00D005C517FF30C405FF30C5050030C605A2
:1017AA00C217FF30C105FF30C2050030C30518302B
:1017BA00C7004708CB0001300310CC0DCD0DCE0D6C
:1017CA00FF3E031DE12B43084602031DF22B42088C
:1017DA004502031DF22B41084402031CFF2B41085A
:1017EA00C4024208031C420FC5024308031C430AF1
:1017FA00C6024C1401300310C40DC50DC60DFF3EC0
:10180A00031D002C0130CB02031DE02B4C08A00065
:10181A004D08A1004E08A2004F08C7004708A300C0
:10182A005008C8004808A4000A168A11962783128D
:10183A0003132008C1002108C2002208C3000800BF
:10184A00831203133108B7003208B8003308B9000D
:10185A000310380D390DBA003A08BB00BB08031D46
:10186A003D2C0030B1000030B2000030B300080057
:10187A003408B7003508B8003608B9000310380D27
:10188A00390DBA003A08C000C008031D532C0030B5
:10189A00B1000030B2000030B300080040087B3EBF
:1018AA00B7003708BB073108B7003208B800330859
:1018BA00B90010300310B90CB80CB70CFF3E031D69
:1018CA005F2C3708BA003A08C0003408B700350858
:1018DA00B8003608B90010300310B90CB80CB70CB0
:1018EA00FF3E031D712C3708BA003A08C006803043
:1018FA00B7003708C005B217B517FF30B405FF3077
:10190A00B5050030B6050030BC000030BD0000301F
:10191A00BE000730B7003708BF00311CA22C3408BC
:10192A00BC07350803110318350A031DBD0736081D
:10193A0003110318360A031DBE0701300310B30C46
:10194A00B20CB10CFF3E031DA32C01300310B40DE1
:10195A00B50DB60DFF3E031DAB2C0130BF02031DB2
:10196A00922C0930B7003708BF00311CCA2C340842
:10197A00BC07350803110318350A031DBD073608CD
:10198A0003110318360A031DBE0701300310B30CF6
:10199A00B20CB10CFF3E031DCB2C01300310BE0C60
:1019AA00BD0CBC0CFF3E031DD32C0130BF02031D2E
:1019BA00BA2C3C08A0003D08A1003E08A2003B0842
:1019CA00B7003708A3004008B8003808A4000A1670
:1019DA008A119627831203132008B1002108B20046
:1019EA002208B3000800831203134108C700420803
:1019FA00C8004308C9000310480D490DCA004A0827
:101A0A00CD004408C7004508C8004608C9000310AD
:101A1A00480D490DCA004A08CC004D080319212D6A
:101A2A004C084D020318282D4D03FF3A4C07C700F6
:101A3A0019304702031C282D4408C1004508C2007A
:101A4A004608C30008004C08031908004D084C0258
:101A5A000318372D4C03FF3A4D07C70019304702C8
:101A6A00031808000630C7004708CB00C31BCB1772
:101A7A00C61B4B17C217FF30C105FF30C205003025
:101A8A00C305C517FF30C405FF30C5050030C605BC
:101A9A004C084D020318772D01300310C40DC50DF3
:101AAA00C60DFF3E031D522D0130CC024C084D06D7
:101ABA000319722D0130CB024B0807390319722D15
:101ACA00512D01300310C30CC20CC10CFF3E031D83
:101ADA00672D0130C7004708CD074D084C0603198A
:101AEA00A02D662D4D084C020318A02D01300310BD
:101AFA00C10DC20DC30DFF3E031D7C2D0130CD0269
:101B0A004C084D0603199C2D0130CB024B080739AE
:101B1A0003199C2D7B2D01300310C60CC50CC40C77
:101B2A00FF3E031D912D0130C7004708CC074D0821
:101B3A004C06031D902DCB1FB22DFF30C106FF307E
:101B4A00C206FF30C3060130C10700300318013056
:101B5A00C207003003180130C3074B1FC42DFF30E2
:101B6A00C406FF30C506FF30C6060130C407003080
:101B7A0003180130C507003003180130C607CB012E
:101B8A004108C407420803110318420A031DC50786
:101B9A00430803110318430A031DC607C61FE72D8E
:101BAA00FF30C406FF30C506FF30C6060130C40741
:101BBA00003003180130C507003003180130C6078A
:101BCA00CB01CB0A4408A0004508A1004608A200A0
:101BDA004D08C7004708A3004B08C8004808A400DE
:101BEA000A168A119627831203132008C1002108B6
:101BFA00C2002208C300080083120313C700BD01F4
:101C0A00BE013030B8003808BB00831203132F0816
:101C1A00B9002E08B800AE0A0319AF0A3908FF0046
:101C2A00380884000A168A1100200A128A15BA0096
:101C3A003A08C600C6080319F32F4608253A0319BD
:101C4A00382E4608B80047088400380883138000F5
:101C5A000130B8003808C7070130BD070318BE0AAB
:101C6A000030BE070A2EC401C501C301412E431527
:101C7A000130AE070318AF0A2F08FF002E088400B0
:101C8A000A168A1100200A128A15303A03193C2EC4
:101C9A004E2E2F08FF002E0884000A168A110020F3
:101CAA000A128A150A168A11CF220A128A15031CE9
:101CBA00A42E83120313C401C5010A30831203132D
:101CCA00A0000030A1004508A301A3074408A2010F
:101CDA00A2070A168A11AE230A128A15831203135F
:101CEA002108C501C5072008C401C4072F08FF0041
:101CFA002E0884000A168A1100200A128A15D03E7C
:101D0A00B800FF3003180030B9003808C4070318B8
:101D1A00C50A3908C5070130AE070318AF0A2F08EC
:101D2A00FF002E0884000A168A1100200A128A155A
:101D3A000A168A11CF220A128A150318622E8312F2
:101D4A0003132F08B9002E08B800AE0A0319AF0A08
:101D5A003908FF00380884000A168A1100200A127E
:101D6A008A15C600003A0319F32F643A0319C12EE3
:101D7A000D3A0319C12E0A2E831203133B0884005D
:101D8A0083130008BF00840A0008C0000230B800AC
:101D9A003808BB07C01FDA2E0330B8003808C3045E
:101DAA00BF09C009BF0A0319C00AC601C60A460804
:101DBA00053A0319052F4608B8003807123E840071
:101DCA0090300318013EFF000A168A1100200A12F9
:101DDA008A15B9000A168A1100200A128A15BA0051
:101DEA003A084002031DFB2E39083F02031C052F47
:101DFA000130B8003808C6074608053A031DE02E28
:101E0A00450844040319132F430803390319132FF0
:101E1A00FF30C4070318C50AFF30C5074608B800D3
:101E2A00B901B81BB9033908803ABA004508803AA3
:101E3A003A02031D222F440838020318322F831254
:101E4A0003134608B800B901B81BB9033808C4021D
:101E5A003908031CC503C502362F83120313C401B4
:101E6A00C501431D692F4308033903194D2F2D302E
:101E7A00B800470884003808831380000130B8008E
:101E8A003808C7070130BD070318BE0A0030BE076D
:101E9A004508440403199D2F3030B80047088400D0
:101EAA003808831380000130B8003808C7070130AA
:101EBA00BD070318BE0A0030BE07FF30C407031867
:101ECA00C50AFF30C5074D2F450844040319882F5A
:101EDA002030B80047088400380883138000013096
:101EEA00B8003808C7070130BD070318BE0A00301A
:101EFA00BE07FF30C4070318C50AFF30C5074508E7
:101F0A004404031D6D2F4308033903199D2F2D30F7
:101F1A00B800470884003808831380000130B800ED
:101F2A003808C7070130BD070318BE0A0030BE07CC
:101F3A004608B8003808BC00FF30B8003808BC07AB
:101F4A003C08FF3A03190A2E0A30A8000030A900FB
:101F5A003C08B8003807123E840090300318013E4E
:101F6A00FF000A168A1100200A128A15A0000A1612
:101F7A008A1100200A128A15A1004008A301A307AA
:101F8A003F08A201A2070A168A111A250A128A15FF
:101F9A00831203132108AB01AB072008AA01AA0781
:101FAA000A168A11AB240A128A1583120313280807
:101FBA00303EB9003908C6004608B8004708840010
:101FCA003808831380000130B8003808C707013089
:101FDA00BD070318BE0A0030BE07A12F83120313E0
:101FEA0047088400831380013E08AF01AF073D080C
:101FFA00AE01AE070800FF1B0A2883137F18831758
:10200A000008840A0319FF0A08007F087F398A003A
:10201A000408840A0319FF0A8200013400340A34CE
:10202A00003464340034E83403341034273452342E
:10203A0055344E343A34203425343034323464340E
:10204A003A3425343034323464342D34253430343F
:10205A00323464343A34253430343234643400341B
:10206A005334653474342034533443344834453457
:10207A00443420342D3420345334543441345234CB
:10208A0054340034533454344134523454343A348A
:10209A00203425343034323464343A3425343034FC
:1020AA0032346434003449346E34693474346934F3
:1020BA0061346C3469347A3469346E3467342E345A
:1020CA002E342E340034533465347434203453346B
:1020DA00433448344534443420342D342034453490
:1020EA004E3444340034543469346D3465343A34EB
:1020FA00203425343034323464343A34253430349C
:10210A0032346434003445344E3444343A3420345E
:10211A0025343034323464343A3425343034323469
:10212A0064340034533454344134523454342034F3
:10213A0048344F34553452345334003453345434BD
:10214A0041345234543420344D3449344E345334A7
:10215A000034543445344D3450343A342034253420
:10216A0064344334003445344E34443420344834DF
:10217A004F345534523453340034443445344334A0
:10218A003A34203425343034323464340034493417
:10219A004E3443343A3420342534303432346434BF
:1021AA0000345334453454343A34203425343034EA
:1021BA003234643400342534643420347034703456
:1021CA006D3420342034003445344E3444342034C1
:1021DA004D3449344E345334003448344D34443445
:1021EA0054343A3420342534643400345034553469
:1021FA005234463420344834493400345034553447
:10220A005234463420344C344F340034453452343A
:10221A0052344F3452342134003443344F3432343C
:06222A003A3420340034B8
:102504000434FF340A3409341E341E34831603138E
:10251400061183120313061508000B168B1083167D
:10252400031301178B170B17080064008001840A3A
:102534000406031900340406982A80308316031312
:102544009F000130831203139F00080083120313BA
:1025540030082F042E04031908008030B006080048
:102564003330831203136E02031CBE2A1A306F0227
:10257400031CBE2A8711080087150800FF30831644
:1025840003138500FF30860087013830831203135C
:102594008700831603138801080083120313A10024
:1025A400A0013A3021020318DD2A30302102031C35
:1025B400DD2AA001A00A200C0800013083120313B5
:1025C400A0002008ED073C306D02031CF22AED0147
:1025D4000130A0002008E507183065020318E50162
:1025E4008230A100DD30A000A00BF62AA10BF62A50
:1025F400FB2A08007D0883160313620603190800EA
:1026040001300A128A1505200A168A1141308312F4
:102614000313A300EE30A200A20B0E2BA30B0E2B70
:10262400000083160313620883120313A200220816
:10263400FD000800783083120313AE009030AF0021
:102644006508C800C9014808B0004908B1006D0810
:10265400CA00CB014A08B2004B08B3004C300A123E
:102664008A1501260A168A114C3083120313A2001C
:102674000030A3000A168A118923080000300A16C4
:102684008A1122240A168A11831203132108D20103
:10269400D2072008D101D1070A128A1150208312CF
:1026A4000313510883160313DC0083120313520827
:1026B40083160313DD0083120313530883160313D5
:1026C400DE00080083120313AD01A91F702BA809B3
:1026D400A909A80A0319A90AAD01AD0A2808A0008E
:1026E4002908A100A2018E30AB002B08A3002D08FD
:1026F400AC002C08A4000A168A119627831203132F
:102704002008A8002108A9002208AA0008008312B2
:1027140003132308FF00220884000A168A110020EC
:102724000A168A11003803190800831203132308B8
:10273400FF00220884000A168A1100200A168A1152
:102744000A128A11E9270A168A1101308312031327
:10275400A2070318A30A892B83120313A401A5015A
:10276400201CBA2B2208A4070318A50A2308A507CE
:1027740001300310A20DA30DFF3E031DBB2B01303E
:102784000310A10CA00CFF3E031DC22B2108200442
:10279400031DB22B2508A101A1072408A001A0074D
:1027A40008008B1CEE2B8B100330F0000030F1007E
:1027B400831603136208013EF2000030031801304F
:1027C400F3000A168A119B250A168A117008F7006D
:1027D400770883160313E2007B088312FF007A084C
:1027E4008A0079088400780E8300FE0E7E0E0900AC
:1027F40083120313A4000A2C082C4030042C143038
:10280400042C5430A3002308A500182CA501182C6F
:102814002408003A0319FE2B013A0319FF2B033A4B
:102824000319012C013A0319032C082C2208A300D4
:102834002308A507250880380A128A1505200800F0
:1028440083120313A400C330A20022089F052408A6
:10285400A20002300310A20DFF3E031D2C2C031016
:10286400220DA30023089F040630A200A20B382CDB
:102874000000831203131F151F193E2C1E08A1010B
:10288400A107831603131E0883120313A001A007D4
:102894000800003083120313A0001030A10041305F
:1028A400A200831603135C0883120313A300831688
:1028B40003135D0883120313A400831603135E0835
:1028C40083120313A5000A168A1137270A168A11E0
:1028D4000318722C831203138712FC01FC0A0800EC
:1028E400831203138716FC010800031083120313D9
:1028F40086180314003003180130A200A301220833
:10290400A4002308A500013024062504031D9C2CE3
:102914008316031360085F04031D9C2C013083128B
:102924000313A200220883160313E10601300A12DE
:102934008A15052083120313250883160313E00167
:10294400E00783120313240883160313DF01DF0750
:10295400080083120313290828040319DA2CAD0193
:10296400AD0AA91BC12C01300310A80DA90DFF3E0F
:10297400031DB62C0130AC002C08AD07B32C29087C
:102984002B02031DC72C28082A02031CCF2C28085D
:10299400AA022908031CAB03AB0201300310A90CE3
:1029A400A80CFF3E031DD02C0130AD02031DC12C29
:1029B4002B08A901A9072A08A801A80708006E3056
:1029C40083120313D9005908A0006F300A128A1524
:1029D400BC220A168A11003A0319F62C0A168A1127
:1029E400DF260A168A110A2D83120313A20100306E
:1029F4000A168A11FA230A168A110B30831203135A
:102A0400A2009130A3000A168A1189230A168A119A
:102A1400033083120313DB008A30DA005630D90006
:102A2400D90B122DDA0B122DDB0B122D192D0800E8
:102A340083120313A501A601210820040319532DB1
:102A4400A701A70AA11B322D01300310A00DA10D6F
:102A5400FF3E031D272D0130A4002408A707242DC1
:102A640001300310A50DA60DFF3E031D332D2108D3
:102A74002302031D3F2D20082202031C482D200899
:102A8400A2022108031CA303A3022514013003108E
:102A9400A10CA00CFF3E031D492D0130A702031D0C
:102AA400322D2608A101A1072508A001A0070800CE
:102AB4000A168A1137260A168A1103308312031361
:102AC400A8008A30A7005630A600A60B672DA70BD6
:102AD400672DA80B672D6E2D83120313A2010030FE
:102AE4000A168A11FA230A168A115830831203131C
:102AF400A2009030A3000A168A1189230A168A11AB
:102B04000A168A1188220A168A110B3083120313BB
:102B1400A8002630A7006630A600A60B8F2DA70BB1
:102B24008F2DA80B8F2D962D01300A128A150520A2
:102B34000800F601F31FA52DF209F309F20A03199F
:102B4400F30AF601F60AF11FAC2DF009F109F00AB7
:102B54000319F10A710870040319D92DF501F50A56
:102B6400F11BC02D01300310F00DF10DFF3E031DCC
:102B7400B52D0130F4007408F507B22D7108730205
:102B8400031DC62D70087202031CCE2D7008F202BC
:102B94007108031CF303F30201300310F10CF00C71
:102BA400FF3E031DCF2D0130F502031DC02D760815
:102BB4000319E12DF209F309F20A0319F30A730860
:102BC400F101F1077208F001F00708008312031302
:102BD400A601A31FF42DA209A309A20A0319A30A9B
:102BE400A601A60AA11FFB2DA009A109A00A031989
:102BF400A10A210820040319282EA501A50AA11B56
:102C04000F2E01300310A00DA10DFF3E031D042E55
:102C14000130A4002408A507012E21082302031D66
:102C2400152E20082202031C1D2E2008A2022108B2
:102C3400031CA303A30201300310A10CA00CFF3E4C
:102C4400031D1E2E0130A502031D0F2E2608031995
:102C5400302EA209A309A20A0319A30A2308A10179
:102C6400A1072208A001A00708001A308312031349
:102C7400A300F830A200A20B3D2EA30B3D2E0000B2
:102C840030300A128A1505200A168A110730831279
:102C94000313A3007D30A200A20B4E2EA30B4E2ED5
:102CA40030300A128A1505200A168A11423083121E
:102CB4000313A200A20B5C2E000030300A128A1506
:102CC40005200A168A1138300A128A1505200A16B8
:102CD4008A110C300A128A1505200A168A1101304D
:102CE4000A128A1505200A168A1103308312031367
:102CF400A3009730A200A20B7D2EA30B7D2E822E63
:102D040006300A128A150520080083120313650889
:102D14006706031D932E6D086906031D932E07167F
:102D24000800670868020318B32E65086802031CCC
:102D3400A32E65086806031DB12E6A086D02031CE4
:102D4400B12E67086502031CAF2E65086706031DD4
:102D5400B12E69086D020318B12E07120800071678
:102D64000800680867020318D32E65086802031C6C
:102D7400CF2E65086806031DC32E6A086D0203186A
:102D8400CF2E67086502031CCF2E65086706031D56
:102D9400D12E69086D020318D12E071208000716F8
:102DA40008006A086D02031CDD2E69086D02031811
:102DB400DD2E0712080007160800033083120313E0
:102DC400C9009730C800C80BE52EC90BE52EEA2EC2
:102DD40083120313A20100300A168A11FA230A1679
:102DE4008A11AE3083120313AE009030AF006F0827
:102DF400C800C9014808B0004908B1004A300A12A5
:102E04008A1501260A168A114A3083120313A20076
:102E14000030A3000A168A1189230A168A11831224
:102E24000313A20101300A168A11FA230A168A1121
:102E3400F23083120313AE009030AF006E08C80066
:102E4400C9014808B0004908B1004A300A128A157D
:102E540001260A168A114A3083120313A200003095
:102E6400A3000A168A118923080083120313A21FE0
:102E7400602F0030A6000030A7008030A800200991
:102E8400A9002109AA002209AB00A90A0319AA0A68
:102E94000319AB0A2908A6072A0803182A0F532F77
:102EA400542FA7072B0803182B0F592F5A2FA807A5
:102EB4002608A0002708A1002808A200A51F872F24
:102EC4000030A6000030A7008030A8002309A90024
:102ED4002409AA002509AB00A90A0319AA0A03199F
:102EE400AB0A2908A6072A0803182A0F7A2F7B2F72
:102EF400A7072B0803182B0F802F812FA80726085C
:102F0400A3002708A4002808A5008030A20680306A
:102F1400A50625082202031D080024082102031D1A
:102F2400080023082002080083120313230803194E
:102F3400A02F220821042004031DB32F0030A00079
:102F44000030A1000030A20008000130A5002508CF
:102F5400A30701300310A20CA10CA00CFF3E031D1B
:102F6400AC2FFE3022050319CE2FA72F0130A50068
:102F74002508A3070130A007003003180130A1077A
:102F8400003003180130A20701300310A20CA10C79
:102F9400A00CFF3E031DC72FFF3022050319DD2FB0
:102FA400B82F0130A30201300310A00DA10DA20D12
:102FB400FF3E031DD62FA11FD32F2318E72FFF3069
:102FC400A0057F30A105FF30A2050310A30C230840
:102FD400A500A601A70110300310A50DA60DA70D8D
:102FE400FF3E031DEE2F2508A0042608A104270890
:0C2FF400A204240803190800A21708001A
:02400E007AFF37
:00000001FF
