:060000000A128A11122809
:10000800FE00030EF8000408F9000A08FA0083123B
:1000180003137F08FB000A128A155D2B0A128A1146
:100028001528FC01E901EA01EB01EC018316031331
:10003800C701C801831203130A128A11FD270A1285
:100048008A11ED000A128A11FE270A128A11EE009F
:100058000A128A11FF27FD0083010A128A151C2C37
:10006800C03083120313CE007F30CF004430D0005D
:100078000030BE00A030BF004030C0005F08A901BA
:10008800A9075E08A801A8070A128A15EE220A1213
:100098008A11831203132808C1002908C2002A08FC
:1000A800C3000A128A110F270A128A118312031336
:1000B8003E08D1003F08D2004008D3000A128A1532
:1000C8003F260A128A11831203134E08831603135C
:1000D800A000831203134F0883160313A100831291
:1000E8000313500883160313A2000030831203136E
:1000F800CE00A030CF004030D00083160313200874
:1001080083120313D10083160313210883120313E8
:10011800D20083160313220883120313D3000A1292
:100128008A153F260A128A11831203134E08831672
:100138000313C400831203134F0883160313C50067
:1001480083120313500883160313C600440883124E
:100158000313BE0083160313450883120313BF005D
:1001680083160313460883120313C0008316031370
:10017800440883120313C10083160313450883122E
:100188000313C20083160313460883120313C30024
:100198000A128A110F270A128A11831203133E08C2
:1001A80083160313B500831203133F088316031342
:1001B800B60083120313400883160313B7004408DC
:1001C80083120313BE008316031345088312031317
:1001D800BF0083160313460883120313C000831657
:1001E8000313350883120313C1008316031336085B
:1001F80083120313C20083160313370883120313F1
:10020800C3000A128A110F270A128A1183120313D4
:100218003E0883160313B800831203133F0883169E
:100228000313B90083120313400883160313BA009B
:10023800440883120313BE00831603134508831270
:100248000313BF0083160313460883120313C00069
:1002580083160313380883120313C100831603138C
:10026800390883120313C200831603133A08831252
:100278000313C3000A128A110F270A128A11831264
:1002880003133E0883160313BB00831203133F08AE
:1002980083160313BC008312031340088316031349
:1002A800BD00440883120313BE00831603134508D8
:1002B80083120313BF008316031346088312031324
:1002C800C000831603133B0883120313C10083166F
:1002D80003133C0883120313C200831603133D085B
:1002E80083120313C3000A128A110F270A128A11F4
:1002F800831203133E0883160313BE0083120313ED
:100308003F0883160313BF008312031340088316A4
:100318000313C000440883120313BE00831603139B
:10032800450883120313BF0083160313460883127C
:100338000313C000831603133E0883120313C1007E
:10034800831603133F0883120313C2008316031393
:10035800400883120313C3000A128A110F270A12D6
:100368008A11831203133E0883160313A300831212
:1003780003133F0883160313A400831203134008D2
:1003880083160313A5009C3083120313BE00B230FA
:10039800BF003F30C00083160313350883120313D0
:1003A800C10083160313360883120313C200831691
:1003B8000313370883120313C3000A128A110F2785
:1003C8000A128A11831203133E08B1003F08B200D3
:1003D8004008B300A930BE00DE30BF003C30C0008A
:1003E80083160313440883120313C10083160313EF
:1003F800450883120313C2008316031346088312A9
:100408000313C3000A128A110F270A128A118312D2
:1004180003133E08B4003F08B5004008B6000A12AE
:100428008A15F7260A128A118312031331088316D4
:100438000313A60083120313320883160313A700BD
:1004480083120313330883160313A800EE308312B4
:100458000313BE00EB30BF003A30C000831603130D
:10046800380883120313C100831603133908831253
:100478000313C200831603133A0883120313C3003D
:100488000A128A110F270A128A11831203133E08CF
:10049800B1003F08B2004008B300831603132608D2
:1004A80083120313B400831603132708831203135C
:1004B800B50083160313280883120313B6000A1223
:1004C8008A15F7260A128A11831203133108831634
:1004D8000313A90083120313320883160313AA0017
:1004E80083120313330883160313AB00743083128B
:1004F8000313BE005A30BF00BB30C000831603137D
:100508003B0883120313C100831603133C088312AC
:100518000313C200831603133D0883120313C30099
:100528000A128A110F270A128A11831203133E082E
:10053800B1003F08B2004008B3008316031329082E
:1005480083120313B400831603132A0883120313B8
:10055800B500831603132B0883120313B6000A127F
:100568008A15F7260A128A11831203133108831693
:100578000313AC0083120313320883160313AD0070
:1005880083120313330883160313AE00103083124B
:100598000313BE00FC30BF00BA30C000831603133B
:1005A8003E0883120313C100831603133F08831206
:1005B8000313C20083160313400883120313C300F6
:1005C8000A128A110F270A128A11831203133E088E
:1005D800B1003F08B2004008B300831603132C088B
:1005E80083120313B400831603132D088312031315
:1005F800B500831603132E0883120313B6000A12DC
:100608008A15F7260A128A118312031331088316F2
:100618000313AF0083120313320883160313B000C9
:1006280083120313330883160313B100A83083120F
:100638000313BE009030BF003F30C0008316031381
:10064800230883120313C10083160313240883129B
:100658000313C20083160313250883120313C30070
:100668000A128A110F270A128A11831203133E08ED
:10067800B1003F08B2004008B300831603132F08E7
:1006880083120313B4008316031330088312031371
:10069800B50083160313310883120313B6000A1238
:1006A8008A15F7260A128A11831203133108831652
:1006B8000313B20083120313320883160313B30023
:1006C80083120313330883160313B4008030831294
:1006D8000313B100B730B2003930B30083160313E7
:1006E800320883120313B4008316031333088312EA
:1006F8000313B50083160313340883120313B600DB
:100708000A128A15F7260A128A118312031331086E
:1007180083160313C10083120313320883160313CD
:10072800C20083120313330883160313C300CA30AD
:1007380083120313BE00CF30BF004330C0008316BE
:100748000313410883120313C100831603134208DD
:1007580083120313C200831603134308831203137F
:10076800C3000A128A110F27831203133E08831647
:100778000313C100831203133F0883160313C20037
:1007880083120313400883160313C300410883121E
:100798000313DE0083160313420883120313DF00DA
:1007A80083160313430883120313E000080083121F
:1007B8000313BA01BB013130B5003508B800013068
:1007C80083120313B007FF30300784000A128A151A
:1007D8000A200A128A11B5003508C300C308031994
:1007E800B02D4308253A03190B2C2E0884008313D7
:1007F8002F188317430880000130AE070318AF0A8B
:100808000130BA070318BB0A0030BB07E32BC1014C
:10081800C201C001142C40150130B5003508B007DD
:10082800300884000A128A150A200A128A11303AFE
:1008380003190F2C1F2C300884000A128A150A206D
:100848000A128A110A128A1574220A128A11031CC2
:100858006F2C83120313C101C2010A3083120313E0
:10086800A0000030A1004208A301A3074108A2018B
:10087800A2070A128A1513230A128A118312031374
:100888002108C201C2072008C101C107300884003D
:100898000A128A150A200A128A11D03EB500FF30C2
:1008A80003180030B6003508C1070318C20A360815
:1008B800C2070130B5003508B007300884000A12B5
:1008C8008A150A200A128A110A128A1574220A1233
:1008D8008A110318312C013083120313B007FF303B
:1008E800300784000A128A150A200A128A11C300E6
:1008F800003A0319B02D643A0319862C0D3A0319EE
:10090800862CE32B83120313380884008313000812
:10091800BC00840A0008BD000230B5003508B807DD
:10092800BD1F9F2C0330B5003508C004BC09BD09A4
:10093800BC0A0319BD0AC301C30A4308053A0319CF
:10094800C62C4308B5003507013E84000A128A15F3
:100958000A200A128A11B6000A128A150A200A12F7
:100968008A11B70037083D02031DBC2C36083C022B
:10097800031CC62C0130B5003508C3074308053AE7
:10098800031DA52C420841040319D42C400803393F
:100998000319D42CFF30C1070318C20AFF30C2075D
:1009A8004308B500B601B51BB6033608803AB70050
:1009B8004208803A3702031DE32C41083502031828
:1009C800F32C831203134308B500B601B51BB60315
:1009D8003508C1023608031CC203C202F72C831271
:1009E8000313C101C201401D2A2D40080339031910
:1009F8000E2D2E08840083132F1883172D308000A6
:100A08000130AE070318AF0A0130BA070318BB0A52
:100A18000030BB074208410403195E2D2E088400EC
:100A280083132F188317303080000130AE07031866
:100A3800AF0A0130BA070318BB0A0030BB07FF3002
:100A4800C1070318C20AFF30C2070E2D420841042D
:100A58000319492D2E08840083132F18831720307B
:100A680080000130AE070318AF0A0130BA07031837
:100A7800BB0A0030BB07FF30C1070318C20AFF30AA
:100A8800C20742084104031D2E2D400803390319EB
:100A98005E2D2E08840083132F1883172D308000B5
:100AA8000130AE070318AF0A0130BA070318BB0AB2
:100AB8000030BB074308B5003508B900FF30B50062
:100AC8003508B9073908FF3A0319E32B0A30A8009B
:100AD8000030A9003908B5003507013E84000A1224
:100AE8008A150A200A128A11A0000A128A150A20F9
:100AF8000A128A11A1003D08A301A3073C08A2011C
:100B0800A2070A128A1554240A128A11831203139F
:100B18002108AB01AB072008AA01AA070A128A1507
:100B2800AE230A128A11831203132808303EB60036
:100B38003608C3002E08840083132F188317430830
:100B480080000130AE070318AF0A0130BA07031856
:100B5800BB0A0030BB07622D831203132E088400E2
:100B680083172F1C831380013B08AF01AF073A0896
:100B7800AE01AE0708000A128A11E2270A128A118A
:100B8800831203132108DF01DF072008DE01DE07D7
:100B98000A128A1134200A128A11831203135E087A
:100BA80083160317C200831203135F088316031703
:100BB800C30083120313600883160317C400420896
:100BC80083120313CE0083160317430883120313FB
:100BD800CF0083160317440883120313D0000A12A8
:100BE8008A15B1250A128A11831203134F08831636
:100BF8000317C601C607831203134E08831603178B
:100C0800C501C507460883120313A901A90783165E
:100C18000317450883120313A801A8070A128A15A7
:100C2800EE220A128A11831203132808AE0029083B
:100C3800AF002A08B0000A128A156A220A128A111D
:100C4800831203132E08B4002F08B5003008B6002D
:100C580083160317420883120313B1008316031780
:100C6800430883120313B200831603174408831240
:100C78000313B3000A128A15F7260A128A1183127F
:100C880003133108C1003208C2003308C300003022
:100C9800BE00C830BF004230C0000A128A110F27B8
:100CA8000A128A11831203133E08CE003F08CF00B0
:100CB8004008D0000A128A15B1250A128A11831237
:100CC80003134F0883160317C801C80783120313B9
:100CD8004E0883160317C701C70790308312031302
:100CE800E100610883160317C9004908831203133A
:100CF800AE000130AF005930E1006108B0000A12BF
:100D08008A11DB230A128A11831203132E08E200C8
:100D1800620883160317C907490883120313AE0034
:100D28000130AF005F30E1006108B000831603179F
:100D3800460883120313B201B20783160317450846
:100D480083120313B101B1070A128A11DB230A12B5
:100D58008A11831203132E08E20062088316031710
:100D6800C9072E3083120313E100831603174908BD
:100D78008400831203136108831780000130E100A7
:100D8800610883160317C9074808803AFF008030B6
:100D98007F02031DD12E0A3047020318E62E303099
:100DA80083120313E1008316031749088400831292
:100DB80003136108831780000130E100610883167E
:100DC8000317C90783160317490883120313AE00D4
:100DD8000130AF005030E1006108B00083160317FE
:100DE800480883120313B201B20783160317470892
:100DF80083120313B101B1070A128A11DB230A1205
:100E08008A11903083120313A2000130A3000A1242
:100E18008A1583230800831203133E08C4003F0881
:100E2800C5004008C6000310450D460DC700470819
:100E3800C800C808031D272F0030BE000030BF00BF
:100E48000030C00008004108C4004208C50043083B
:100E5800C6000310450D460DC7004708CD00CD0854
:100E6800031D3D2F0030BE000030BF000030C00021
:100E780008004D087B3EC4004408C8073E08C4006B
:100E88003F08C5004008C60010300310C60CC50C4A
:100E9800C40CFF3E031D492F4408C7004708CD0076
:100EA8004108C4004208C5004308C60010300310BA
:100EB800C60CC50CC40CFF3E031D5B2F4408C700BD
:100EC8004708CD068030C4004408CD05BF17C217B7
:100ED800FF30C105FF30C2050030C3050030C9002E
:100EE8000030CA000030CB000730C4004408CC00F2
:100EF8003E1C8C2F4108C907420803110318420AF7
:100F0800031DCA07430803110318430A031DCB072F
:100F180001300310C00CBF0CBE0CFF3E031D8D2F0B
:100F280001300310C10DC20DC30DFF3E031D952FE7
:100F38000130CC02031D7C2F0930C4004408CC00CA
:100F48003E1CB42F4108C907420803110318420A7E
:100F5800031DCA07430803110318430A031DCB07DF
:100F680001300310C00CBF0CBE0CFF3E031DB52F93
:100F780001300310CB0CCA0CC90CFF3E031DBD2F5A
:100F88000130CC02031DA42F4908A0004A08A10083
:100F98004B08A2004808C4004408A3004D08C50037
:100FA8004508A4000A128A1547258312031320084E
:100FB800BE002108BF002208C0000800823083124A
:100FC8000313A300DD30A200A20BE82FA30BE82F28
:100FD800ED2F831203131F151F19F02F1E08A101EF
:100FE800A107831603131E0883120313A001A00789
:100FF800080008340034FF34FF1B0A2883137F18C5
:1010080083170008840A0319FF0A080008308A00B9
:101018000408840A82070034013400340A34003496
:1010280064340034E8340334103427344D344F34F6
:10103800443445343A342034533445345434203419
:1010480041344334543449345634453420344834D4
:10105800523453340034543469346D3465343A347A
:10106800203425343034323464343A34253430343E
:1010780032346434203420342034203400344D3465
:101088004F34443445343A342034443449345334A6
:1010980050342034533454344134543453340034A9
:1010A8004134443443343A342034253464342034CD
:1010B80020342034003425346434203470347034BF
:1010C8006D3420342034003443344F3432343A34CD
:0A10D8002034003425346434003461
:1014B4008B170B168B10831603130113080080304F
:1014C400831603139F000130831203139F00080047
:1014D4008312031330082F042E04031908008030EC
:1014E400B006080083120313A100A0013A302102C0
:1014F4000318822A30302102031C822AA001A00A88
:10150400200C080083120313A1002108880007108F
:1015140087100715F930A0000000A00B8E2A922A2C
:101524000000831203130711080083120313A100A0
:1015340021088800071487100715F930A00000005F
:10154400A00BA12AA52A0000831203130711080087
:101554007D087C060319080001300A128A158422CA
:101564000A128A15413083120313A300EE30A2003D
:10157400A20BBA2AA30BBA2A000080300A128A15D9
:1015840084227C0883120313A2002208FD000800B1
:1015940038300A128A1584220A128A1510308312EE
:1015A4000313A200A20BD42A00000C300A128A15DD
:1015B40084220A128A1501300A128A1584220A1218
:1015C4008A1506300A128A1584220A128A150F30E7
:1015D4000A128A158422080083120313AD01A91F7D
:1015E400FA2AA809A909A80A0319A90AAD01AD0A8A
:1015F4002808A0002908A100A2018E30AB002B0806
:10160400A3002D08AC002C08A4000A128A15472553
:10161400831203132008A8002108A9002208AA00A5
:10162400080083120313A401A501201C1F2B220808
:10163400A4070318A50A2308A50701300310A20D67
:10164400A30DFF3E031D202B01300310A10CA00CA1
:10165400FF3E031D272B21082004031D172B2508FB
:10166400A101A1072408A001A007080045308312A6
:101674000313AE000030AF002030C4004408B000B3
:101684006E08B201B2076D08B101B1076C08B4016C
:10169400B4076B08B301B3070A128A11DB230A12D9
:1016A4008A15453083120313A2000030A3000A12E6
:1016B4008A15832308008B138B1C752B8B10033026
:1016C400F0000030F1007C08013EF2000030031805
:1016D4000130F3000A128A1594240A128A1570083C
:1016E400F7007708FC008B177B0883120313FF00B5
:1016F4007A088A0079088400780E8300FE0E7E0E34
:1017040009000C300A128A1584220A128A158312DF
:1017140003132308FF00220884000A128A150020FC
:101724000A128A15003803190800831203132308C8
:10173400FF00220884000A128A1500200A128A1562
:101744000A128A1597220A128A150130831203138A
:10175400A2070318A30A892B831203132908280458
:101764000319DD2BAD01AD0AA91BC42B01300310F5
:10177400A80DA90DFF3E031DB92B0130AC002C08A8
:10178400AD07B62B29082B02031DCA2B28082A02F1
:10179400031CD22B2808AA022908031CAB03AB02A2
:1017A40001300310A90CA80CFF3E031DD32B0130FC
:1017B400AD02031DC42B2B08A901A9072A08A801FF
:1017C400A8070800013083120313EB070318EC0A7F
:1017D4000030EC076C08803AFF0080307F02031D64
:1017E400F52B3C306B02031C080083120313EB013E
:1017F400EC010130ED070318EE0A0030EE076E0825
:10180400803AFF0080307F02031D0A2C18306D02DD
:10181400031C102C83120313ED01EE0141308312DB
:101824000313A100EE30A000A00B162CA10B162C64
:1018340000000800FF308316031385000330860080
:1018440087018801C03081000A128A1561220A12B8
:101854008A150A128A15CA220A128A150A128A15C8
:101864005A220A128A15023083120313E800453003
:10187400E700A930E600E60B3D2CE70B3D2CE80B16
:101884003D2C442C0A128A15AA220A128A150A121D
:101894008A15E4230A128A150A128A15E1240A1207
:1018A4008A15442C83120313A501A60121082004E0
:1018B40003198D2CA701A70AA11B6C2C013003105E
:1018C400A00DA10DFF3E031D612C0130A4002408CE
:1018D400A7075E2C01300310A50DA60DFF3E031DC6
:1018E4006D2C21082302031D792C20082202031CDD
:1018F400822C2008A2022108031CA303A30225149E
:1019040001300310A10CA00CFF3E031D832C0130F9
:10191400A702031D6C2C2608A101A1072508A0011C
:10192400A0070800F601F31F9E2CF209F309F20A3E
:101934000319F30AF601F60AF11FA52CF009F109BF
:10194400F00A0319F10A710870040319D22CF50185
:10195400F50AF11BB92C01300310F00DF10DFF3E17
:10196400031DAE2C0130F4007408F507AB2C71088C
:101974007302031DBF2C70087202031CC72C70086D
:10198400F2027108031CF303F30201300310F10C9B
:10199400F00CFF3E031DC82C0130F502031DB92CC9
:1019A40076080319DA2CF209F309F20A0319F30A87
:1019B4007308F101F1077208F001F00708004130E3
:1019C40083120313E400EE30E300E30BE72CE40B93
:1019D400E72C000080300A128A1584220A128A1524
:1019E4000C300A128A1584220A128A15FC08031D77
:1019F4001D2D343083120313A2008030A3000A1279
:101A04008A1583230A128A15C0300A128A15842281
:101A14000A128A150A128A11BF250A128A159430ED
:101A24000A128A1584220A128A150A128A15382380
:101A34000A128A15372D7C08013A031D372D0B3005
:101A440083120313A2008030A3000A128A15832391
:101A54000A128A15C0300A128A1584220A128A15BB
:101A64000A128A11BF250A128A150330831203133E
:101A7400E5008A30E4005630E300E30B3F2DE40B2D
:101A84003F2DE50B3F2D462D080083120313230839
:101A94000319512D220821042004031D642D003054
:101AA400A0000030A1000030A20008000130A50011
:101AB4002508A30701300310A20CA10CA00CFF3EC3
:101AC400031D5D2DFE30220503197F2D582D013095
:101AD400A5002508A3070130A00700300318013032
:101AE400A107003003180130A20701300310A20C33
:101AF400A10CA00CFF3E031D782DFF302205031915
:101B04008E2D692D0130A30201300310A00DA10D0B
:101B1400A20DFF3E031D872DA11F842D2318982D90
:101B2400FF30A0057F30A105FF30A2050310A30CF0
:101B34002308A500A601A70110300310A50DA60DCA
:101B4400A70DFF3E031D9F2D2508A0042608A10410
:101B54002708A204240803190800A2170800831206
:101B640003134E08D2004F08D3005008D4000310CA
:101B7400530D540DD5005508DB00DB08031DCB2D98
:101B84000030D1000030D0000030CF000030CE0053
:101B940008004E08D2004F08D3005008D400173074
:101BA4000310D40CD30CD20CFF3E031DD22D5208CB
:101BB400D5005508D600CF17FF30CE05FF30CF052E
:101BC4000030D0054E08D7004F08D8005008D9007F
:101BD400DA018E30DB02DB1F0D2E5B08803A8F3E6C
:101BE4000318FD2D0030D1000030D0000030CF00AC
:101BF4000030CE00080001300310DA0CD90CD80CE8
:101C0400D70CFF3E031DFE2D0130D2005208DB0726
:101C14000319282EFD2D18305B02031C252E0030DD
:101C2400D1000030D0000030CF000030CE000800DA
:101C34000130D2000310D70DD80DD90DDA0DD20B17
:101C44001C2E0130DB02DB08031D1A2E5608031973
:101C5400362ED709D809D909DA09D70A0319D80AB7
:101C64000319D90A0319DA0A5A08D1005908D0000D
:101C74005808CF005708CE000800831203135108F8
:101C8400D4005208D5005308D6000310550D560D44
:101C9400D7005708DC00DC08031D572E0030CE00A7
:101CA4000030CF000030D00008004E08D4004F08A8
:101CB400D5005008D6000310550D560DD70057080F
:101CC400DD00DD08031D6D2E0030CE000030CF0096
:101CD4000030D00008000030D9000030DA000030B5
:101CE400DB0089305D07D4005408DC025108D400BD
:101CF4005208D5005308D60010300310D60CD50C6A
:101D0400D40CFF3E031D7F2E5408D7005708DD0076
:101D14004E08D4004F08D5005008D60010300310E8
:101D2400D60CD50CD40CFF3E031D912E5408D700BD
:101D34005708DD068030D4005408DD05D217FF3083
:101D4400D105FF30D2050030D305CF17FF30CE05C3
:101D5400FF30CF050030D0051830D4005408D80027
:101D640001300310D90DDA0DDB0DFF3E031DB32E38
:101D740050085302031DC42E4F085202031DC42EE3
:101D84004E085102031CD12E4E08D1024F08031CE9
:101D94004F0FD2025008031C500AD30259140130C9
:101DA4000310D10DD20DD30DFF3E031DD22E0130F1
:101DB400D802031DB22E5908A0005A08A1005B08DE
:101DC400A2005C08D4005408A3005D08D50055089F
:101DD400A4000A128A154725831203132008CE0093
:101DE4002108CF002208D000080083120313310811
:101DF400B7003208B8003308B9000310380D390DA4
:101E0400BA003A08BD003408B7003508B8003608EF
:101E1400B9000310380D390DBA003A08BC003D086A
:101E24000319202F3C083D020318272F3D03FF3AD6
:101E34003C07B70019303702031C272F3408B100C0
:101E44003508B2003608B30008003C08031908003E
:101E54003D083C020318362F3C03FF3A3D07B70008
:101E640019303702031808000630B7003708BB00E2
:101E7400B31BBB17B61B3B17B217FF30B105FF30BE
:101E8400B2050030B305B517FF30B405FF30B50512
:101E94000030B6053C083D020318762F01300310CC
:101EA400B40DB50DB60DFF3E031D512F0130BC021C
:101EB4003C083D060319712F0130BB023B0807396A
:101EC4000319712F502F01300310B30CB20CB10C55
:101ED400FF3E031D662F0130B7003708BD073D08DC
:101EE4003C0603199F2F652F3D083C0203189F2FC2
:101EF40001300310B10DB20DB30DFF3E031D7B2F56
:101F04000130BD023C083D0603199B2F0130BB0282
:101F14003B08073903199B2F7A2F01300310B60CA5
:101F2400B50CB40CFF3E031D902F0130B7003708E9
:101F3400BC073D083C06031D8F2FBB1FB12FFF308C
:101F4400B106FF30B206FF30B3060130B1070030EE
:101F540003180130B207003003180130B3073B1FE8
:101F6400C32FFF30B406FF30B506FF30B60601308C
:101F7400B407003003180130B507003003180130EE
:101F8400B607BB013108B407320803110318320A3B
:101F9400031DB507330803110318330A031DB607DD
:101FA400B61FE62FFF30B406FF30B506FF30B60685
:101FB4000130B407003003180130B50700300318AE
:101FC4000130B607BB01BB0A3408A0003508A100E4
:101FD4003608A2003D08B7003708A3003B08B80044
:101FE4003808A4000A128A1547258312031320080F
:0C1FF400B1002108B2002208B300080070
:02400E007AFF37
:00000001FF
