:060000000A128A11122809
:10000800FE00030EF1000408F2000A08F300831250
:1000180003137F08F4000A128A150D2A0A128A119E
:100028001528F501F601F701EC01ED01EE01EF01EC
:1000380083160313CA01CB01831203130A128A150C
:10004800B8210A128A11E7000A128A15B9210A1280
:100058008A11E8000A128A15BA210A128A11E900DF
:100068000A128A15BB210A128A11EA000A128A1595
:10007800BC210A128A11EB000A128A15B6210A124B
:100088008A11F8000A128A15B721F90083010A12A9
:100098008A15082CC03083120313CE007F30CF009E
:1000A8004430D0000030BE00A030BF004030C00057
:1000B8005F08A901A9075E08A801A8070A128A15FE
:1000C80060220A128A11831203132808C100290822
:1000D800C2002A08C3000A128A1109270A128A11C3
:1000E800831203133E08D1003F08D2004008D30012
:1000F8000A128A153F260A128A11831203134E0820
:1001080083160313A000831203134F0883160313E7
:10011800A10083120313500883160313A2000030B2
:1001280083120313CE00A030CF004030D0008316D6
:100138000313200883120313D10083160313210825
:1001480083120313D20083160313220883120313A6
:10015800D3000A128A153F260A128A118312031342
:100168004E0883160313C400831203134F08831623
:100178000313C50083120313500883160313C60024
:10018800440883120313BE00831603134508831221
:100198000313BF0083160313460883120313C0001A
:1001A80083160313440883120313C1008316031331
:1001B800450883120313C2008316031346088312EB
:1001C8000313C3000A128A1109270A128A1183121B
:1001D80003133E0883160313B500831203133F0865
:1001E80083160313B6008312031340088316031300
:1001F800B700440883120313BE008316031345088F
:1002080083120313BF0083160313460883120313D4
:10021800C00083160313350883120313C100831625
:100228000313360883120313C20083160313370817
:1002380083120313C3000A128A1109270A128A11AA
:10024800831203133E0883160313B80083120313A3
:100258003F0883160313B90083120313400883165B
:100268000313BA00440883120313BE008316031352
:10027800450883120313BF0083160313460883122D
:100288000313C00083160313380883120313C10035
:1002980083160313390883120313C200831603134A
:1002A8003A0883120313C3000A128A1109270A1293
:1002B8008A11831203133E0883160313BB008312AB
:1002C80003133F0883160313BC008312031340086B
:1002D80083160313BD00440883120313BE0083165C
:1002E8000313450883120313BF008316031346083C
:1002F80083120313C000831603133B0883120313EE
:10030800C100831603133C0883120313C20083162B
:1003180003133D0883120313C3000A128A11092725
:100328000A128A11831203133E0883160313BE00B0
:10033800831203133F0883160313BF0083120313AA
:10034800400883160313C000440883120313BE0039
:1003580083160313450883120313BF008316031380
:10036800460883120313C000831603133E08831242
:100378000313C100831603133F0883120313C2003B
:1003880083160313400883120313C3000A128A1149
:1003980009270A128A11831203133E0883160313CE
:1003A800A300831203133F0883160313A4008312C8
:1003B8000313400883160313A5009C30831203130C
:1003C800BE00B230BF003F30C000831603133508AB
:1003D80083120313C1008316031336088312031311
:1003E800C20083160313370883120313C3000A12CB
:1003F8008A1109270A128A11831203133E08B100D1
:100408003F08B2004008B300A930BE00DE30BF008C
:100418003C30C00083160313440883120313C10041
:1004280083160313450883120313C20083160313AC
:10043800460883120313C3000A128A1109270A12F5
:100448008A11831203133E08B4003F08B500400820
:10045800B6000A128A15F7260A128A1183120313A4
:10046800310883160313A600831203133208831678
:100478000313A70083120313330883160313A8007A
:10048800EE3083120313BE00EB30BF003A30C000D9
:1004980083160313380883120313C100831603134A
:1004A800390883120313C200831603133A08831210
:1004B8000313C3000A128A1109270A128A11831228
:1004C80003133E08B1003F08B2004008B30083168A
:1004D8000313260883120313B40083160313270893
:1004E80083120313B500831603132808831203131A
:1004F800B6000A128A15F7260A128A118312031304
:10050800310883160313A9008312031332088316D4
:100518000313AA0083120313330883160313AB00D3
:10052800743083120313BE005A30BF00BB30C000C2
:10053800831603133B0883120313C10083160313A6
:100548003C0883120313C200831603133D08831269
:100558000313C3000A128A1109270A128A11831287
:1005680003133E08B1003F08B2004008B3008316E9
:100578000313290883120313B400831603132A08EC
:1005880083120313B500831603132B088312031376
:10059800B6000A128A15F7260A128A118312031363
:1005A800310883160313AC00831203133208831631
:1005B8000313AD0083120313330883160313AE002D
:1005C800103083120313BE00FC30BF00BA30C000E5
:1005D800831603133E0883120313C1008316031303
:1005E8003F0883120313C2008316031340088312C3
:1005F8000313C3000A128A1109270A128A118312E7
:1006080003133E08B1003F08B2004008B300831648
:1006180003132C0883120313B400831603132D0845
:1006280083120313B500831603132E0883120313D2
:10063800B6000A128A15F7260A128A1183120313C2
:10064800310883160313AF0083120313320883168D
:100658000313B00083120313330883160313B10086
:10066800A83083120313BE009030BF003F30C00093
:1006780083160313230883120313C100831603137D
:10068800240883120313C200831603132508831258
:100698000313C3000A128A1109270A128A11831246
:1006A80003133E08B1003F08B2004008B3008316A8
:1006B80003132F0883120313B4008316031330089F
:1006C80083120313B500831603133108831203132F
:1006D800B6000A128A15F7260A128A118312031322
:1006E800310883160313B2008312031332088316EA
:1006F8000313B30083120313330883160313B400E0
:10070800803083120313B100B730B2003930B30020
:1007180083160313320883120313B40083160313DA
:10072800330883120313B5008316031334088312A6
:100738000313B6000A128A15F7260A128A118312C1
:100748000313310883160313C100831203133208FD
:1007580083160313C200831203133308831603138B
:10076800C300CA3083120313BE00CF30BF0043302A
:10077800C00083160313410883120313C1008316B4
:100788000313420883120313C2008316031343089A
:1007980083120313C3000A128A1109278312031351
:1007A8003E0883160313C100831203133F08831600
:1007B8000313C20083120313400883160313C300F4
:1007C800410883120313DE008316031342088312C1
:1007D8000313DF0083160313430883120313E00097
:1007E800080083120313BA01BB013130B500350884
:1007F800B800013083120313B007FF3030078400BC
:100808000A128A150A200A128A11B5003508C3008F
:10081800C3080319CA2D4308253A0319252C2E08A5
:10082800840083132F188317430880000130AE0714
:100838000318AF0A0130BA070318BB0A0030BB0718
:10084800FD2BC101C201C0012E2C40150130B5009D
:100858003508B007300884000A128A150A200A12DF
:100868008A11303A0319292C392C300884000A12CD
:100878008A150A200A128A110A128A15D7210A1221
:100888008A11031C892C83120313C101C2010A3087
:1008980083120313A0000030A1004208A301A3079C
:1008A8004108A201A2070A128A1585220A128A1192
:1008B800831203132108C201C2072008C101C1071E
:1008C800300884000A128A150A200A128A11D03EBA
:1008D800B500FF3003180030B6003508C10703180B
:1008E800C20A3608C2070130B5003508B00730081B
:1008F80084000A128A150A200A128A110A128A1515
:10090800D7210A128A1103184B2C013083120313C2
:10091800B007FF30300784000A128A150A200A122D
:100928008A11C300003A0319CA2D643A0319A02C8E
:100938000D3A0319A02CFD2B8312031338088400E9
:1009480083130008BC00840A0008BD000230B5000B
:100958003508B807BD1FB92C0330B5003508C004E9
:10096800BC09BD09BC0A0319BD0AC301C30A43086F
:10097800053A0319E02C4308B5003507013E840009
:100988000A128A150A200A128A11B6000A128A1552
:100998000A200A128A11B70037083D02031DD62C17
:1009A80036083C02031CE02C0130B5003508C307AB
:1009B8004308053A031DBF2C420841040319EE2CD5
:1009C800400803390319EE2CFF30C1070318C20A87
:1009D800FF30C2074308B500B601B51BB603360899
:1009E800803AB7004208803A3702031DFD2C4108BF
:1009F800350203180D2D831203134308B500B60101
:100A0800B51BB6033508C1023608031CC203C2026F
:100A1800112D83120313C101C201401D442D40084A
:100A280003390319282D2E08840083132F188317E0
:100A38002D3080000130AE070318AF0A0130BA0725
:100A48000318BB0A0030BB07420841040319782D7C
:100A58002E08840083132F1883173030800001304C
:100A6800AE070318AF0A0130BA070318BB0A0030F3
:100A7800BB07FF30C1070318C20AFF30C207282D81
:100A8800420841040319632D2E08840083132F188C
:100A98008317203080000130AE070318AF0A0130F9
:100AA800BA070318BB0A0030BB07FF30C107031899
:100AB800C20AFF30C20742084104031D482D4008FE
:100AC80003390319782D2E08840083132F188317F0
:100AD8002D3080000130AE070318AF0A0130BA0785
:100AE8000318BB0A0030BB074308B5003508B90036
:100AF800FF30B5003508B9073908FF3A0319FD2B4F
:100B08000A30A8000030A9003908B5003507013EB1
:100B180084000A128A150A200A128A11A0000A12F1
:100B28008A150A200A128A11A1003D08A301A30709
:100B38003C08A201A2070A128A15C8230A128A11C0
:100B4800831203132108AB01AB072008AA01AA07E7
:100B58000A128A151F230A128A11831203132808FE
:100B6800303EB6003608C3002E08840083132F18C1
:100B78008317430880000130AE070318AF0A01301D
:100B8800BA070318BB0A0030BB077C2D8312031376
:100B98002E08840083172F1C831380013B08AF01A4
:100BA800AF073A08AE01AE0708000A128A152322D9
:100BB8000A128A11831203132108DF01DF072008B4
:100BC800DE01DE070A128A114E200A128A118312E8
:100BD80003135E08F5005F08F6006008F700750863
:100BE800CE007608CF007708D0000A128A15B12502
:100BF8000A128A11831203134F0883160317C301BD
:100C0800C307831203134E0883160317C201C207D2
:100C1800430883120313A901A9078316031742087F
:100C280083120313A801A8070A128A1560220A1260
:100C38008A11831203132808AE002908AF002A0876
:100C4800B0000A128A15CD210A128A1183120313E1
:100C58002E08B4002F08B5003008B6007508B1009A
:100C68007608B2007708B3000A128A15F7260A1226
:100C78008A11831203133108C1003208C2003308F5
:100C8800C3000030BE00C830BF004230C0000A12A6
:100C98008A1109270A128A11831203133E08CE000B
:100CA8003F08CF004008D0000A128A15B1250A1261
:100CB8008A11831203134F0883160317C501C5074A
:100CC800831203134E0883160317C401C407903018
:100CD80083120313E100610883160317C600460850
:100CE80083120313AE000130AF009E30E1006108AB
:100CF800B0000A128A11F5230A128A11831203130B
:100D08002E08E200620883160317C60746088312F6
:100D18000313AE000130AF00A430E1006108B00059
:100D280083160317430883120313B201B20783160D
:100D38000317420883120313B101B1070A128A117B
:100D4800F5230A128A11831203132E08E20062089F
:100D580083160317C6072E3083120313E100831688
:100D68000317460884008312031361088317800061
:100D78000130E100610883160317C6074508803A69
:100D8800FF0080307F02031DCB2E0A304402031877
:100D9800E02E303083120313E10083160317460850
:100DA8008400831203136108831780000130E10077
:100DB800610883160317C6078316031746088312AC
:100DC8000313AE000130AF008E30E1006108B000BF
:100DD80083160317450883120313B201B20783165B
:100DE8000317440883120313B101B1070A128A11C9
:100DF800F5230A128A11903083120313A2000130DE
:100E0800A3000A128A15F4220800831203133E086D
:100E1800C4003F08C5004008C6000310450D460D34
:100E2800C7004708C800C808031D212F0030BE00AE
:100E38000030BF000030C00008004108C40042086C
:100E4800C5004308C6000310450D460DC7004708F6
:100E5800CD00CD08031D372F0030BE000030BF0085
:100E68000030C00008004D087B3EC4004408C80795
:100E78003E08C4003F08C5004008C60010300310F3
:100E8800C60CC50CC40CFF3E031D432F4408C70005
:100E98004708CD004108C4004208C5004308C60001
:100EA80010300310C60CC50CC40CFF3E031D552F93
:100EB8004408C7004708CD068030C4004408CD0563
:100EC800BF17C217FF30C105FF30C2050030C30588
:100ED8000030C9000030CA000030CB000730C40021
:100EE8004408CC003E1C862F4108C907420803115C
:100EF8000318420A031DCA07430803110318430ACB
:100F0800031DCB0701300310C00CBF0CBE0CFF3E05
:100F1800031D872F01300310C10DC20DC30DFF3E05
:100F2800031D8F2F0130CC02031D762F0930C4001A
:100F38004408CC003E1CAE2F4108C90742080311E3
:100F48000318420A031DCA07430803110318430A7A
:100F5800031DCB0701300310C00CBF0CBE0CFF3EB5
:100F6800031DAF2F01300310CB0CCA0CC90CFF3E78
:100F7800031DB72F0130CC02031D9E2F4908A00086
:100F88004A08A1004B08A2004808C4004408A3006E
:100F98004D08C5004508A4000A128A15C124831209
:100FA80003132008BE002108BF002208C000080063
:100FB80038300A128A15E7210A128A111030831272
:100FC8000313A200A20BE62F00000C300A128A15A8
:100FD800E7210A128A1101300A128A15E7210A123A
:100FE8008A1106300A128A15E7210A128A110F306F
:100FF8000A128A15E7210800FF1B0A2883137F18A5
:1010080083170008840A0319FF0A080008308A00B9
:101018000408840A82070034013400340A34003496
:1010280064340034E8340334103427344D344F34F6
:10103800443445343A342034413444344434493413
:10104800543449344F344E3441344C3420344934C8
:101058004E3446344F3400344D344F3444344534E0
:101068003A342034533445345434203441344334EE
:101078005434493456344534203448345234533483
:101088000034543469346D3465343A3420342534AA
:101098003034323464343A342534303432346434BD
:1010A800203420342034203400344D344F34443438
:1010B80045343A34203444344934533450344C346D
:1010C8004134593420345334543441345434003482
:1010D80049344E3449345434493441344C34493415
:1010E8005A3449344E3447342E342E342E34003496
:1010F8004134443443343A3420342534643420347D
:10110800203420340034503450344D3420344834A2
:1011180049344734483421342034003445344E347B
:101128005634203453345434413442344C344534E6
:101138000034253464342034703470346D342034F1
:10114800203400344534523452344F34523421342C
:10115800003443344F3432343A34203400342534A4
:0411680064340034B7
:10136C00FF34FF34083400340834003401348B1754
:10137C000B168B1083160313011308008030831691
:10138C0003139F000130831203139F000800831284
:10139C00031330082F042E04031908008030B00604
:1013AC00080083120313A100A0013A302102031894
:1013BC00E52930302102031CE529A001A00A200CEC
:1013CC00080083120313A10021088800071087105E
:1013DC000715F930A0000000A00BF129F529000039
:1013EC00831203130711080083120313A1002108B1
:1013FC008800071487100715F930A0000000A00B17
:10140C00042A082A000083120313071108008B1307
:10141C008B1C172A8B106E08013E0139F0007008E6
:10142C00EE008B177408FF0073088A0072088400A2
:10143C00710E8300FE0E7E0E0900823083120313A0
:10144C00A300DD30A200A20B292AA30B292A2E2AE5
:10145C00831203131F151F19312A1E08A101A1079E
:10146C00831603131E0883120313A001A0070800A0
:10147C007808831203136E060319080001300A1250
:10148C008A15E7210A128A15413083120313A3002F
:10149C00EE30A200A20B502AA30B502A0000803081
:1014AC000A128A15E721831203136E08A200220880
:1014BC00F800080083120313AD01A91F6C2AA809B8
:1014CC00A909A80A0319A90AAD01AD0A2808A000A8
:1014DC002908A100A2018E30AB002B08A3002D0817
:1014EC00AC002C08A4000A128A15C1248312031321
:1014FC002008A8002108A9002208AA0008008312CD
:10150C000313A401A501201C912A2208A407031887
:10151C00A50A2308A50701300310A20DA30DFF3E59
:10152C00031D922A01300310A10CA00CFF3E031DD9
:10153C00992A21082004031D892A2508A101A10745
:10154C002408A001A0070800453083120313AE0045
:10155C000030AF003630C4004408B0006A08B20155
:10156C00B2076908B101B1076D08B401B4076C0882
:10157C00B301B3070A128A11F5230A128A154530F2
:10158C0083120313A2000030A3000A128A15F4225E
:10159C000800831203138618ED2A6B08013A031D09
:1015AC00ED2A1A30E600F830E500E50BDB2AE60BF5
:1015BC00DB2A0000831203138618ED2A6F08013E04
:1015CC000139E5006508EF000A128A152B25003059
:1015DC008312031386180130EB0008000C300A123A
:1015EC008A15E7210A128A15831203132308FF00B8
:1015FC00220884000A128A1500200A128A15003863
:10160C0003190800831203132308FF002208840027
:10161C000A128A1500200A128A150A128A15FA2152
:10162C000A128A15013083120313A2070318A30AA6
:10163C00FA2A831203132908280403194E2BAD012F
:10164C00AD0AA91B352B01300310A80DA90DFF3EC7
:10165C00031D2A2B0130AC002C08AD07272B2908C1
:10166C002B02031D3B2B28082A02031C432B2808A2
:10167C00AA022908031CAB03AB0201300310A90C0E
:10168C00A80CFF3E031D442B0130AD02031D352B6E
:10169C002B08A901A9072A08A801A80708000130EE
:1016AC0083120313EC070318ED0A0030ED076D08E5
:1016BC00803AFF0080307F02031D662B3C306C02A9
:1016CC00031C080083120313EC01ED010130E90740
:1016DC000318EA0A0030EA076A08803AFF008030F3
:1016EC007F02031D7B2B18306902031C812B831294
:1016FC000313E901EA01413083120313A100EE3018
:10170C00A000A00B872BA10B872B0000080000303A
:10171C0083120313A0001030A1004130A200750801
:10172C00A3007608A4007708A5000A128A15622483
:10173C000A128A150318B52B831203130615D4301D
:10174C000A128A15E7210A128A15783083120313BC
:10175C00A2008030A3000A128A15F422080083121A
:10176C0003130611D4300A128A15E7210A128A15BE
:10177C00833083120313A2008030A3000A128A154F
:10178C00F422080083120313A601A70121082004E8
:10179C000319012CA501A50AA11BE02B0130031094
:1017AC00A00DA10DFF3E031DD52B0130A400240874
:1017BC00A507D22B01300310A60DA70DFF3E031D6C
:1017CC00E12B21082302031DED2B20082202031C10
:1017DC00F62B2008A2022108031CA303A302261443
:1017EC0001300310A10CA00CFF3E031DF72B0130A0
:1017FC00A502031DE02B2708A101A1072608A001C3
:10180C00A0070800FF30831603138500FB30860009
:10181C0087018801C0308100831203138501860182
:10182C00870188010A128A15C4210A128A150A1224
:10183C008A11DC270A128A150A128A15BD210A128E
:10184C008A155D3083120313A2008030A3000A12A4
:10185C008A15F4220A128A15023083160313C90062
:10186C004530C800A930C700C70B3A2CC80B3A2C1E
:10187C00C90B3A2C412C01300A128A15E7210A12A5
:10188C008A15413083160313C800EE30C700C70B0E
:10189C004D2CC80B4D2C00000A128A153E220A1240
:1018AC008A150A128A15CF220A128A150A128A156B
:1018BC0055230A128A15522C83120313A21F8B2C48
:1018CC000030A6000030A7008030A8002009A90035
:1018DC002109AA002209AB00A90A0319AA0A0319B3
:1018EC00AB0A2908A6072A0803182A0F7E2C7F2C7E
:1018FC00A7072B0803182B0F842C852CA807260868
:10190C00A0002708A1002808A200A51FB22C0030B7
:10191C00A6000030A7008030A8002309A9002409E4
:10192C00AA002509AB00A90A0319AA0A0319AB0AD4
:10193C002908A6072A0803182A0FA52CA62CA707E6
:10194C002B0803182B0FAB2CAC2CA8072608A300D4
:10195C002708A4002808A5008030A2068030A50620
:10196C0025082202031D080024082102031D08007B
:10197C002308200208008312031323080319CB2C1D
:10198C00220821042004031DDE2C0030A0000030AE
:10199C00A1000030A20008000130A5002508A30713
:1019AC0001300310A20CA10CA00CFF3E031DD72C80
:1019BC00FE3022050319F92CD22C0130A500250884
:1019CC00A3070130A007003003180130A107003035
:1019DC0003180130A20701300310A20CA10CA00CBB
:1019EC00FF3E031DF22CFF3022050319082DE32CBA
:1019FC000130A30201300310A00DA10DA20DFF3E7A
:101A0C00031D012DA11FFE2C2318122DFF30A00544
:101A1C007F30A105FF30A2050310A30C2308A500FD
:101A2C00A601A70110300310A50DA60DA70DFF3EB2
:101A3C00031D192D2508A0042608A1042708A204BB
:101A4C00240803190800A21708004130831203135D
:101A5C00E400EE30E300E30B312DE40B312D0000FC
:101A6C0080300A128A15E7210A128A150C300A12E4
:101A7C008A15E7210A128A15A32D4A308312031303
:101A8C00A2008030A3000A128A15F4220A128A15C9
:101A9C00C0300A128A15E7210A128A150A128A1115
:101AAC00D9250A128A1594300A128A15E7210A12CE
:101ABC008A150A128A15AA220A128A15AD2D0B3024
:101ACC0083120313A2008030A3000A128A15F42299
:101ADC000A128A15C0300A128A15E7210A128A15D1
:101AEC00AD2D831203136F08003A0319432D013AED
:101AFC000319652DAD2DAD2D2130A2008030A30032
:101B0C000A128A15F4220A128A15C0300A128A1592
:101B1C00E7210A128A150A128A15AA220A128A15B4
:101B2C00AD2D973083120313A2008030A3000A124C
:101B3C008A15F4220A128A15AD2D831203136E082E
:101B4C00003A0319772D013A0319822D972D0A12A9
:101B5C008A158D230800831203134E08D2004F08F8
:101B6C00D3005008D4000310530D540DD500550864
:101B7C00DB00DB08031DCB2D0030D1000030D00082
:101B8C000030CF000030CE0008004E08D2004F08C5
:101B9C00D3005008D40017300310D40CD30CD20C43
:101BAC00FF3E031DD22D5208D5005508D600CF1785
:101BBC00FF30CE05FF30CF050030D0054E08D700E2
:101BCC004F08D8005008D900DA018E30DB02DB1F39
:101BDC000D2E5B08803A8F3E0318FD2D0030D1008E
:101BEC000030D0000030CF000030CE0008000130B3
:101BFC000310DA0CD90CD80CD70CFF3E031DFE2DAC
:101C0C000130D2005208DB070319282EFD2D1830A5
:101C1C005B02031C252E0030D1000030D0000030B8
:101C2C00CF000030CE0008000130D2000310D70DD9
:101C3C00D80DD90DDA0DD20B1C2E0130DB02DB08CE
:101C4C00031D1A2E56080319362ED709D809D9099F
:101C5C00DA09D70A0319D80A0319D90A0319DA0AB7
:101C6C005A08D1005908D0005808CF005708CE00A8
:101C7C000800831203135108D4005208D5005308EE
:101C8C00D6000310550D560DD7005708DC00DC08A4
:101C9C00031D572E0030CE000030CF000030D00096
:101CAC0008004E08D4004F08D5005008D600031089
:101CBC00550D560DD7005708DD00DD08031D6D2EA0
:101CCC000030CE000030CF000030D00008000030D3
:101CDC00D9000030DA000030DB0089305D07D40019
:101CEC005408DC025108D4005208D5005308D60021
:101CFC0010300310D60CD50CD40CFF3E031D7F2ED8
:101D0C005408D7005708DD004E08D4004F08D50002
:101D1C005008D60010300310D60CD50CD40CFF3E56
:101D2C00031D912E5408D7005708DD068030D400CF
:101D3C005408DD05D217FF30D105FF30D205003035
:101D4C00D305CF17FF30CE05FF30CF050030D005BF
:101D5C001830D4005408D80001300310D90DDA0D16
:101D6C00DB0DFF3E031DB32E50085302031DC42E82
:101D7C004F085202031DC42E4E085102031CD12ED3
:101D8C004E08D1024F08031C4F0FD2025008031CFF
:101D9C00500AD302591401300310D10DD20DD30DBA
:101DAC00FF3E031DD22E0130D802031DB22E59085E
:101DBC00A0005A08A1005B08A2005C08D4005408DB
:101DCC00A3005D08D5005508A4000A128A15C12489
:101DDC00831203132008CE002108CF002208D00064
:101DEC000800831203133108B7003208B800330817
:101DFC00B9000310380D390DBA003A08BD0034088B
:101E0C00B7003508B8003608B9000310380D390D85
:101E1C00BA003A08BC003D080319202F3C083D02CB
:101E2C000318272F3D03FF3A3C07B7001930370240
:101E3C00031C272F3408B1003508B2003608B30054
:101E4C0008003C08031908003D083C020318362F13
:101E5C003C03FF3A3D07B70019303702031808005E
:101E6C000630B7003708BB00B31BBB17B61B3B17BC
:101E7C00B217FF30B105FF30B2050030B305B5170E
:101E8C00FF30B405FF30B5050030B6053C083D0207
:101E9C000318762F01300310B40DB50DB60DFF3EAF
:101EAC00031D512F0130BC023C083D060319712F54
:101EBC000130BB023B0807390319712F502F013039
:101ECC000310B30CB20CB10CFF3E031D662F013096
:101EDC00B7003708BD073D083C0603199F2F652F37
:101EEC003D083C0203189F2F01300310B10DB20DB9
:101EFC00B30DFF3E031D7B2F0130BD023C083D0698
:101F0C0003199B2F0130BB023B08073903199B2F88
:101F1C007A2F01300310B60CB50CB40CFF3E031D28
:101F2C00902F0130B7003708BC073D083C06031D55
:101F3C008F2FBB1FB12FFF30B106FF30B206FF3021
:101F4C00B3060130B107003003180130B20700307E
:101F5C0003180130B3073B1FC32FFF30B406FF300B
:101F6C00B506FF30B6060130B40700300318013057
:101F7C00B507003003180130B607BB013108B407B0
:101F8C00320803110318320A031DB5073308031175
:101F9C000318330A031DB607B61FE62FFF30B4062D
:101FAC00FF30B506FF30B6060130B4070030031819
:101FBC000130B507003003180130B607BB01BB0A6E
:101FCC003408A0003508A1003608A2003D08B7006F
:101FDC003708A3003B08B8003808A4000A128A1579
:101FEC00C124831203132008B1002108B200220877
:041FFC00B300080026
:02400E007AFF37
:00000001FF
