:060000000A128A11122809
:10000800FE00030EF3000408F4000A08F50083124A
:1000180003137F08F6000A168A11A52C0A128A1102
:100028001528F701F801F9018313D7308400E93066
:100038000A168A11E8230A128A11831603130A166C
:100048008A11DD230A128A11E9000A168A11DE23B1
:100058000A128A11EA000A168A11DF230A128A1183
:10006800EB000A168A11E0230A128A11EC000A161C
:100078008A11DA230A128A11FA000A168A11DB2376
:100088000A128A11FB000A168A11DC23FC0083017C
:100098000A168A119A2EC03083120313CE007F30BD
:1000A800CF004430D0000030BE00A030BF00403048
:1000B800C0005F08A901A9075E08A801A8070A16D9
:1000C8008A1150250A128A11831203132808C100C5
:1000D8002908C2002A08C3000A128A15FB240A123A
:1000E8008A11831203133E08D1003F08D20040084A
:1000F800D3000A128A1563210A128A118312031384
:100108004E0883160313A000831203134F088316A7
:100118000313A10083120313500883160313A200CC
:10012800003083120313CE00A030CF004030D0003F
:1001380083160313200883120313D10083160313B5
:10014800210883120313D200831603132208831293
:100158000313D3000A128A1563210A128A11831223
:1001680003134E0883160313C400831203134F08A6
:1001780083160313C5008312031350088316031351
:10018800C600440883120313BE00831603134508F0
:1001980083120313BF008316031346088312031345
:1001A800C00083160313440883120313C100831687
:1001B8000313450883120313C2008316031346086A
:1001C80083120313C3000A128A15FB240A128A1128
:1001D800831203133E0883160313B5008312031317
:1001E8003F0883160313B6008312031340088316CF
:1001F8000313B700440883120313BE0083160313C6
:10020800450883120313BF0083160313460883129D
:100218000313C00083160313350883120313C100A8
:1002280083160313360883120313C20083160313BD
:10023800370883120313C3000A128A15FB240A1213
:100248008A11831203133E0883160313B80083121E
:1002580003133F0883160313B900831203134008DE
:1002680083160313BA00440883120313BE008316CF
:100278000313450883120313BF00831603134608AC
:1002880083120313C0008316031338088312031361
:10029800C10083160313390883120313C20083169F
:1002A80003133A0883120313C3000A128A15FB24A6
:1002B8000A128A11831203133E0883160313BB0024
:1002C800831203133F0883160313BC00831203131E
:1002D800400883160313BD00440883120313BE00AD
:1002E80083160313450883120313BF0083160313F1
:1002F800460883120313C000831603133B088312B6
:100308000313C100831603133C0883120313C200AE
:10031800831603133D0883120313C3000A128A15B8
:10032800FB240A128A11831203133E08831603134F
:10033800BE00831203133F0883160313BF00831202
:100348000313400883160313C000440883120313E1
:10035800BE0083160313450883120313BF008316D8
:100368000313460883120313C000831603133E08C1
:1003780083120313C100831603133F088312031368
:10038800C20083160313400883120313C3000A1222
:100398008A15FB240A128A11831203133E08831656
:1003A8000313A300831203133F0883160313A40047
:1003B80083120313400883160313A5009C3083128D
:1003C8000313BE00B230BF003F30C00083160313D2
:1003D800350883120313C1008316031336088312EA
:1003E8000313C20083160313370883120313C300D1
:1003F8000A128A15FB240A128A11831203133E0873
:10040800B1003F08B2004008B300A930BE00DE309A
:10041800BF003C30C0008316031344088312031343
:10042800C10083160313450883120313C200831601
:100438000313460883120313C3000A128A15FB2408
:100448000A128A11831203133E08B4003F08B5004C
:100458004008B6000A128A15CE250A128A1183129C
:100468000313310883160313A600831203133208FB
:1004780083160313A7008312031333088316031389
:10048800A800EE3083120313BE00EB30BF003A30F1
:10049800C00083160313380883120313C1008316A0
:1004A8000313390883120313C200831603133A088F
:1004B80083120313C3000A128A15FB240A128A1135
:1004C800831203133E08B1003F08B2004008B3008E
:1004D80083160313260883120313B4008316031329
:1004E800270883120313B500831603132808831201
:1004F8000313B6000A128A15CE250A128A1183122E
:100508000313310883160313A90083120313320857
:1005180083160313AA0083120313330883160313E5
:10052800AB00743083120313BE005A30BF00BB30D7
:10053800C000831603133B0883120313C1008316FC
:1005480003133C0883120313C200831603133D08E8
:1005580083120313C3000A128A15FB240A128A1194
:10056800831203133E08B1003F08B2004008B300ED
:1005780083160313290883120313B4008316031385
:100588002A0883120313B500831603132B0883125A
:100598000313B6000A128A15CE250A128A1183128D
:1005A8000313310883160313AC00831203133208B4
:1005B80083160313AD008312031333088316031342
:1005C800AE00103083120313BE00FC30BF00BA30F7
:1005D800C000831603133E0883120313C100831659
:1005E80003133F0883120313C20083160313400842
:1005F80083120313C3000A128A15FB240A128A11F4
:10060800831203133E08B1003F08B2004008B3004C
:10061800831603132C0883120313B40083160313E1
:100628002D0883120313B500831603132E088312B3
:100638000313B6000A128A15CE250A128A118312EC
:100648000313310883160313AF0083120313320810
:1006580083160313B000831203133308831603139E
:10066800B100A83083120313BE009030BF003F30A2
:10067800C00083160313230883120313C1008316D3
:100688000313240883120313C200831603132508D7
:1006980083120313C3000A128A15FB240A128A1153
:1006A800831203133E08B1003F08B2004008B300AC
:1006B800831603132F0883120313B400831603133E
:1006C800300883120313B50083160313310883120D
:1006D8000313B6000A128A15CE250A128A1183124C
:1006E8000313310883160313B2008312031332086D
:1006F80083160313B30083120313330883160313FB
:10070800B400803083120313B100B730B20039301F
:10071800B30083160313320883120313B40083163D
:100728000313330883120313B50083160313340825
:1007380083120313B6000A128A15CE250A128A11EB
:1007480083120313310883160313C10083120313A2
:10075800320883160313C200831203133308831667
:100768000313C300CA3083120313BE00CF30BF0087
:100778004330C00083160313410883120313C100DA
:1007880083160313420883120313C200831603134C
:10079800430883120313C3000A128A15FB24831229
:1007A80003133E0883160313C100831203133F0883
:1007B80083160313C200831203134008831603131E
:1007C800C300410883120313DE0083160313420893
:1007D80083120313DF0083160313430883120313E2
:1007E800E000080083120313C200B801B9012F30DA
:1007F800B3003308B600013083120313AE07FF308D
:100808002E0784000A128A150A200A128A11B300D8
:100818003308C100C1080319CC2D4108253A031932
:10082800272C4108B3004208840033088313800052
:100838000130B3003308C2070130B8070318B90AFA
:100848000030B907FF2BBF01C001BE01302C3E1597
:100858000130B3003308AE072E0884000A128A1547
:100868000A200A128A11303A03192B2C3B2C2E0825
:1008780084000A128A150A200A128A110A168A1195
:1008880008240A128A11031C8B2C83120313BF013C
:10089800C0010A3083120313A0000030A1004008F1
:1008A800A301A3073F08A201A2070A168A1175250A
:1008B8000A128A11831203132108C001C0072008F5
:1008C800BF01BF072E0884000A128A150A200A12DF
:1008D8008A11D03EB300FF3003180030B40033084B
:1008E800BF070318C00A3408C0070130B300330833
:1008F800AE072E0884000A128A150A200A128A11E5
:100908000A168A1108240A128A1103184D2C01307C
:1009180083120313AE07FF302E0784000A128A15CC
:100928000A200A128A11C100003A0319CC2D643A30
:100938000319A22C0D3A0319A22CFF2B83120313BF
:100948003608840083130008BA00840A0008BB0034
:100958000230B3003308B607BB1FBB2C0330B3000B
:100968003308BE04BA09BB09BA0A0319BB0AC10194
:10097800C10A4108053A0319E22C4108B3003307BC
:10098800013E84000A128A150A200A128A11B4004C
:100998000A128A150A200A128A11B50035083B0284
:1009A800031DD82C34083A02031CE22C0130B30092
:1009B8003308C1074108053A031DC12C40083F040C
:1009C8000319F02C3E0803390319F02CFF30BF0738
:1009D8000318C00AFF30C0074108B300B401B31BB5
:1009E800B4033408803AB5004008803A3502031D44
:1009F800FF2C3F08330203180F2D831203134108FD
:100A0800B300B401B31BB4033308BF023408031C9A
:100A1800C003C002132D83120313BF01C0013E1D82
:100A2800462D3E08033903192A2D2D30B3004208FC
:100A380084003308831380000130B3003308C207F1
:100A48000130B8070318B90A0030B90740083F0455
:100A580003197A2D3030B300420884003308831319
:100A680080000130B3003308C2070130B80703180B
:100A7800B90A0030B907FF30BF070318C00AFF30B2
:100A8800C0072A2D40083F040319652D2030B30004
:100A9800420884003308831380000130B300330810
:100AA800C2070130B8070318B90A0030B907FF3088
:100AB800BF070318C00AFF30C00740083F04031DE2
:100AC8004A2D3E08033903197A2D2D30B300420808
:100AD80084003308831380000130B3003308C20751
:100AE8000130B8070318B90A0030B9074108B30044
:100AF8003308B700FF30B3003308B7073708FF3AA9
:100B08000319FF2B0A30A8000030A9003708B300EA
:100B18003307013E84000A128A150A200A128A1134
:100B2800A0000A128A150A200A128A11A1003B089D
:100B3800A301A3073A08A201A2070A168A115A2696
:100B48000A128A11831203132108AB01AB0720088C
:100B5800AA01AA070A168A1124260A128A118312E0
:100B680003132808303EB4003408C1004108B3001C
:100B7800420884003308831380000130B30033082F
:100B8800C2070130B8070318B90A0030B9077E2D2B
:100B98008312031342088400831380013908AF01CC
:100BA800AF073808AE01AE0708004B2F80300A1691
:100BB8008A112B240A128A11C73083120313A20048
:100BC8008030A3000A168A11C5250A128A117C2EC4
:100BD8002B3083120313A2008030A3000A168A1157
:100BE800C5250A128A11C0300A168A112B240A1246
:100BF8008A110A168A112C250A128A1194300A16AB
:100C08008A112B240A128A11573083120313DE002B
:100C18005E08AE00831603136A0883120313DF000D
:100C2800E0015F08AF006008B000831603136C088A
:100C380083120313E100E2016108B1006208B20007
:100C480063300A128A11F6230A128A11633083125A
:100C58000313A2000030A3000A168A11C5250A1240
:100C68008A11D4300A168A112B240A128A11653087
:100C780083120313DE005E08AE00831603136908AF
:100C880083120313DF00E0015F08AF006008B000C3
:100C9800831603136B0883120313E100E201610852
:100CA800B1006208B20063300A128A11F6230A12F0
:100CB8008A11633083120313A2000030A3000A16BE
:100CC8008A11C52508003A3083120313A200803028
:100CD800A3000A168A11C5250A128A11C0300A16FD
:100CE8008A112B240A128A110A128A15D72608009B
:100CF800831603135E08003A0319EC2D013A031911
:100D0800672E5B2F080080300A168A112B240A12DE
:100D18008A110B3083120313A2008030A3000A1635
:100D28008A11C5250A128A11CF2EC0300A168A11D7
:100D38002B240A128A117E3083120313A2008030FA
:100D4800A3000A168A11C5250A128A1194300A16B8
:100D58008A112B240A128A110A128A15D322080032
:100D6800C0300A168A112B240A128A117230831293
:100D78000313A2008030A3000A168A11C5250A129F
:100D88008A1194300A168A112B240A128A110A121F
:100D98008A1543240800831603135E08003A0319D2
:100DA800992E013A0319B42E5B2F080080300A16D9
:100DB8008A112B240A128A11493083120313A200C4
:100DC8008030A3000A168A11C5250A128A11222F1B
:100DD800C0300A168A112B240A128A117E30831217
:100DE8000313A2008030A3000A168A11C5250A122F
:100DF8008A1194300A168A112B240A128A110A12AF
:100E08008A151B220800C0300A168A112B240A12E0
:100E18008A11723083120313A2008030A3000A16CD
:100E28008A11C5250A128A1194300A168A112B24B0
:100E38000A128A110A128A158B23080083160313D3
:100E48005E08003A0319EC2E013A0319072F5B2FAD
:100E5800080080300A168A112B240A128A11B7302A
:100E680083120313A2008030A3000A168A11C52535
:100E78000A128A11C0300A168A112B240A128A1102
:100E8800831603135D080A168A116C24080083165A
:100E980003135C08003A0319DA2D013A0319872E67
:100EA800033A0319DA2E013A03192D2F5B2F080094
:100EB800831203134E08D2004F08D3005008D40001
:100EC8000310530D540DD5005508DB00DB08031D36
:100ED800762F0030D1000030D0000030CF00003035
:100EE800CE0008004E08D2004F08D3005008D400A6
:100EF80017300310D40CD30CD20CFF3E031D7D2FEA
:100F08005208D5005508D600CF17FF30CE05FF3060
:100F1800CF050030D0054E08D7004F08D80050083C
:100F2800D900DA018E30DB02DB1FB82F5B08803A6C
:100F38008F3E0318A82F0030D1000030D0000030B9
:100F4800CF000030CE00080001300310DA0CD90CB5
:100F5800D80CD70CFF3E031DA92F0130D200520830
:100F6800DB070319D32FA82F18305B02031CD02FDF
:100F78000030D1000030D0000030CF000030CE006B
:100F880008000130D2000310D70DD80DD90DDA0DA5
:100F9800D20BC72F0130DB02DB08031DC52F560813
:100FA8000319E12FD709D809D909DA09D70A03198A
:100FB800D80A0319D90A0319DA0A5A08D1005908B4
:100FC800D0005808CF005708CE0008000A168A112A
:100FD80008250A128A1180300A168A112B240A124F
:100FE8008A11CE3083120313A2008030A3000A16A0
:060FF8008A11C525080066
:10100000FF1B0A2883137F1883170008840A03191B
:10101000FF0A080008308A000408840A82070034A6
:10102000013400340A34003464340034E8340334C6
:101030001034273453344534543420344834523433
:10104000533420342D342034533454344134523406
:1010500054340034543469346D3465343A342034B3
:1010600025343034323464343A3425343034323434
:1010700064340034443449345334503420344334D9
:101080004D344D344F344E342034503447343134A1
:1010900000344434493453345034203443344D34D0
:1010A0004D344F344E3420345034473432340034CD
:1010B0005334453454342034483452345334203477
:1010C0002D34203445344E344434003453345434B5
:1010D000523454343A3420342534323464343A347B
:1010E000253432346434003445344E3444343A3494
:1010F00020342534323464343A3425343234643480
:10110000003453344534543420344D3449344E344F
:101110005534543445345334003453344534543402
:10112000203448344F34553452345334003444342A
:10113000453443343A342034253430343234643442
:10114000003449344E3443343A3420342534303476
:101150003234643400345334453454343A34203413
:10116000253430343234643400342534643420344B
:10117000703470346D34203420340034503455349D
:1011800052344634203448344934003443344834EB
:1011900043344B34203449344F34003450345534C4
:1011A0005234463420344C344F3400344D344F34B0
:1011B000443445343A3420340034503457345234B3
:1011C00020344F344E34003443344F3432343A34C4
:1011D000203400342534643400348312031330087F
:1011E0002F042E04031908008030B00608007A0886
:1011F000831603136906031D052979086B06031D71
:1012000005298312031307160800831603136908C0
:101210006A0203182B297A086A02031C17297A0824
:101220006A06031D27296C087902031C272969080F
:101230007A02031C23297A086906031D27296B08F3
:101240007902031827298312031307160800831253
:10125000031307120800831603136A0869020318B0
:1012600051297A086A02031C49297A086A06031D73
:101270003D296C0879020318492969087A02031C80
:1012800049297A086906031D4D296B08790203185C
:101290004D29831203130716080083120313071244
:1012A0000800831603136C087902031C5F296B087E
:1012B000790203185F2983120313071608008312AB
:1012C000031307120800831203135108D4005208B5
:1012D000D5005308D6000310550D560DD7005708FA
:1012E000DC00DC08031D7B290030CE000030CF007D
:1012F0000030D00008004E08D4004F08D500500838
:10130000D6000310550D560DD7005708DD00DD0837
:10131000031D91290030CE000030CF000030D000F6
:1013200008000030D9000030DA000030DB008930DE
:101330005D07D4005408DC025108D4005208D500DF
:101340005308D60010300310D60CD50CD40CFF3E39
:10135000031DA3295408D7005708DD004E08D40008
:101360004F08D5005008D60010300310D60CD50C0D
:10137000D40CFF3E031DB5295408D7005708DD06DD
:101380008030D4005408DD05D217FF30D105FF307E
:10139000D2050030D305CF17FF30CE05FF30CF0583
:1013A0000030D0051830D4005408D80001300310A4
:1013B000D90DDA0DDB0DFF3E031DD729500853026E
:1013C000031DE8294F085202031DE8294E08510267
:1013D000031CF5294E08D1024F08031C4F0FD202FF
:1013E0005008031C500AD302591401300310D10DC8
:1013F000D20DD30DFF3E031DF6290130D802031D87
:10140000D6295908A0005A08A1005B08A2005C0870
:10141000D4005408A3005D08D5005508A4000A169E
:101420008A119627831203132008CE002108CF00CB
:101430002208D0000800831203130608C3000330FB
:101440000310C30CFF3E031D202A43080139C400CA
:101450004408F8000608C30004300310C30CFF3E24
:10146000031D2D2A43080F39C4004408F7004130FA
:10147000C400EE30C300C30B3B2AC40B3B2A000060
:1014800078080319C92A77087B060319C92A77083F
:101490000C3A031D6B2A183083120313A00000308E
:1014A000A100831603136908013E83120313A200EF
:1014B000003003180130A3000A168A11E8260A1228
:1014C0008A15831203132008C300430883160313ED
:1014D000E9009230942A77080E3A031D8F2A1830BB
:1014E00083120313A0000030A100831603136908C0
:1014F000173E83120313A200003003180130A3002B
:101500000A168A11E8260A128A1583120313200884
:10151000C300430883160313E9008830942A770830
:101520000D3A031DAA2A9C3083120313C3004308FB
:10153000AE0083160313690883120313C400C501A8
:101540004408AF004508B000DF300A128A11F623C4
:101550000A128A15DF3083120313A2000030A300A1
:101560000A168A11C5250A128A15770883120313F1
:10157000C3004308FB0083120313861D08000D30CF
:10158000C400FB30C300C30BC32AC40BC32AC82A40
:10159000BB2AF808031D0800FF3083120313C300A1
:1015A0004308FB000800831203130608C30003303E
:1015B0000310C30CFF3E031DD82A43080139C400A1
:1015C0004408F8000608C30004300310C30CFF3EB3
:1015D000031DE52A43080F39C4004408F7004130D1
:1015E000C400EE30C300C30BF32AC40BF32A00007F
:1015F00078080319812B77087B060319812B77085C
:101600000C3A031D232B183083120313A000003063
:10161000A100831603136A08013E83120313A2007C
:10162000003003180130A3000A168A11E8260A12B6
:101630008A15831203132008C3004308831603137B
:10164000EA0092304C2B77080E3A031D472B1830D6
:1016500083120313A0000030A100831603136A084D
:10166000173E83120313A200003003180130A300B9
:101670000A168A11E8260A128A1583120313200813
:10168000C300430883160313EA0088304C2B770805
:101690000D3A031D622B9C3083120313C3004308D1
:1016A000AE00831603136A0883120313C400C50136
:1016B0004408AF004508B000DF300A128A11F62353
:1016C0000A128A15DF3083120313A2000030A30030
:1016D0000A168A11C5250A128A1577088312031380
:1016E000C3004308FB0083120313861D08000D305E
:1016F000C400FB30C300C30B7B2BC40B7B2B802BA4
:10170000732BF808031D0800FF3083120313C30076
:101710004308FB000800831203130608C3000330CC
:101720000310C30CFF3E031D902B43080139C40076
:101730004408F8000608C30004300310C30CFF3E41
:10174000031D9D2B43080F39C4004408F7004130A6
:10175000C400EE30C300C30BAB2BC40BAB2B00009B
:1017600078080319392C77087B060319392C770878
:101770000C3A031DDB2B3C3083120313A000003016
:10178000A100831603136B08053E83120313A20006
:10179000003003180130A3000A168A11E8260A1245
:1017A0008A15831203132008C3004308831603130A
:1017B000EB009230042C77080E3A031DFF2B3C30CF
:1017C00083120313A0000030A100831603136B08DB
:1017D000373E83120313A200003003180130A30028
:1017E0000A168A11E8260A128A15831203132008A2
:1017F000C300430883160313EB008830042C7708DA
:101800000D3A031D1A2C9C3083120313C3004308A6
:10181000AE00831603136B0883120313C400C501C3
:101820004408AF004508B000DF300A128A11F623E1
:101830000A128A15DF3083120313A2000030A300BE
:101840000A168A11C5250A128A157708831203130E
:10185000C3004308FB0083120313861D08000D30EC
:10186000C400FB30C300C30B332CC40B332C382C07
:101870002B2CF808031D0800FF3083120313C3004C
:101880004308FB000800831203130608C30003305B
:101890000310C30CFF3E031D482C43080139C4004C
:1018A0004408F8000608C30004300310C30CFF3ED0
:1018B000031D552C43080F39C4004408F70041307C
:1018C000C400EE30C300C30B632CC40B632C0000B8
:1018D00078080319F12C77087B060319F12C770897
:1018E0000C3A031D932C3C3083120313A0000030EC
:1018F000A100831603136C08053E83120313A20094
:10190000003003180130A3000A168A11E8260A12D3
:101910008A15831203132008C30043088316031398
:10192000EC009230BC2C77080E3A031DB72C3C30EB
:1019300083120313A0000030A100831603136C0868
:10194000373E83120313A200003003180130A300B6
:101950000A168A11E8260A128A1583120313200830
:10196000C300430883160313EC008830BC2C7708AF
:101970000D3A031DD22C9C3083120313C30043087D
:10198000AE00831603136C0883120313C400C50151
:101990004408AF004508B000DF300A128A11F62370
:1019A0000A128A15DF3083120313A2000030A3004D
:1019B0000A168A11C5250A128A157708831203139D
:1019C000C3004308FB0083120313861D08000D307B
:1019D000C400FB30C300C30BEB2CC40BEB2CF02C6E
:1019E000E32CF808031D0800FF3083120313C30023
:1019F0004308FB000800831203133E08C4003F089D
:101A0000C5004008C6000310450D460DC700470835
:101A1000C800C808031D132D0030BE000030BF00F1
:101A20000030C00008004108C4004208C500430857
:101A3000C6000310450D460DC7004708CD00CD0870
:101A4000031D292D0030BE000030BF000030C00053
:101A500008004D087B3EC4004408C8073E08C40087
:101A60003F08C5004008C60010300310C60CC50C66
:101A7000C40CFF3E031D352D4408C7004708CD00A8
:101A80004108C4004208C5004308C60010300310D6
:101A9000C60CC50CC40CFF3E031D472D4408C700EF
:101AA0004708CD068030C4004408CD05BF17C217D3
:101AB000FF30C105FF30C2050030C3050030C9004A
:101AC0000030CA000030CB000730C4004408CC000E
:101AD0003E1C782D4108C907420803110318420A29
:101AE000031DCA07430803110318430A031DCB074C
:101AF00001300310C00CBF0CBE0CFF3E031D792D3E
:101B000001300310C10DC20DC30DFF3E031D812D19
:101B10000130CC02031D682D0930C4004408CC00FC
:101B20003E1CA02D4108C907420803110318420AB0
:101B3000031DCA07430803110318430A031DCB07FB
:101B400001300310C00CBF0CBE0CFF3E031DA12DC5
:101B500001300310CB0CCA0CC90CFF3E031DA92D8C
:101B60000130CC02031D902D4908A0004A08A100B5
:101B70004B08A2004808C4004408A3004D08C50053
:101B80004508A4000A168A11962783120313200819
:101B9000BE002108BF002208C00008008312031302
:101BA0003108B7003208B8003308B9000310380D07
:101BB000390DBA003A08BD003408B7003508B8003E
:101BC0003608B9000310380D390DBA003A08BC00C8
:101BD0003D080319F72D3C083D020318FE2D3D0377
:101BE000FF3A3C07B70019303702031CFE2D3408BA
:101BF000B1003508B2003608B30008003C080319EC
:101C000008003D083C0203180D2E3C03FF3A3D0737
:101C1000B70019303702031808000630B70037083C
:101C2000BB00B31BBB17B61B3B17B217FF30B10588
:101C3000FF30B2050030B305B517FF30B405FF30F3
:101C4000B5050030B6053C083D0203184D2E0130A5
:101C50000310B40DB50DB60DFF3E031D282E013047
:101C6000BC023C083D060319482E0130BB023B086C
:101C700007390319482E272E01300310B30CB20C7C
:101C8000B10CFF3E031D3D2E0130B7003708BD07E4
:101C90003D083C060319762E3C2E3D083C020318F5
:101CA000762E01300310B10DB20DB30DFF3E031DB2
:101CB000522E0130BD023C083D060319722E013040
:101CC000BB023B0807390319722E512E0130031055
:101CD000B60CB50CB40CFF3E031D672E0130B700E7
:101CE0003708BC073D083C06031D662EBB1F882E27
:101CF000FF30B106FF30B206FF30B3060130B10746
:101D0000003003180130B207003003180130B30768
:101D10003B1F9A2EFF30B406FF30B506FF30B606E3
:101D20000130B407003003180130B5070030031844
:101D30000130B607BB013108B4073208031103189C
:101D4000320A031DB507330803110318330A031DB4
:101D5000B607B61FBD2EFF30B406FF30B506FF3004
:101D6000B6060130B407003003180130B507003063
:101D700003180130B607BB01BB0A3408A0003508C0
:101D8000A1003608A2003D08B7003708A3003B08B1
:101D9000B8003808A4000A168A1196278312031384
:101DA0002008B1002108B2002208B3000800831601
:101DB0000313570883120313CE0083160313580826
:101DC00083120313CF0083160313590883120313DE
:101DD000D0000A128A115C270A128A158312031393
:101DE0004F0883160313D301D307831203134E083E
:101DF00083160313D201D207530883120313A901D8
:101E0000A90783160313520883120313A801A80716
:101E10000A168A1150250A128A15831203132808FC
:101E2000AE002908AF002A08B0000A128A15ED207A
:101E30000A128A15831203132E08B4002F08B50066
:101E40003008B60083160313570883120313B1003A
:101E500083160313580883120313B2008316031367
:101E6000590883120313B3000A128A15CE250A12E9
:101E70008A15831203133108C1003208C2003308E7
:101E8000C3000030BE00C830BF004230C0000A129C
:101E90008A15FB240A128A15831203133E08CE000A
:101EA0003F08CF004008D0000A128A115C270A12AE
:101EB0008A15831203134F0883160313D501D50720
:101EC000831203134E0883160313D401D407A030E2
:101ED00083120313DC005C0883160313D600D5308D
:101EE00083120313DC005C08AE008316031356084C
:101EF0000A128A11F6230A128A15831203132E0876
:101F0000DD005D0883160313D607DB30831203134D
:101F1000DC005C08AE00831603135308831203131E
:101F2000B001B00783160313520883120313AF01E5
:101F3000AF078316031356080A128A11F6230A12F2
:101F40008A15831203132E08DD005D088316031320
:101F5000D6072E3083120313DC00831603135608B2
:101F60008400831203135C08831380000130DC00BB
:101F70005C0883160313D6075508803AFF008030AB
:101F80007F02031DC52F0A3054020318DA2F3030A8
:101F900083120313DC008316031356088400831294
:101FA00003135C08831380000130DC005C08831697
:101FB0000313D607A63083120313DC005C08AE00BF
:101FC00083160313550883120313B001B007831659
:101FD0000313540883120313AF01AF0783160313CF
:101FE00056080A128A11F6230A128A15A0308312A3
:101FF0000313A2000030A3000A168A11C5250800A9
:1027B4000434FF34FF340A3409341E341E348B17B6
:1027C4000B168B1083160313011308006400800199
:1027D400840A0406031900340406E92B80308316A6
:1027E40003139F000130831203139F000800FF307E
:1027F400831603138500FF30860087018801831246
:1028040003138501860187018801080083120313DD
:10281400A100A0013A3021020318162C3030210205
:10282400031C162CA001A00A200C0800F10071085A
:10283400831203138800071087100715F930F0007E
:102844000000F00B222C262C000083120313071126
:10285400080083120313A1002108880007108710C1
:102864000715F930A0000000A00B352C392C00000E
:10287400831203130711080083120313A100210814
:102884008800071487100715F930A0000000A00B7A
:10289400482C4C2C000083120313071108008230CB
:1028A40083120313A300DD30A200A20B572CA30B49
:1028B400572C5C2C831203131F151F195F2C1E0841
:1028C400A101A107831603131E0883120313A00199
:1028D400A007080083120313A4002408013A031D6F
:1028E4007B2CAF30A2008030A3000A168A11C525C4
:1028F400080083120313A408031D0800BF30A200BC
:102904008030A3000A168A11C525080001308312FD
:102914000313A0002008F9073C307902031C9B2C08
:10292400F9010130A0002008FA0718307A020318D0
:10293400FA014130A100EE30A000A00B9F2CA10BA6
:102944009F2C000008008B138B1CB12C8B1083165A
:1029540003135C08013E0339F2007208DC00013005
:102964000A168A1118240A168A118B1776088312FC
:102974000313FF0075088A0074088400730E830033
:10298400FE0E7E0E09007C08831603135C060319F1
:10299400080001300A168A112B240A168A114130C4
:1029A40083120313A300EE30A200A20BD72CA30BB7
:1029B400D72C0000831603135C0883120313A200B0
:1029C4002208FC0008000A168A1151240A168A11EA
:1029D400831203132108DF01DF072008DE01DE076D
:1029E4000A128A114F20831203135E0883160313FD
:1029F400D700831203135F0883160313D8008312CE
:102A04000313600883160313D900080038300A162C
:102A14008A112B240A168A11103083120313A20080
:102A2400A20B122D00000C300A168A112B240A1650
:102A34008A1101300A168A112B240A168A110630CB
:102A44000A168A112B240A168A110F300A168A11C3
:102A54002B2408001B3083120313C3004308AE0069
:102A64007A08C400C5014408AF004508B0007908DD
:102A7400C600C7014608B1004708B20048300A1230
:102A84008A11F6230A168A11483083120313A2000E
:102A94000030A3000A168A11C52508008312031307
:102AA400AD01A91F5C2DA809A909A80A0319A90A3F
:102AB400AD01AD0A2808A0002908A100A2018E30AA
:102AC400AB002B08A3002D08AC002C08A4000A16A8
:102AD4008A119627831203132008A8002108A9004D
:102AE4002208AA00080083120313A401A501201CD4
:102AF400812D2208A4070318A50A2308A50701307D
:102B04000310A20DA30DFF3E031D822D01300310FF
:102B1400A10CA00CFF3E031D892D21082004031DD8
:102B2400792D2508A101A1072408A001A007080008
:102B3400003083120313A0001030A1004130A20022
:102B440083160313570883120313A3008316031376
:102B5400580883120313A40083160313590883121D
:102B64000313A5000A168A1137270A168A110318B7
:102B7400C02D831203138715013008008312031339
:102B84008711003008000C300A168A112B240A160B
:102B94008A11831203132308FF00220884000A12F7
:102BA4008A1500200A168A110038031908008312B6
:102BB40003132308FF00220884000A128A15002048
:102BC4000A168A110A168A113E240A168A1101303D
:102BD40083120313A2070318A30ACB2D0310831235
:102BE400031386180314003003180130A200A30154
:102BF4002208A4002308A500013024062504031D8F
:102C0400152E831603135B085A04031D152E013079
:102C140083120313A200220883160313DE06013075
:102C24000A168A112B24831203132508831603130F
:102C3400DB01DB0783120313240883160313DA0171
:102C4400DA07080083120313290828040319532EF2
:102C5400AD01AD0AA91B3A2E01300310A80DA90D30
:102C6400FF3E031D2F2E0130AC002C08AD072C2E87
:102C740029082B02031D402E28082A02031C482E73
:102C84002808AA022908031CAB03AB020130031075
:102C9400A90CA80CFF3E031D492E0130AD02031DF3
:102CA4003A2E2B08A901A9072A08A801A807080099
:102CB40083120313A501A601210820040319932EEE
:102CC400A701A70AA11B722E01300310A00DA10DAC
:102CD400FF3E031D672E0130A4002408A707642EBD
:102CE40001300310A50DA60DFF3E031D732E210810
:102CF4002302031D7F2E20082202031C882E200895
:102D0400A2022108031CA303A3022514013003100B
:102D1400A10CA00CFF3E031D892E0130A702031D48
:102D2400722E2608A101A1072508A001A00708000A
:102D34000A168A11F9230A168A110A168A11F0232F
:102D44000A168A110A168A11E1230A168A110A122E
:102D54008A11EA270A168A11023083120313EF003C
:102D64004530EE00A930ED00ED0BB62EEE0BB62E7D
:102D7400EF0BB62EBD2E0A168A1188240A168A1164
:102D84000A128A15F7200A168A110A168A11E524EE
:102D94000A168A110A168A119A250A168A118312AA
:102DA4000313ED006D0883160313DD000A168A1160
:102DB400F0250A168A110A168A11C5240A168A11E0
:102DC4000A128A11D9250A168A11BD2E83120313F9
:102DD400A601A31FF42EA209A309A20A0319A30A98
:102DE400A601A60AA11FFB2EA009A109A00A031986
:102DF400A10A210820040319282FA501A50AA11B53
:102E04000F2F01300310A00DA10DFF3E031D042F51
:102E14000130A4002408A507012F21082302031D63
:102E2400152F20082202031C1D2F2008A2022108AE
:102E3400031CA303A30201300310A10CA00CFF3E4A
:102E4400031D1E2F0130A502031D0F2F2608031991
:102E5400302FA209A309A20A0319A30A2308A10176
:102E6400A1072208A001A007080083120313A21FD0
:102E7400602F0030A6000030A7008030A800200991
:102E8400A9002109AA002209AB00A90A0319AA0A68
:102E94000319AB0A2908A6072A0803182A0F532F77
:102EA400542FA7072B0803182B0F592F5A2FA807A5
:102EB4002608A0002708A1002808A200A51F872F24
:102EC4000030A6000030A7008030A8002309A90024
:102ED4002409AA002509AB00A90A0319AA0A03199F
:102EE400AB0A2908A6072A0803182A0F7A2F7B2F72
:102EF400A7072B0803182B0F802F812FA80726085C
:102F0400A3002708A4002808A5008030A20680306A
:102F1400A50625082202031D080024082102031D1A
:102F2400080023082002080083120313230803194E
:102F3400A02F220821042004031DB32F0030A00079
:102F44000030A1000030A20008000130A5002508CF
:102F5400A30701300310A20CA10CA00CFF3E031D1B
:102F6400AC2FFE3022050319CE2FA72F0130A50068
:102F74002508A3070130A007003003180130A1077A
:102F8400003003180130A20701300310A20CA10C79
:102F9400A00CFF3E031DC72FFF3022050319DD2FB0
:102FA400B82F0130A30201300310A00DA10DA20D12
:102FB400FF3E031DD62FA11FD32F2318E72FFF3069
:102FC400A0057F30A105FF30A2050310A30C230840
:102FD400A500A601A70110300310A50DA60DA70D8D
:102FE400FF3E031DEE2F2508A0042608A104270890
:0C2FF400A204240803190800A21708001A
:02400E007AFF37
:00000001FF
