:060000000A128A11122809
:10000800FE00030EF3000408F4000A08F50083124A
:1000180003137F08F6000A168A11772F0A128A112D
:100028001528F701F801E401E501E601E701E80117
:10003800E901EA018313D7308400ED300A168A11EA
:10004800C1260A128A110A168A11B5260A128A11BD
:10005800EB000A168A11B6260A128A11EC000A1653
:100068008A11B7260A128A11ED000A168A11B826D3
:100078000A128A11EE000A168A11B9260A128A1182
:10008800EF000A168A11B3260A128A11F9000A1615
:100098008A11B426FA0083010A128A15182BC03077
:1000A80083120313CE007F30CF004430D0000030DD
:1000B800BE00A030BF004030C0005F08A901A907FA
:1000C8005E08A801A8070A128A15ED200A128A11EB
:1000D800831203132808C1002908C2002A08C30094
:1000E8000A128A1122270A128A11831203133E0860
:1000F800D1003F08D2004008D3000A128A157225A1
:100108000A128A11831203134E0883160313A000E0
:10011800831203134F0883160313A10083120313DA
:10012800500883160313A200003083120313CE0075
:10013800A030CF004030D00083160313200883126C
:100148000313D10083160313210883120313D2006B
:1001580083160313220883120313D3000A128A1585
:1001680072250A128A11831203134E088316031389
:10017800C400831203134F0883160313C5008312A8
:100188000313500883160313C6004408831203138D
:10019800BE0083160313450883120313BF0083169A
:1001A8000313460883120313C0008316031344087D
:1001B80083120313C1008316031345088312031324
:1001C800C20083160313460883120313C3000A12DE
:1001D8008A1122270A128A11831203133E088316F2
:1001E8000313B500831203133F0883160313B600E5
:1001F80083120313400883160313B70044088312BD
:100208000313BE0083160313450883120313BF00AC
:1002180083160313460883120313C00083160313BF
:10022800350883120313C10083160313360883129B
:100238000313C20083160313370883120313C30082
:100248000A128A1122270A128A11831203133E08FE
:1002580083160313B800831203133F08831603138E
:10026800B90083120313400883160313BA00440825
:1002780083120313BE008316031345088312031366
:10028800BF0083160313460883120313C0008316A6
:100298000313380883120313C100831603133908A4
:1002A80083120313C200831603133A08831203133D
:1002B800C3000A128A1122270A128A118312031311
:1002C8003E0883160313BB00831203133F088316EB
:1002D8000313BC0083120313400883160313BD00E5
:1002E800440883120313BE008316031345088312C0
:1002F8000313BF0083160313460883120313C000B9
:10030800831603133B0883120313C10083160313D8
:100318003C0883120313C200831603133D0883129B
:100328000313C3000A128A1122270A128A118312A0
:1003380003133E0883160313BE00831203133F08FA
:1003480083160313BF008312031340088316031395
:10035800C000440883120313BE0083160313450824
:1003680083120313BF008316031346088312031373
:10037800C000831603133E0883120313C1008316BB
:1003880003133F0883120313C200831603134008A4
:1003980083120313C3000A128A1122270A128A1130
:1003A800831203133E0883160313A3008312031357
:1003B8003F0883160313A40083120313400883160F
:1003C8000313A5009C3083120313BE00B230BF0094
:1003D8003F30C00083160313350883120313C1008E
:1003E80083160313360883120313C20083160313FC
:1003F800370883120313C3000A128A1122270A122C
:100408008A11831203133E08B1003F08B200400866
:10041800B300A930BE00DE30BF003C30C0008316F8
:100428000313440883120313C100831603134508FA
:1004380083120313C200831603134608831203139F
:10044800C3000A128A1122270A128A11831203137F
:100458003E08B4003F08B5004008B6000A128A15E5
:10046800F7260A128A11831203133108831603131D
:10047800A60083120313320883160313A7008312FE
:100488000313330883160313A800EE3083120313F3
:10049800BE00EB30BF003A30C000831603133808A3
:1004A80083120313C100831603133908831203133D
:1004B800C200831603133A0883120313C3000A12F7
:1004C8008A1122270A128A11831203133E08B100E7
:1004D8003F08B2004008B3008316031326088312AE
:1004E8000313B40083160313270883120313B500FC
:1004F80083160313280883120313B6000A128A15F9
:10050800F7260A128A11831203133108831603137C
:10051800A90083120313320883160313AA00831257
:100528000313330883160313AB00743083120313C9
:10053800BE005A30BF00BB30C000831603133B080F
:1005480083120313C100831603133C088312031399
:10055800C200831603133D0883120313C3000A1253
:100568008A1122270A128A11831203133E08B10046
:100578003F08B2004008B30083160313290883120A
:100588000313B400831603132A0883120313B50058
:10059800831603132B0883120313B6000A128A1555
:1005A800F7260A128A1183120313310883160313DC
:1005B800AC0083120313320883160313AD008312B1
:1005C8000313330883160313AE001030831203138A
:1005D800BE00FC30BF00BA30C000831603133E08CB
:1005E80083120313C100831603133F0883120313F6
:1005F800C20083160313400883120313C3000A12B0
:100608008A1122270A128A11831203133E08B100A5
:100618003F08B2004008B300831603132C08831266
:100628000313B400831603132D0883120313B500B4
:10063800831603132E0883120313B6000A128A15B1
:10064800F7260A128A11831203133108831603133B
:10065800AF0083120313320883160313B00083120A
:100668000313330883160313B100A830831203134E
:10067800BE009030BF003F30C0008316031323082C
:1006880083120313C1008316031324088312031370
:10069800C20083160313250883120313C3000A122A
:1006A8008A1122270A128A11831203133E08B10005
:1006B8003F08B2004008B300831603132F088312C3
:1006C8000313B40083160313300883120313B50011
:1006D80083160313310883120313B6000A128A150E
:1006E800F7260A128A11831203133108831603139B
:1006F800B20083120313320883160313B300831264
:100708000313330883160313B400803083120313D2
:10071800B100B730B2003930B30083160313320882
:1007280083120313B40083160313330883120313CD
:10073800B50083160313340883120313B6000A1294
:100748008A15F7260A128A118312031331088316B1
:100758000313C10083120313320883160313C20064
:1007680083120313330883160313C300CA3083129A
:100778000313BE00CF30BF004330C00083160313FD
:10078800410883120313C10083160313420883121E
:100798000313C20083160313430883120313C30011
:1007A8000A128A112227831203133E0883160313A1
:1007B800C100831203133F0883160313C200831278
:1007C8000313400883160313C3004108831203135D
:1007D800DE0083160313420883120313DF00831617
:1007E8000313430883120313E00008008312031362
:1007F800C200B801B9012F30B3003308B600013088
:1008080083120313AE07FF302E0784000A128A15DD
:100818000A200A128A11B3003308C100C10803195B
:10082800D02D4108253A03192B2C4108B300420862
:1008380084003308831380000130B3003308C207F3
:100848000130B8070318B90A0030B907032CBF01F3
:10085800C001BE01342C3E150130B3003308AE0789
:100868002E0884000A128A150A200A128A11303AC0
:1008780003192F2C3F2C2E0884000A128A150A20EF
:100888000A128A110A168A11E1260A128A11031C11
:100898008F2C83120313BF01C0010A308312031384
:1008A800A0000030A1004008A301A3073F08A2014F
:1008B800A2070A128A1512210A128A118312031337
:1008C8002108C001C0072008BF01BF072E08840007
:1008D8000A128A150A200A128A11D03EB300FF3084
:1008E80003180030B4003308BF070318C00A3408DF
:1008F800C0070130B3003308AE072E0884000A127F
:100908008A150A200A128A110A168A11E1260A1281
:100918008A110318512C013083120313AE07FF30DC
:100928002E0784000A128A150A200A128A11C100A9
:10093800003A0319D02D643A0319A62C0D3A03196D
:10094800A62C032C83120313360884008313000893
:10095800BA00840A0008BB000230B3003308B607A7
:10096800BB1FBF2C0330B3003308BE04BA09BB0950
:10097800BA0A0319BB0AC101C10A4108053A031999
:10098800E62C4108B3003307013E84000A128A1599
:100998000A200A128A11B4000A128A150A200A12B9
:1009A8008A11B50035083B02031DDC2C34083A02D5
:1009B800031CE62C0130B3003308C1074108053A8F
:1009C800031DC52C40083F040319F42C3E080339C5
:1009D8000319F42CFF30BF070318C00AFF30C00703
:1009E8004108B300B401B31BB4033408803AB5001E
:1009F8004008803A3502031D032D3F0833020318CF
:100A0800132D831203134108B300B401B31BB403BD
:100A18003308BF023408031CC003C002172D831219
:100A28000313BF01C0013E1D4A2D3E0803390319B7
:100A38002E2D2D30B3004208840033088313800024
:100A48000130B3003308C2070130B8070318B90AE8
:100A58000030B90740083F0403197E2D3030B30039
:100A6800420884003308831380000130B300330840
:100A7800C2070130B8070318B90A0030B907FF30B8
:100A8800BF070318C00AFF30C0072E2D40083F04D7
:100A98000319692D2030B3004208840033088313FA
:100AA80080000130B3003308C2070130B8070318CB
:100AB800B90A0030B907FF30BF070318C00AFF3072
:100AC800C00740083F04031D4E2D3E080339031993
:100AD8007E2D2D30B3004208840033088313800034
:100AE8000130B3003308C2070130B8070318B90A48
:100AF8000030B9074108B3003308B700FF30B3002E
:100B08003308B7073708FF3A0319032C0A30A8003F
:100B18000030A9003708B3003307013E84000A12E9
:100B28008A150A200A128A11A0000A128A150A20B8
:100B38000A128A11A1003B08A301A3073A08A201DF
:100B4800A2070A128A15C0210A128A1183120313F6
:100B58002108AB01AB072008AA01AA070A128A15C7
:100B68008A210A128A11831203132808303EB4001E
:100B78003408C1004108B3004208840033088313D5
:100B880080000130B3003308C2070130B8070318EA
:100B9800B90A0030B907822D831203134208840072
:100BA800831380013908AF01AF073808AE01AE07DB
:100BB8000800831203136408CE006508CF00660896
:100BC800D0000A128A158A230A128A118312031383
:100BD8004F0883160313D301D307831203134E0858
:100BE80083160313D201D207530883120313A901F2
:100BF800A90783160313520883120313A801A80731
:100C08000A128A15ED200A128A1183120313280882
:100C1800AE002908AF002A08B0000A128A11F52789
:100C28000A128A11831203132E08B4002F08B50084
:100C38003008B6006408B1006508B2006608B30061
:100C48000A128A15F7260A128A1183120313310829
:100C5800C1003208C2003308C3000030BE00C830EB
:100C6800BF004230C0000A128A1122270A128A11D4
:100C7800831203133E08CE003F08CF004008D0007F
:100C88000A128A158A230A128A11831203134F083B
:100C980083160313D501D507831203134E08831651
:100CA8000313D401D407A03083120313DE005E08B7
:100CB80083160313D600B23083120313DE005E08D6
:100CC800AE008316031356080A128A11FA230A1271
:100CD8008A11831203132E08DF005F08831603139B
:100CE800D607BD3083120313DE005E08AE008316FC
:100CF8000313530883120313B001B00783160313B9
:100D0800520883120313AF01AF0783160313560863
:100D18000A128A11FA230A128A11831203132E085F
:100D2800DF005F0883160313D6072E3083120313E0
:100D3800DE008316031356088400831203135E082B
:100D4800831380000130DE005E0883160313D60784
:100D58005508803AFF0080307F02031DB52E0A3007
:100D680054020318CA2E303083120313DE00831690
:100D7800031356088400831203135E08831380004C
:100D88000130DE005E0883160313D607A2308312F3
:100D98000313DE005E08AE008316031355088312A2
:100DA8000313B001B0078316031354088312031307
:100DB800AF01AF078316031356080A128A11FA23E4
:100DC8000A128A11A03083120313A2000030A30074
:100DD8000A128A155F210A128A11122F94300A16F4
:100DE8008A1104270A128A112F3083120313A200D2
:100DF8008030A3000A128A155F21080094300A1671
:100E08008A1104270A128A111E3083120313A200C2
:100E18008030A3000A128A155F2108008312031389
:100E28005D08003A0319192F212F5C08003A0319AD
:100E3800F22E013A0319022F212F080083120313FF
:100E48003E08C4003F08C5004008C6000310450D11
:100E5800460DC7004708C800C808031D3A2F0030D0
:100E6800BE000030BF000030C00008004108C400C8
:100E78004208C5004308C6000310450D460DC700CB
:100E88004708CD00CD08031D502F0030BE000030AC
:100E9800BF000030C00008004D087B3EC400440875
:100EA800C8073E08C4003F08C5004008C600103007
:100EB8000310C60CC50CC40CFF3E031D5C2F440870
:100EC800C7004708CD004108C4004208C5004308D0
:100ED800C60010300310C60CC50CC40CFF3E031D21
:100EE8006E2F4408C7004708CD068030C400440868
:100EF800CD05BF17C217FF30C105FF30C20500304E
:100F0800C3050030C9000030CA000030CB000730EC
:100F1800C4004408CC003E1C9F2F4108C907420862
:100F280003110318420A031DCA07430803110318D3
:100F3800430A031DCB0701300310C00CBF0CBE0CC5
:100F4800FF3E031DA02F01300310C10DC20DC30DBC
:100F5800FF3E031DA82F0130CC02031D8F2F09303F
:100F6800C4004408CC003E1CC72F4108C9074208EA
:100F780003110318420A031DCA0743080311031883
:100F8800430A031DCB0701300310C00CBF0CBE0C75
:100F9800FF3E031DC82F01300310CB0CCA0CC90C2F
:100FA800FF3E031DD02F0130CC02031DB72F490887
:100FB800A0004A08A1004B08A2004808C400440841
:100FC800A3004D08C5004508A4000A128A15AE22E0
:100FD800831203132008BE002108BF002208C000A6
:100FE80008008312031330082F042E040319080085
:060FF8008030B006080085
:10100000FF1B0A2883137F1883170008840A03191B
:10101000FF0A080008308A000408840A82070034A6
:10102000013400340A34003464340034E8340334C6
:10103000103427344D344F34443445343A3420345A
:1010400053344534543420344134433454345634C6
:1010500020344834523453340034413469347234C7
:1010600020345034753472346934663469346534EC
:10107000723420344F344E342034003441346934D7
:1010800072342034503475347234693466346934BF
:101090006534723420344F3446344634003454348A
:1010A00069346D3465343A34203425343034323484
:1010B00064343A34253430343234643400344434C3
:1010C000493453345034203443344D344D344F3448
:1010D0004E342034503447343134003444344934AD
:1010E00053345034203443344D344D344F344E3423
:1010F000203450344734323400345334453454347B
:1011000020344D3449344E345534543445345334FA
:101110000034533445345434203448344F34553437
:101120005234533400344434453443343A34203454
:101130002534303432346434003449344E3443344A
:101140003A34203425343034323464340034533467
:10115000453454343A342034253430343234643411
:101160000034253464342034703470346D342034C9
:10117000203400344D344F34443445343A34203430
:10118000003443344F3432343A342034003454344D
:1011900045345334543400342534643400347908ED
:1011A0008312031368060319080001300A168A1116
:1011B00004270A128A15413083120313A300EE306C
:1011C000A200A20BE128A30BE12800008312031365
:1011D0006808A2002208F900080083120313AD0179
:1011E000A91FF928A809A909A80A0319A90AAD0184
:1011F000AD0A2808A0002908A100A2018E30AB008A
:101200002B08A3002D08AC002C08A4000A128A1594
:10121000AE22831203132008A8002108A900220887
:10122000AA00080083120313A401A501201C1E2993
:101230002208A4070318A50A2308A50701300310F4
:10124000A20DA30DFF3E031D1F2901300310A10CA9
:10125000A00CFF3E031D262921082004031D16298A
:101260002508A101A1072408A001A0070800031078
:101270008312031386180314003003180130A200F0
:10128000A3012208A4002308A50001302406250498
:10129000031D562978087704031D56290130A20042
:1012A0002208EA0601300A168A1104278312031362
:1012B0002508F801F8072408F701F70708000C30A3
:1012C0000A168A1104270A128A15831203132308A7
:1012D000FF00220884000A128A1500200A128A15CB
:1012E000003803190800831203132308FF002208A3
:1012F00084000A128A1500200A128A150A168A1119
:1013000017270A128A15013083120313A207031844
:10131000A30A652983120313290828040319B9298C
:10132000AD01AD0AA91BA02901300310A80DA90D1C
:10133000FF3E031D95290130AC002C08AD07922912
:1013400029082B02031DA62928082A02031CAE29FE
:101350002808AA022908031CAB03AB0201300310C2
:10136000A90CA80CFF3E031DAF290130AD02031DDF
:10137000A0292B08A901A9072A08A801A807080085
:1013800083120313A501A601210820040319F929DA
:10139000A701A70AA11BD82901300310A00DA10D98
:1013A000FF3E031DCD290130A4002408A707CA2948
:1013B00001300310A50DA60DFF3E031DD9292108FC
:1013C0002302031DE52920082202031CEE29200820
:1013D000A2022108031CA303A30225140130031059
:1013E000A10CA00CFF3E031DEF290130A702031D35
:1013F000D8292608A101A1072508A001A0070800F7
:1014000083120313A601A31F0C2AA209A309A20A8F
:101410000319A30AA601A60AA11F132AA009A1095C
:10142000A00A0319A10A210820040319402AA501D2
:10143000A50AA11B272A01300310A00DA10DFF3E14
:10144000031D1C2A0130A4002408A507192A21081D
:101450002302031D2D2A20082202031C352A2008FE
:10146000A2022108031CA303A30201300310A10C54
:10147000A00CFF3E031D362A0130A502031D272ABA
:1014800026080319482AA209A309A20A0319A30AD4
:101490002308A101A1072208A001A00708008312C8
:1014A0000313A21F782A0030A6000030A700803066
:1014B000A8002009A9002109AA002209AB00A90A55
:1014C0000319AA0A0319AB0A2908A6072A08031850
:1014D0002A0F6B2A6C2AA7072B0803182B0F712AD7
:1014E000722AA8072608A0002708A1002808A20041
:1014F000A51F9F2A0030A6000030A7008030A8005A
:101500002309A9002409AA002509AB00A90A031987
:10151000AA0A0319AB0A2908A6072A0803182A0FE2
:10152000922A932AA7072B0803182B0F982A992A87
:10153000A8072608A3002708A4002808A5008030D3
:10154000A2068030A50625082202031D08002408F3
:101550002102031D08002308200208008312031340
:1015600023080319B82A220821042004031DCB2ACA
:101570000030A0000030A1000030A20008000130BF
:10158000A5002508A30701300310A20CA10CA00C94
:10159000FF3E031DC42AFE3022050319E62ABF2A96
:1015A0000130A5002508A3070130A007003003186B
:1015B0000130A107003003180130A20701300310E9
:1015C000A20CA10CA00CFF3E031DDF2AFF30220558
:1015D0000319F52AD02A0130A30201300310A00D0F
:1015E000A10DA20DFF3E031DEE2AA11FEB2A231819
:1015F000FF2AFF30A0057F30A105FF30A2050310B0
:10160000A30C2308A500A601A70110300310A50D07
:10161000A60DA70DFF3E031D062B2508A0042608D6
:10162000A1042708A204240803190800A21708002F
:101630000A168A11D2260A128A150A168A11C92692
:101640000A128A150A168A11BA260A128A150A1669
:101650008A112A270A128A15023083120313E30023
:101660004530E200A930E100E10B342BE20B342BD2
:10167000E30B342B3B2B412B6B086C02031C882B98
:1016800007160A168A115A270A128A150A168A118B
:101690003F270A128A15831203132108DF01DF078F
:1016A0002008DE01DE070A128A1153200A128A1569
:1016B000831203135E08E4005F08E5006008E6009B
:1016C0000A168A1195270A128A15831203132D0808
:1016D00083160313D801D807831203132C0883162B
:1016E0000313D701D7070A128A1537210A128A1560
:1016F0000A128A15CF200A128A150A128A15BE24E8
:101700000A128A15831203136D086B0203183C2B0F
:101710000712412B831203134E08D2004F08D30047
:101720005008D4000310530D540DD5005508DB00AC
:10173000DB08031DA42B0030D1000030D0000030A6
:10174000CF000030CE0008004E08D2004F08D30072
:101750005008D40017300310D40CD30CD20CFF3E29
:10176000031DAB2B5208D5005508D600CF17FF300C
:10177000CE05FF30CF050030D0054E08D7004F080A
:10178000D8005008D900DA018E30DB02DB1FE62BCF
:101790005B08803A8F3E0318D62B0030D100003012
:1017A000D0000030CF000030CE0008000130031020
:1017B000DA0CD90CD80CD70CFF3E031DD72B013007
:1017C000D2005208DB070319012CD62B18305B021C
:1017D000031CFE2B0030D1000030D0000030CF00C1
:1017E0000030CE0008000130D2000310D70DD80D14
:1017F000D90DDA0DD20BF52B0130DB02DB08031D0E
:10180000F32B560803190F2CD709D809D909DA097F
:10181000D70A0319D80A0319D90A0319DA0A5A0888
:10182000D1005908D0005808CF005708CE00080052
:10183000831203130608C30003300310C30CFF3EDA
:10184000031D1D2C43080139C4004408C6000608C6
:10185000C30004300310C30CFF3E031D2A2C4308B1
:101860000F39C4004408C7004130C400EE30C30043
:10187000C30B382CC40B382C00008312031346080A
:101880000319B62C47086F060319B62C47080C3A03
:10189000031D622C3C30A0000030A1006908053E09
:1018A000A200003003180130A3000A128A1500229A
:1018B0000A128A15831203132008C3004308E900A3
:1018C0008E30872C8312031347080E3A031D802C99
:1018D0003C30A0000030A1006908373EA200003073
:1018E00003180130A3000A128A1500220A128A1571
:1018F000831203132008C3004308E9008430872CB7
:101900008312031347080D3A031D972C9830C30028
:101910004308AE006908C400C5014408AF0045088B
:10192000B000E3300A128A11FA230A128A15E33052
:1019300083120313A2000030A3000A128A155F214C
:101940000A128A15831203134708C3004308EF00E5
:1019500083120313861D08000D30C400FB30C30042
:10196000C30BB02CC40BB02CB52CA82CC608031D7F
:101970000800FF30C3004308EF000800672D8030E7
:101980000A168A1104270A128A15AB308312031330
:10199000A2008030A3000A128A155F210A128A155C
:1019A000092D503083120313A2008030A3000A12C5
:1019B0008A155F210A128A15C0300A168A11042777
:1019C0000A128A1583160313580883120313DD01C4
:1019D000DD0783160313570883120313DC01DC07AA
:1019E0000A128A11DD2508005F3083120313A2005A
:1019F0008030A3000A128A155F210A128A15C030AE
:101A00000A168A1104270A128A150A168A11DC2777
:101A10000800831203136A08003A0319D12C013A13
:101A20000319F42C712D080080300A168A1104273E
:101A30000A128A150B3083120313A2008030A30010
:101A40000A128A155F210A128A155C2DC0300A1607
:101A50008A1104270A128A157A3083120313A2000E
:101A60008030A3000A128A155F210A128A15943069
:101A70000A168A1104270A128A150A128A152A26BA
:101A80000800C0300A168A1104270A128A156E301F
:101A900083120313A2008030A3000A128A155F216B
:101AA0000A128A1594300A168A1104270A128A1516
:101AB0000A128A1518240800831203136A08003AD0
:101AC0000319262D013A0319412D712D08008312A7
:101AD00003136808003A0319BF2C013A0319142DA7
:101AE000712D0800831203135108D4005208D50049
:101AF0005308D6000310550D560DD7005708DC00CB
:101B0000DC08031D8A2D0030CE000030CF000030ED
:101B1000D00008004E08D4004F08D5005008D60069
:101B20000310550D560DD7005708DD00DD08031DC5
:101B3000A02D0030CE000030CF000030D0000800D3
:101B40000030D9000030DA000030DB0089305D075A
:101B5000D4005408DC025108D4005208D5005308C0
:101B6000D60010300310D60CD50CD40CFF3E031D4C
:101B7000B22D5408D7005708DD004E08D4004F0896
:101B8000D5005008D60010300310D60CD50CD40C5C
:101B9000FF3E031DC42D5408D7005708DD068030D2
:101BA000D4005408DD05D217FF30D105FF30D2052F
:101BB0000030D305CF17FF30CE05FF30CF05003002
:101BC000D0051830D4005408D80001300310D90DC6
:101BD000DA0DDB0DFF3E031DE62D50085302031DF9
:101BE000F72D4F085202031DF72D4E085102031C1A
:101BF000042E4E08D1024F08031C4F0FD20250088A
:101C0000031C500AD302591401300310D10DD20D18
:101C1000D30DFF3E031D052E0130D802031DE52D17
:101C20005908A0005A08A1005B08A2005C08D40073
:101C30005408A3005D08D5005508A4000A128A15AF
:101C4000AE22831203132008CE002108CF00220801
:101C5000D0000800831203130608C30003300310EA
:101C6000C30CFF3E031D2F2E43080139C400440856
:101C7000C6000608C30004300310C30CFF3E031D5A
:101C80003C2E43080F39C4004408C7004130C4004B
:101C9000EE30C300C30B4A2EC40B4A2E0000831241
:101CA000031346080319EF2E47086E060319EF2E9B
:101CB00047080C3A031D842E1830A0000030A10004
:101CC0006D08013EA200003003180130A3000A1283
:101CD0008A1500220A128A15831203132008C300F2
:101CE0004308ED008E30C3004308AE006D08C40009
:101CF000C5014408AF004508B000D9300A128A1166
:101D0000FA230A128A15D02E8312031347080E3ABB
:101D1000031DB22E1830A0000030A1006D08173E40
:101D2000A200003003180130A3000A128A15002215
:101D30000A128A15831203132008C3004308ED001A
:101D40008430C3004308AE006D08C400C5014408D8
:101D5000AF004508B000D9300A128A11FA230A12DE
:101D60008A15D02E8312031347080D3A031DD02E77
:101D70009830C3004308AE006D08C400C501440894
:101D8000AF004508B000D9300A128A11FA230A12AE
:101D90008A15831203136D08023EC3004308EC004A
:101DA000D93083120313A2000030A3000A128A154F
:101DB0005F210A128A15831203134708C3004308E0
:101DC000EE0083120313861D08000D30C400FB30A3
:101DD000C300C30BE92EC40BE92EEE2EE12EC6087C
:101DE000031D0800FF30C3004308EE000800831203
:101DF00003133108B7003208B8003308B9000310E4
:101E0000380D390DBA003A08BD003408B70035085E
:101E1000B8003608B9000310380D390DBA003A0879
:101E2000BC003D080319202F3C083D020318272F52
:101E30003D03FF3A3C07B70019303702031C272F38
:101E40003408B1003508B2003608B30008003C0879
:101E5000031908003D083C020318362F3C03FF3AE3
:101E60003D07B70019303702031808000630B700E5
:101E70003708BB00B31BBB17B61B3B17B217FF30AD
:101E8000B105FF30B2050030B305B517FF30B4051A
:101E9000FF30B5050030B6053C083D020318762F2B
:101EA00001300310B40DB50DB60DFF3E031D512FCB
:101EB0000130BC023C083D060319712F0130BB0202
:101EC0003B0807390319712F502F01300310B30C51
:101ED000B20CB10CFF3E031D662F0130B70037086E
:101EE000BD073D083C0603199F2F652F3D083C02A6
:101EF00003189F2F01300310B10DB20DB30DFF3E3B
:101F0000031D7B2F0130BD023C083D0603199B2FAA
:101F10000130BB023B08073903199B2F7A2F013090
:101F20000310B60CB50CB40CFF3E031D902F01300E
:101F3000B7003708BC073D083C06031D8F2FBB1FA9
:101F4000B12FFF30B106FF30B206FF30B3060130CB
:101F5000B107003003180130B20700300318013018
:101F6000B3073B1FC32FFF30B406FF30B506FF3069
:101F7000B6060130B407003003180130B507003051
:101F800003180130B607BB013108B407320803114A
:101F90000318320A031DB507330803110318330A67
:101FA000031DB607B61FE62FFF30B406FF30B50697
:101FB000FF30B6060130B407003003180130B50712
:101FC000003003180130B607BB01BB0A3408A0007B
:101FD0003508A1003608A2003D08B7003708A30065
:101FE0003B08B8003808A4000A128A15AE228312F2
:101FF00003132008B1002108B2002208B300080032
:102D6600FF341E3408340A340934FF34FF348B1719
:102D76000B168B10831603130113080064008001E1
:102D8600840A0406031900340406C22E8030831612
:102D960003139F000130831203139F000800FF30C6
:102DA600831603138500FF3086008701880183128E
:102DB6000313850186018701880108008312031326
:102DC600A100A0013A3021020318EF2E3030210273
:102DD600031CEF2EA001A00A200C0800F1007108C8
:102DE600831203138800071087100715F930F000C7
:102DF6000000F00BFB2EFF2E0000831203130711B9
:102E0600080083120313A100210888000710871009
:102E16000715F930A0000000A00B0E2F122F00009E
:102E2600831203130711080083120313A10021085C
:102E36008800071487100715F930A0000000A00BC2
:102E4600212F252F000083120313071108000A16ED
:102E56008A11B8270A168A1180300A168A110427A1
:102E66000A168A11B83083120313A2008030A30019
:102E76000A128A155F210800823083120313A30009
:102E8600DD30A200A20B452FA30B452F4A2F83123C
:102E960003131F151F194D2F1E08A101A107831625
:102EA60003131E0883120313A001A00708000130B4
:102EB60083120313A0002008E7073C306702031CB7
:102EC6006D2FE7010130A0002008EB0718306B02D8
:102ED6000318EB014130A100EE30A000A00B712FCA
:102EE600A10B712F000008008B138B1C812F8B10F8
:102EF6006808013E0139F2007208E80001300A163E
:102F06008A11F1260A168A118B1776088312031383
:102F1600FF0075088A0074088400730E8300FE0E95
:102F26007E0E0900003083120313A0001030A100AA
:102F36004130A2006408A3006508A4006608A50045
:102F46000A128A154F220A168A110318B22F831203
:102F5600031387150130AC000030AD000800831262
:102F660003138711AC01AD01080038300A168A1127
:102F760004270A168A11103083120313A200A20B2B
:102F8600C22F00000C300A168A1104270A168A116D
:102F960001300A168A1104270A168A1106300A1603
:102FA6008A1104270A168A110F300A168A11042775
:102FB6000800403083120313C3004308AE006B08B9
:102FC600C400C5014408AF004508B0006708C60044
:102FD600C7014608B1004708B20048300A128A11F4
:102FE600FA230A168A11483083120313A20000300E
:0A2FF600A3000A128A155F210800EB
:02400E007AFF37
:00000001FF
